{
  "fileName": "BatchDeposit.sol",
  "contractName": "BatchDeposit",
  "source": "// SPDX-License-Identifier: MIT\n\npragma solidity 0.6.11;\npragma experimental ABIEncoderV2;\n\nimport \"@openzeppelin/contracts-ethereum-package/contracts/access/Ownable.sol\";\n\nimport \"./interfaces/IMintDrop.sol\";\n\ncontract BatchDeposit is OwnableUpgradeSafe {\n\n    struct DepositArgs {\n        bytes pubkey; //48 bytes\n        bytes withdrawal_credentials; //32 bytes\n        bytes signature; //96 bytes\n        bytes32 deposit_data_root;\n    }\n\n    DepositArgs[100] public table;\n    bool[100] public hasData;\n    address public mint_drop;\n    address public worker;\n\n    function initialize(address mint_drop_, address worker_) public initializer {\n        super.__Ownable_init();\n        mint_drop = mint_drop_;\n        worker = worker_;\n    }\n\n    function hasDataFlags()  public view returns(bool[100] memory) {\n        return hasData;\n    }\n\n    function changeWorker(address newWorker) external onlyOwner {\n        worker = newWorker;\n    }\n\n    function changeMintDropOwner(address newOwner) external onlyOwner {\n        IMintDrop(mint_drop).transferOwnership(newOwner);\n    }\n\n    function lockMintDropWithdraw() external onlyOwner {\n        IMintDrop(mint_drop).lockWithdraw();\n    }\n\n    function unlockMintDropWithdraw() external onlyOwner {\n        IMintDrop(mint_drop).unlockWithdraw();\n    }\n\n    function fillTheTable(DepositArgs[] memory args, uint256 start) external {\n        require(msg.sender == worker && args.length > 0 && start < 100, \"Invalid Sender or Length/Position error\");\n        uint256 end = start + args.length;\n        require(end <= 100, \"Position error\");\n\n        for(uint256 i = start; i < end; i++) {\n            uint256 j = i - start;\n            require(args[j].pubkey.length == 48, \"Invalid pubkey length\");\n            require(args[j].withdrawal_credentials.length == 32, \"Invalid withdrawal_credentials length\");\n            require(args[j].signature.length == 96, \"Invalid signature length\");\n            table[i] = args[j];\n            hasData[i] = true;\n        }\n    }\n\n    function doBatchDeposit(uint256 start, uint256 end) external onlyOwner {\n        require(start < end && end <= 100);\n\n        for(uint256 i = start; i < end; i++) {\n            require(hasData[i], \"Empty table-item or Duplicated deposit\");\n            IMintDrop(mint_drop).lockForValidator(\n                    table[i].pubkey,\n                    table[i].withdrawal_credentials,\n                    table[i].signature,\n                    table[i].deposit_data_root\n            );\n            hasData[i] = false;\n        }\n    }\n}\n",
  "sourcePath": "contracts/BatchDeposit.sol",
  "abi": [
    {
      "anonymous": false,
      "inputs": [
        {
          "indexed": true,
          "internalType": "address",
          "name": "previousOwner",
          "type": "address"
        },
        {
          "indexed": true,
          "internalType": "address",
          "name": "newOwner",
          "type": "address"
        }
      ],
      "name": "OwnershipTransferred",
      "type": "event"
    },
    {
      "inputs": [
        {
          "internalType": "address",
          "name": "newOwner",
          "type": "address"
        }
      ],
      "name": "changeMintDropOwner",
      "outputs": [],
      "stateMutability": "nonpayable",
      "type": "function"
    },
    {
      "inputs": [
        {
          "internalType": "address",
          "name": "newWorker",
          "type": "address"
        }
      ],
      "name": "changeWorker",
      "outputs": [],
      "stateMutability": "nonpayable",
      "type": "function"
    },
    {
      "inputs": [
        {
          "internalType": "uint256",
          "name": "start",
          "type": "uint256"
        },
        {
          "internalType": "uint256",
          "name": "end",
          "type": "uint256"
        }
      ],
      "name": "doBatchDeposit",
      "outputs": [],
      "stateMutability": "nonpayable",
      "type": "function"
    },
    {
      "inputs": [
        {
          "components": [
            {
              "internalType": "bytes",
              "name": "pubkey",
              "type": "bytes"
            },
            {
              "internalType": "bytes",
              "name": "withdrawal_credentials",
              "type": "bytes"
            },
            {
              "internalType": "bytes",
              "name": "signature",
              "type": "bytes"
            },
            {
              "internalType": "bytes32",
              "name": "deposit_data_root",
              "type": "bytes32"
            }
          ],
          "internalType": "struct BatchDeposit.DepositArgs[]",
          "name": "args",
          "type": "tuple[]"
        },
        {
          "internalType": "uint256",
          "name": "start",
          "type": "uint256"
        }
      ],
      "name": "fillTheTable",
      "outputs": [],
      "stateMutability": "nonpayable",
      "type": "function"
    },
    {
      "inputs": [
        {
          "internalType": "uint256",
          "name": "",
          "type": "uint256"
        }
      ],
      "name": "hasData",
      "outputs": [
        {
          "internalType": "bool",
          "name": "",
          "type": "bool"
        }
      ],
      "stateMutability": "view",
      "type": "function"
    },
    {
      "inputs": [],
      "name": "hasDataFlags",
      "outputs": [
        {
          "internalType": "bool[100]",
          "name": "",
          "type": "bool[100]"
        }
      ],
      "stateMutability": "view",
      "type": "function"
    },
    {
      "inputs": [
        {
          "internalType": "address",
          "name": "mint_drop_",
          "type": "address"
        },
        {
          "internalType": "address",
          "name": "worker_",
          "type": "address"
        }
      ],
      "name": "initialize",
      "outputs": [],
      "stateMutability": "nonpayable",
      "type": "function"
    },
    {
      "inputs": [],
      "name": "lockMintDropWithdraw",
      "outputs": [],
      "stateMutability": "nonpayable",
      "type": "function"
    },
    {
      "inputs": [],
      "name": "mint_drop",
      "outputs": [
        {
          "internalType": "address",
          "name": "",
          "type": "address"
        }
      ],
      "stateMutability": "view",
      "type": "function"
    },
    {
      "inputs": [],
      "name": "owner",
      "outputs": [
        {
          "internalType": "address",
          "name": "",
          "type": "address"
        }
      ],
      "stateMutability": "view",
      "type": "function"
    },
    {
      "inputs": [],
      "name": "renounceOwnership",
      "outputs": [],
      "stateMutability": "nonpayable",
      "type": "function"
    },
    {
      "inputs": [
        {
          "internalType": "uint256",
          "name": "",
          "type": "uint256"
        }
      ],
      "name": "table",
      "outputs": [
        {
          "internalType": "bytes",
          "name": "pubkey",
          "type": "bytes"
        },
        {
          "internalType": "bytes",
          "name": "withdrawal_credentials",
          "type": "bytes"
        },
        {
          "internalType": "bytes",
          "name": "signature",
          "type": "bytes"
        },
        {
          "internalType": "bytes32",
          "name": "deposit_data_root",
          "type": "bytes32"
        }
      ],
      "stateMutability": "view",
      "type": "function"
    },
    {
      "inputs": [
        {
          "internalType": "address",
          "name": "newOwner",
          "type": "address"
        }
      ],
      "name": "transferOwnership",
      "outputs": [],
      "stateMutability": "nonpayable",
      "type": "function"
    },
    {
      "inputs": [],
      "name": "unlockMintDropWithdraw",
      "outputs": [],
      "stateMutability": "nonpayable",
      "type": "function"
    },
    {
      "inputs": [],
      "name": "worker",
      "outputs": [
        {
          "internalType": "address",
          "name": "",
          "type": "address"
        }
      ],
      "stateMutability": "view",
      "type": "function"
    }
  ],
  "bytecode": "0x608060405234801561001057600080fd5b50612387806100206000396000f3fe608060405234801561001057600080fd5b50600436106100f55760003560e01c8063540a3b9f11610097578063bafff8c011610066578063bafff8c014610212578063bda7716d14610245578063e495afbd14610261578063f2fde38b1461027f576100f5565b8063540a3b9f146101c4578063715018a6146101ce5780637ef71fd0146101d85780638da5cb5b146101f4576100f5565b80633a6c354f116100d35780633a6c354f146101505780633fc4a6bf1461016e578063485cc9551461018a5780634d547ada146101a6576100f5565b806303502519146100fa5780630cd0ac191461011657806315e8236614610120575b600080fd5b610114600480360381019061010f91906119c2565b61029b565b005b61011e6103c3565b005b61013a60048036038101906101359190611a7b565b6104df565b6040516101479190611f88565b60405180910390f35b610158610507565b6040516101659190611f51565b60405180910390f35b61018860048036038101906101839190611a27565b61052e565b005b6101a4600480360381019061019f91906119eb565b610816565b005b6101ae61098d565b6040516101bb9190611f51565b60405180910390f35b6101cc6109b4565b005b6101d6610ad0565b005b6101f260048036038101906101ed91906119c2565b610c28565b005b6101fc610d04565b6040516102099190611f51565b60405180910390f35b61022c60048036038101906102279190611a7b565b610d2e565b60405161023c9493929190611fa3565b60405180910390f35b61025f600480360381019061025a9190611aa4565b610f29565b005b61026961116c565b6040516102769190611f6c565b60405180910390f35b610299600480360381019061029491906119c2565b6111dd565b005b6102a36113a4565b73ffffffffffffffffffffffffffffffffffffffff16606560009054906101000a900473ffffffffffffffffffffffffffffffffffffffff1673ffffffffffffffffffffffffffffffffffffffff1614610332576040517f08c379a0000000000000000000000000000000000000000000000000000000008152600401610329906120b7565b60405180910390fd5b61022b60009054906101000a900473ffffffffffffffffffffffffffffffffffffffff1673ffffffffffffffffffffffffffffffffffffffff1663f2fde38b826040518263ffffffff1660e01b815260040161038e9190611f51565b600060405180830381600087803b1580156103a857600080fd5b505af11580156103bc573d6000803e3d6000fd5b5050505050565b6103cb6113a4565b73ffffffffffffffffffffffffffffffffffffffff16606560009054906101000a900473ffffffffffffffffffffffffffffffffffffffff1673ffffffffffffffffffffffffffffffffffffffff161461045a576040517f08c379a0000000000000000000000000000000000000000000000000000000008152600401610451906120b7565b60405180910390fd5b61022b60009054906101000a900473ffffffffffffffffffffffffffffffffffffffff1673ffffffffffffffffffffffffffffffffffffffff1663a425632f6040518163ffffffff1660e01b8152600401600060405180830381600087803b1580156104c557600080fd5b505af11580156104d9573d6000803e3d6000fd5b50505050565b61022781606481106104ed57fe5b60209182820401919006915054906101000a900460ff1681565b61022b60009054906101000a900473ffffffffffffffffffffffffffffffffffffffff1681565b61022c60009054906101000a900473ffffffffffffffffffffffffffffffffffffffff1673ffffffffffffffffffffffffffffffffffffffff163373ffffffffffffffffffffffffffffffffffffffff1614801561058d575060008251115b80156105995750606481105b6105d8576040517f08c379a00000000000000000000000000000000000000000000000000000000081526004016105cf90612117565b60405180910390fd5b60008251820190506064811115610624576040517f08c379a000000000000000000000000000000000000000000000000000000000815260040161061b90612137565b60405180910390fd5b60008290505b818110156108105760008382039050603085828151811061064757fe5b6020026020010151600001515114610694576040517f08c379a000000000000000000000000000000000000000000000000000000000815260040161068b906120f7565b60405180910390fd5b60208582815181106106a257fe5b60200260200101516020015151146106ef576040517f08c379a00000000000000000000000000000000000000000000000000000000081526004016106e690612077565b60405180910390fd5b60608582815181106106fd57fe5b602002602001015160400151511461074a576040517f08c379a000000000000000000000000000000000000000000000000000000000815260040161074190612157565b60405180910390fd5b84818151811061075657fe5b60200260200101516097836064811061076b57fe5b60040201600082015181600001908051906020019061078b929190611737565b5060208201518160010190805190602001906107a8929190611737565b5060408201518160020190805190602001906107c5929190611737565b5060608201518160030155905050600161022783606481106107e357fe5b602091828204019190066101000a81548160ff02191690831515021790555050808060010191505061062a565b50505050565b600060019054906101000a900460ff168061083557506108346113ac565b5b8061084c57506000809054906101000a900460ff16155b61088b576040517f08c379a0000000000000000000000000000000000000000000000000000000008152600401610882906120d7565b60405180910390fd5b60008060019054906101000a900460ff1615905080156108db576001600060016101000a81548160ff02191690831515021790555060016000806101000a81548160ff0219169083151502179055505b6108e36113c3565b8261022b60006101000a81548173ffffffffffffffffffffffffffffffffffffffff021916908373ffffffffffffffffffffffffffffffffffffffff1602179055508161022c60006101000a81548173ffffffffffffffffffffffffffffffffffffffff021916908373ffffffffffffffffffffffffffffffffffffffff16021790555080156109885760008060016101000a81548160ff0219169083151502179055505b505050565b61022c60009054906101000a900473ffffffffffffffffffffffffffffffffffffffff1681565b6109bc6113a4565b73ffffffffffffffffffffffffffffffffffffffff16606560009054906101000a900473ffffffffffffffffffffffffffffffffffffffff1673ffffffffffffffffffffffffffffffffffffffff1614610a4b576040517f08c379a0000000000000000000000000000000000000000000000000000000008152600401610a42906120b7565b60405180910390fd5b61022b60009054906101000a900473ffffffffffffffffffffffffffffffffffffffff1673ffffffffffffffffffffffffffffffffffffffff1663b31dbd346040518163ffffffff1660e01b8152600401600060405180830381600087803b158015610ab657600080fd5b505af1158015610aca573d6000803e3d6000fd5b50505050565b610ad86113a4565b73ffffffffffffffffffffffffffffffffffffffff16606560009054906101000a900473ffffffffffffffffffffffffffffffffffffffff1673ffffffffffffffffffffffffffffffffffffffff1614610b67576040517f08c379a0000000000000000000000000000000000000000000000000000000008152600401610b5e906120b7565b60405180910390fd5b600073ffffffffffffffffffffffffffffffffffffffff16606560009054906101000a900473ffffffffffffffffffffffffffffffffffffffff1673ffffffffffffffffffffffffffffffffffffffff167f8be0079c531659141344cd1fd0a4f28419497f9722a3daafe3b4186f6b6457e060405160405180910390a36000606560006101000a81548173ffffffffffffffffffffffffffffffffffffffff021916908373ffffffffffffffffffffffffffffffffffffffff160217905550565b610c306113a4565b73ffffffffffffffffffffffffffffffffffffffff16606560009054906101000a900473ffffffffffffffffffffffffffffffffffffffff1673ffffffffffffffffffffffffffffffffffffffff1614610cbf576040517f08c379a0000000000000000000000000000000000000000000000000000000008152600401610cb6906120b7565b60405180910390fd5b8061022c60006101000a81548173ffffffffffffffffffffffffffffffffffffffff021916908373ffffffffffffffffffffffffffffffffffffffff16021790555050565b6000606560009054906101000a900473ffffffffffffffffffffffffffffffffffffffff16905090565b60978160648110610d3b57fe5b60040201600091509050806000018054600181600116156101000203166002900480601f016020809104026020016040519081016040528092919081815260200182805460018160011615610100020316600290048015610ddd5780601f10610db257610100808354040283529160200191610ddd565b820191906000526020600020905b815481529060010190602001808311610dc057829003601f168201915b505050505090806001018054600181600116156101000203166002900480601f016020809104026020016040519081016040528092919081815260200182805460018160011615610100020316600290048015610e7b5780601f10610e5057610100808354040283529160200191610e7b565b820191906000526020600020905b815481529060010190602001808311610e5e57829003601f168201915b505050505090806002018054600181600116156101000203166002900480601f016020809104026020016040519081016040528092919081815260200182805460018160011615610100020316600290048015610f195780601f10610eee57610100808354040283529160200191610f19565b820191906000526020600020905b815481529060010190602001808311610efc57829003601f168201915b5050505050908060030154905084565b610f316113a4565b73ffffffffffffffffffffffffffffffffffffffff16606560009054906101000a900473ffffffffffffffffffffffffffffffffffffffff1673ffffffffffffffffffffffffffffffffffffffff1614610fc0576040517f08c379a0000000000000000000000000000000000000000000000000000000008152600401610fb7906120b7565b60405180910390fd5b8082108015610fd0575060648111155b610fd957600080fd5b60008290505b81811015611167576102278160648110610ff557fe5b602091828204019190069054906101000a900460ff1661104a576040517f08c379a000000000000000000000000000000000000000000000000000000000815260040161104190612097565b60405180910390fd5b61022b60009054906101000a900473ffffffffffffffffffffffffffffffffffffffff1673ffffffffffffffffffffffffffffffffffffffff1663d5a2313a6097836064811061109657fe5b60040201600001609784606481106110aa57fe5b60040201600101609785606481106110be57fe5b60040201600201609786606481106110d257fe5b60040201600301546040518563ffffffff1660e01b81526004016110f99493929190611ffd565b600060405180830381600087803b15801561111357600080fd5b505af1158015611127573d6000803e3d6000fd5b505050506000610227826064811061113b57fe5b602091828204019190066101000a81548160ff0219169083151502179055508080600101915050610fdf565b505050565b6111746117b7565b6102276064806020026040519081016040528092919082606480156111d3576020028201916000905b82829054906101000a900460ff1615158152602001906001019060208260000104928301926001038202915080841161119d5790505b5050505050905090565b6111e56113a4565b73ffffffffffffffffffffffffffffffffffffffff16606560009054906101000a900473ffffffffffffffffffffffffffffffffffffffff1673ffffffffffffffffffffffffffffffffffffffff1614611274576040517f08c379a000000000000000000000000000000000000000000000000000000000815260040161126b906120b7565b60405180910390fd5b600073ffffffffffffffffffffffffffffffffffffffff168173ffffffffffffffffffffffffffffffffffffffff1614156112e4576040517f08c379a00000000000000000000000000000000000000000000000000000000081526004016112db90612057565b60405180910390fd5b8073ffffffffffffffffffffffffffffffffffffffff16606560009054906101000a900473ffffffffffffffffffffffffffffffffffffffff1673ffffffffffffffffffffffffffffffffffffffff167f8be0079c531659141344cd1fd0a4f28419497f9722a3daafe3b4186f6b6457e060405160405180910390a380606560006101000a81548173ffffffffffffffffffffffffffffffffffffffff021916908373ffffffffffffffffffffffffffffffffffffffff16021790555050565b600033905090565b6000803090506000813b9050600081149250505090565b600060019054906101000a900460ff16806113e257506113e16113ac565b5b806113f957506000809054906101000a900460ff16155b611438576040517f08c379a000000000000000000000000000000000000000000000000000000000815260040161142f906120d7565b60405180910390fd5b60008060019054906101000a900460ff161590508015611488576001600060016101000a81548160ff02191690831515021790555060016000806101000a81548160ff0219169083151502179055505b6114906114bc565b6114986115a5565b80156114b95760008060016101000a81548160ff0219169083151502179055505b50565b600060019054906101000a900460ff16806114db57506114da6113ac565b5b806114f257506000809054906101000a900460ff16155b611531576040517f08c379a0000000000000000000000000000000000000000000000000000000008152600401611528906120d7565b60405180910390fd5b60008060019054906101000a900460ff161590508015611581576001600060016101000a81548160ff02191690831515021790555060016000806101000a81548160ff0219169083151502179055505b80156115a25760008060016101000a81548160ff0219169083151502179055505b50565b600060019054906101000a900460ff16806115c457506115c36113ac565b5b806115db57506000809054906101000a900460ff16155b61161a576040517f08c379a0000000000000000000000000000000000000000000000000000000008152600401611611906120d7565b60405180910390fd5b60008060019054906101000a900460ff16159050801561166a576001600060016101000a81548160ff02191690831515021790555060016000806101000a81548160ff0219169083151502179055505b60006116746113a4565b905080606560006101000a81548173ffffffffffffffffffffffffffffffffffffffff021916908373ffffffffffffffffffffffffffffffffffffffff1602179055508073ffffffffffffffffffffffffffffffffffffffff16600073ffffffffffffffffffffffffffffffffffffffff167f8be0079c531659141344cd1fd0a4f28419497f9722a3daafe3b4186f6b6457e060405160405180910390a35080156117345760008060016101000a81548160ff0219169083151502179055505b50565b828054600181600116156101000203166002900490600052602060002090601f016020900481019282601f1061177857805160ff19168380011785556117a6565b828001600101855582156117a6579182015b828111156117a557825182559160200191906001019061178a565b5b5090506117b391906117da565b5090565b60405180610c800160405280606490602082028036833780820191505090505090565b6117fc91905b808211156117f85760008160009055506001016117e0565b5090565b90565b60008135905061180e8161230c565b92915050565b600082601f83011261182557600080fd5b8135611838611833826121a4565b612177565b9150818183526020840193506020810190508360005b8381101561187e578135860161186488826118f1565b84526020840193506020830192505060018101905061184e565b5050505092915050565b60008135905061189781612323565b92915050565b600082601f8301126118ae57600080fd5b81356118c16118bc826121cc565b612177565b915080825260208301602083018583830111156118dd57600080fd5b6118e88382846122b9565b50505092915050565b60006080828403121561190357600080fd5b61190d6080612177565b9050600082013567ffffffffffffffff81111561192957600080fd5b6119358482850161189d565b600083015250602082013567ffffffffffffffff81111561195557600080fd5b6119618482850161189d565b602083015250604082013567ffffffffffffffff81111561198157600080fd5b61198d8482850161189d565b60408301525060606119a184828501611888565b60608301525092915050565b6000813590506119bc8161233a565b92915050565b6000602082840312156119d457600080fd5b60006119e2848285016117ff565b91505092915050565b600080604083850312156119fe57600080fd5b6000611a0c858286016117ff565b9250506020611a1d858286016117ff565b9150509250929050565b60008060408385031215611a3a57600080fd5b600083013567ffffffffffffffff811115611a5457600080fd5b611a6085828601611814565b9250506020611a71858286016119ad565b9150509250929050565b600060208284031215611a8d57600080fd5b6000611a9b848285016119ad565b91505092915050565b60008060408385031215611ab757600080fd5b6000611ac5858286016119ad565b9250506020611ad6858286016119ad565b9150509250929050565b6000611aec8383611b5e565b60208301905092915050565b611b0181612267565b82525050565b611b1081612217565b611b1a818461223a565b9250611b25826121f8565b8060005b83811015611b56578151611b3d8782611ae0565b9650611b488361222d565b925050600181019050611b29565b505050505050565b611b6781612279565b82525050565b611b7681612279565b82525050565b611b8581612285565b82525050565b6000611b9682612222565b611ba08185612245565b9350611bb08185602086016122c8565b611bb9816122fb565b840191505092915050565b600081546001811660008114611be15760018114611c0757611c4b565b607f6002830416611bf28187612245565b955060ff198316865260208601935050611c4b565b60028204611c158187612245565b9550611c2085612202565b60005b82811015611c4257815481890152600182019150602081019050611c23565b80880195505050505b505092915050565b6000611c60602683612256565b91507f4f776e61626c653a206e6577206f776e657220697320746865207a65726f206160008301527f64647265737300000000000000000000000000000000000000000000000000006020830152604082019050919050565b6000611cc6602583612256565b91507f496e76616c6964207769746864726177616c5f63726564656e7469616c73206c60008301527f656e6774680000000000000000000000000000000000000000000000000000006020830152604082019050919050565b6000611d2c602683612256565b91507f456d707479207461626c652d6974656d206f72204475706c696361746564206460008301527f65706f73697400000000000000000000000000000000000000000000000000006020830152604082019050919050565b6000611d92602083612256565b91507f4f776e61626c653a2063616c6c6572206973206e6f7420746865206f776e65726000830152602082019050919050565b6000611dd2602e83612256565b91507f436f6e747261637420696e7374616e63652068617320616c726561647920626560008301527f656e20696e697469616c697a65640000000000000000000000000000000000006020830152604082019050919050565b6000611e38601583612256565b91507f496e76616c6964207075626b6579206c656e67746800000000000000000000006000830152602082019050919050565b6000611e78602783612256565b91507f496e76616c69642053656e646572206f72204c656e6774682f506f736974696f60008301527f6e206572726f72000000000000000000000000000000000000000000000000006020830152604082019050919050565b6000611ede600e83612256565b91507f506f736974696f6e206572726f720000000000000000000000000000000000006000830152602082019050919050565b6000611f1e601883612256565b91507f496e76616c6964207369676e6174757265206c656e67746800000000000000006000830152602082019050919050565b6000602082019050611f666000830184611af8565b92915050565b6000610c8082019050611f826000830184611b07565b92915050565b6000602082019050611f9d6000830184611b6d565b92915050565b60006080820190508181036000830152611fbd8187611b8b565b90508181036020830152611fd18186611b8b565b90508181036040830152611fe58185611b8b565b9050611ff46060830184611b7c565b95945050505050565b600060808201905081810360008301526120178187611bc4565b9050818103602083015261202b8186611bc4565b9050818103604083015261203f8185611bc4565b905061204e6060830184611b7c565b95945050505050565b6000602082019050818103600083015261207081611c53565b9050919050565b6000602082019050818103600083015261209081611cb9565b9050919050565b600060208201905081810360008301526120b081611d1f565b9050919050565b600060208201905081810360008301526120d081611d85565b9050919050565b600060208201905081810360008301526120f081611dc5565b9050919050565b6000602082019050818103600083015261211081611e2b565b9050919050565b6000602082019050818103600083015261213081611e6b565b9050919050565b6000602082019050818103600083015261215081611ed1565b9050919050565b6000602082019050818103600083015261217081611f11565b9050919050565b6000604051905081810181811067ffffffffffffffff8211171561219a57600080fd5b8060405250919050565b600067ffffffffffffffff8211156121bb57600080fd5b602082029050602081019050919050565b600067ffffffffffffffff8211156121e357600080fd5b601f19601f8301169050602081019050919050565b6000819050919050565b60008190508160005260206000209050919050565b600060649050919050565b600081519050919050565b6000602082019050919050565b600081905092915050565b600082825260208201905092915050565b600082825260208201905092915050565b60006122728261228f565b9050919050565b60008115159050919050565b6000819050919050565b600073ffffffffffffffffffffffffffffffffffffffff82169050919050565b6000819050919050565b82818337600083830152505050565b60005b838110156122e65780820151818401526020810190506122cb565b838111156122f5576000848401525b50505050565b6000601f19601f8301169050919050565b61231581612267565b811461232057600080fd5b50565b61232c81612285565b811461233757600080fd5b50565b612343816122af565b811461234e57600080fd5b5056fea2646970667358221220524372aa746bdf4d545785f1433626abd4252b8c02f31bae689a23369859ee0e64736f6c634300060b0033",
  "compiler": {
    "name": "solc",
    "version": "0.6.11+commit.5ef660b1.Emscripten.clang",
    "optimizer": {
      "enabled": false,
      "runs": 200
    },
    "evmVersion": "petersburg"
  }
}