{
  "fileName": "ClaimRewards.sol",
  "contractName": "ClaimRewards",
  "source": "// SPDX-License-Identifier: MIT\n\npragma solidity 0.6.11;\n\nimport \"@openzeppelin/contracts-ethereum-package/contracts/math/SafeMath.sol\";\nimport \"@openzeppelin/contracts-ethereum-package/contracts/token/ERC20/IERC20.sol\";\nimport \"@openzeppelin/contracts-ethereum-package/contracts/token/ERC20/SafeERC20.sol\";\nimport \"@openzeppelin/contracts-ethereum-package/contracts/access/Ownable.sol\";\nimport \"@openzeppelin/contracts-ethereum-package/contracts/cryptography/ECDSA.sol\";\n\ncontract ClaimRewards is OwnableUpgradeSafe {\n    using SafeMath for uint;\n    using SafeERC20 for IERC20;\n    using ECDSA for bytes32;\n\n    /* ========== STATE VARIABLES ========== */\n\n    // signer address of claim request\n    address public signer;\n    // address of vETH\n    address public vETHAddress;\n    // amount of total claimed\n    uint public totalClaimed;\n    // user address => amount of user claimed\n    mapping(address => uint) public myClaimed;\n    // claim index => if the bonus has been claimed\n    mapping(uint => bool) public claimed;\n    // claim index => timestamp of next claim action\n    mapping(address => uint) public myNextClaimAfter;\n\n    /* ========== EVENTS ========== */\n\n    event Claimed(address indexed sender, uint amount);\n\n    /* ========== CONSTRUCTOR ========== */\n\n    function initialize(address vETHAddress_, address signer_) public initializer {\n        super.__Ownable_init();\n        vETHAddress = vETHAddress_;\n        signer = signer_;\n    }\n\n    /* ========== MUTATIVE FUNCTIONS ========== */\n\n    function claim(uint index, uint amount, uint expireAt, bytes memory signature) external {\n        require(now < expireAt, \"expired\");\n        require(!claimed[index], \"claimed\");\n        require(myNextClaimAfter[msg.sender] < now, \"claim too frequency\");\n        claimed[index] = true;\n\n        bytes32 message = keccak256(abi.encode(msg.sender, index, amount, expireAt));\n        bytes32 hashMessage = message.toEthSignedMessageHash();\n        require(signer == hashMessage.recover(signature), \"invalid signature\");\n\n        if (amount > 0) {\n            totalClaimed = totalClaimed.add(amount);\n            myClaimed[msg.sender] = myClaimed[msg.sender].add(amount);\n            myNextClaimAfter[msg.sender] = expireAt;\n            IERC20(vETHAddress).safeTransfer(msg.sender, amount);\n        }\n        emit Claimed(msg.sender, amount);\n    }\n\n    function setSigner(address signer_) external onlyOwner {\n        signer = signer_;\n    }\n\n}\n",
  "sourcePath": "contracts/ClaimRewards.sol",
  "abi": [
    {
      "anonymous": false,
      "inputs": [
        {
          "indexed": true,
          "internalType": "address",
          "name": "sender",
          "type": "address"
        },
        {
          "indexed": false,
          "internalType": "uint256",
          "name": "amount",
          "type": "uint256"
        }
      ],
      "name": "Claimed",
      "type": "event"
    },
    {
      "anonymous": false,
      "inputs": [
        {
          "indexed": true,
          "internalType": "address",
          "name": "previousOwner",
          "type": "address"
        },
        {
          "indexed": true,
          "internalType": "address",
          "name": "newOwner",
          "type": "address"
        }
      ],
      "name": "OwnershipTransferred",
      "type": "event"
    },
    {
      "inputs": [
        {
          "internalType": "uint256",
          "name": "index",
          "type": "uint256"
        },
        {
          "internalType": "uint256",
          "name": "amount",
          "type": "uint256"
        },
        {
          "internalType": "uint256",
          "name": "expireAt",
          "type": "uint256"
        },
        {
          "internalType": "bytes",
          "name": "signature",
          "type": "bytes"
        }
      ],
      "name": "claim",
      "outputs": [],
      "stateMutability": "nonpayable",
      "type": "function"
    },
    {
      "inputs": [
        {
          "internalType": "uint256",
          "name": "",
          "type": "uint256"
        }
      ],
      "name": "claimed",
      "outputs": [
        {
          "internalType": "bool",
          "name": "",
          "type": "bool"
        }
      ],
      "stateMutability": "view",
      "type": "function"
    },
    {
      "inputs": [
        {
          "internalType": "address",
          "name": "vETHAddress_",
          "type": "address"
        },
        {
          "internalType": "address",
          "name": "signer_",
          "type": "address"
        }
      ],
      "name": "initialize",
      "outputs": [],
      "stateMutability": "nonpayable",
      "type": "function"
    },
    {
      "inputs": [
        {
          "internalType": "address",
          "name": "",
          "type": "address"
        }
      ],
      "name": "myClaimed",
      "outputs": [
        {
          "internalType": "uint256",
          "name": "",
          "type": "uint256"
        }
      ],
      "stateMutability": "view",
      "type": "function"
    },
    {
      "inputs": [
        {
          "internalType": "address",
          "name": "",
          "type": "address"
        }
      ],
      "name": "myNextClaimAfter",
      "outputs": [
        {
          "internalType": "uint256",
          "name": "",
          "type": "uint256"
        }
      ],
      "stateMutability": "view",
      "type": "function"
    },
    {
      "inputs": [],
      "name": "owner",
      "outputs": [
        {
          "internalType": "address",
          "name": "",
          "type": "address"
        }
      ],
      "stateMutability": "view",
      "type": "function"
    },
    {
      "inputs": [],
      "name": "renounceOwnership",
      "outputs": [],
      "stateMutability": "nonpayable",
      "type": "function"
    },
    {
      "inputs": [
        {
          "internalType": "address",
          "name": "signer_",
          "type": "address"
        }
      ],
      "name": "setSigner",
      "outputs": [],
      "stateMutability": "nonpayable",
      "type": "function"
    },
    {
      "inputs": [],
      "name": "signer",
      "outputs": [
        {
          "internalType": "address",
          "name": "",
          "type": "address"
        }
      ],
      "stateMutability": "view",
      "type": "function"
    },
    {
      "inputs": [],
      "name": "totalClaimed",
      "outputs": [
        {
          "internalType": "uint256",
          "name": "",
          "type": "uint256"
        }
      ],
      "stateMutability": "view",
      "type": "function"
    },
    {
      "inputs": [
        {
          "internalType": "address",
          "name": "newOwner",
          "type": "address"
        }
      ],
      "name": "transferOwnership",
      "outputs": [],
      "stateMutability": "nonpayable",
      "type": "function"
    },
    {
      "inputs": [],
      "name": "vETHAddress",
      "outputs": [
        {
          "internalType": "address",
          "name": "",
          "type": "address"
        }
      ],
      "stateMutability": "view",
      "type": "function"
    }
  ],
  "bytecode": "0x608060405234801561001057600080fd5b50611beb806100206000396000f3fe608060405234801561001057600080fd5b50600436106100b45760003560e01c8063715018a611610071578063715018a6146103345780638da5cb5b1461033e578063d54ad2a114610388578063dbe7e3bd146103a6578063f2fde38b146103ec578063fb94220614610430576100b4565b8063238ac933146100b9578063485cc955146101035780634afaf435146101675780635b69e165146101bf5780636548b7ae146102175780636c19e783146102f0575b600080fd5b6100c161047a565b604051808273ffffffffffffffffffffffffffffffffffffffff1673ffffffffffffffffffffffffffffffffffffffff16815260200191505060405180910390f35b6101656004803603604081101561011957600080fd5b81019080803573ffffffffffffffffffffffffffffffffffffffff169060200190929190803573ffffffffffffffffffffffffffffffffffffffff1690602001909291905050506104a0565b005b6101a96004803603602081101561017d57600080fd5b81019080803573ffffffffffffffffffffffffffffffffffffffff16906020019092919050505061062b565b6040518082815260200191505060405180910390f35b610201600480360360208110156101d557600080fd5b81019080803573ffffffffffffffffffffffffffffffffffffffff169060200190929190505050610643565b6040518082815260200191505060405180910390f35b6102ee6004803603608081101561022d57600080fd5b810190808035906020019092919080359060200190929190803590602001909291908035906020019064010000000081111561026857600080fd5b82018360208201111561027a57600080fd5b8035906020019184600183028401116401000000008311171561029c57600080fd5b91908080601f016020809104026020016040519081016040528093929190818152602001838380828437600081840152601f19601f82011690508083019250505050505050919291929050505061065b565b005b6103326004803603602081101561030657600080fd5b81019080803573ffffffffffffffffffffffffffffffffffffffff169060200190929190505050610b36565b005b61033c610c44565b005b610346610dcf565b604051808273ffffffffffffffffffffffffffffffffffffffff1673ffffffffffffffffffffffffffffffffffffffff16815260200191505060405180910390f35b610390610df9565b6040518082815260200191505060405180910390f35b6103d2600480360360208110156103bc57600080fd5b8101908080359060200190929190505050610dff565b604051808215151515815260200191505060405180910390f35b61042e6004803603602081101561040257600080fd5b81019080803573ffffffffffffffffffffffffffffffffffffffff169060200190929190505050610e1f565b005b61043861102f565b604051808273ffffffffffffffffffffffffffffffffffffffff1673ffffffffffffffffffffffffffffffffffffffff16815260200191505060405180910390f35b609760009054906101000a900473ffffffffffffffffffffffffffffffffffffffff1681565b600060019054906101000a900460ff16806104bf57506104be611055565b5b806104d657506000809054906101000a900460ff16155b61052b576040517f08c379a000000000000000000000000000000000000000000000000000000000815260040180806020018281038252602e815260200180611b5e602e913960400191505060405180910390fd5b60008060019054906101000a900460ff16159050801561057b576001600060016101000a81548160ff02191690831515021790555060016000806101000a81548160ff0219169083151502179055505b61058361106c565b82609860006101000a81548173ffffffffffffffffffffffffffffffffffffffff021916908373ffffffffffffffffffffffffffffffffffffffff16021790555081609760006101000a81548173ffffffffffffffffffffffffffffffffffffffff021916908373ffffffffffffffffffffffffffffffffffffffff16021790555080156106265760008060016101000a81548160ff0219169083151502179055505b505050565b609a6020528060005260406000206000915090505481565b609c6020528060005260406000206000915090505481565b8142106106d0576040517f08c379a00000000000000000000000000000000000000000000000000000000081526004018080602001828103825260078152602001807f657870697265640000000000000000000000000000000000000000000000000081525060200191505060405180910390fd5b609b600085815260200190815260200160002060009054906101000a900460ff1615610764576040517f08c379a00000000000000000000000000000000000000000000000000000000081526004018080602001828103825260078152602001807f636c61696d65640000000000000000000000000000000000000000000000000081525060200191505060405180910390fd5b42609c60003373ffffffffffffffffffffffffffffffffffffffff1673ffffffffffffffffffffffffffffffffffffffff1681526020019081526020016000205410610818576040517f08c379a00000000000000000000000000000000000000000000000000000000081526004018080602001828103825260138152602001807f636c61696d20746f6f206672657175656e63790000000000000000000000000081525060200191505060405180910390fd5b6001609b600086815260200190815260200160002060006101000a81548160ff021916908315150217905550600033858585604051602001808573ffffffffffffffffffffffffffffffffffffffff1673ffffffffffffffffffffffffffffffffffffffff16815260200184815260200183815260200182815260200194505050505060405160208183030381529060405280519060200120905060006108be8261117b565b90506108d383826111d390919063ffffffff16565b73ffffffffffffffffffffffffffffffffffffffff16609760009054906101000a900473ffffffffffffffffffffffffffffffffffffffff1673ffffffffffffffffffffffffffffffffffffffff1614610995576040517f08c379a00000000000000000000000000000000000000000000000000000000081526004018080602001828103825260118152602001807f696e76616c6964207369676e617475726500000000000000000000000000000081525060200191505060405180910390fd5b6000851115610ae0576109b38560995461146e90919063ffffffff16565b609981905550610a0b85609a60003373ffffffffffffffffffffffffffffffffffffffff1673ffffffffffffffffffffffffffffffffffffffff1681526020019081526020016000205461146e90919063ffffffff16565b609a60003373ffffffffffffffffffffffffffffffffffffffff1673ffffffffffffffffffffffffffffffffffffffff1681526020019081526020016000208190555083609c60003373ffffffffffffffffffffffffffffffffffffffff1673ffffffffffffffffffffffffffffffffffffffff16815260200190815260200160002081905550610adf3386609860009054906101000a900473ffffffffffffffffffffffffffffffffffffffff1673ffffffffffffffffffffffffffffffffffffffff166114f69092919063ffffffff16565b5b3373ffffffffffffffffffffffffffffffffffffffff167fd8138f8a3f377c5259ca548e70e4c2de94f129f5a11036a15b69513cba2b426a866040518082815260200191505060405180910390a2505050505050565b610b3e6115ae565b73ffffffffffffffffffffffffffffffffffffffff16606560009054906101000a900473ffffffffffffffffffffffffffffffffffffffff1673ffffffffffffffffffffffffffffffffffffffff1614610c00576040517f08c379a00000000000000000000000000000000000000000000000000000000081526004018080602001828103825260208152602001807f4f776e61626c653a2063616c6c6572206973206e6f7420746865206f776e657281525060200191505060405180910390fd5b80609760006101000a81548173ffffffffffffffffffffffffffffffffffffffff021916908373ffffffffffffffffffffffffffffffffffffffff16021790555050565b610c4c6115ae565b73ffffffffffffffffffffffffffffffffffffffff16606560009054906101000a900473ffffffffffffffffffffffffffffffffffffffff1673ffffffffffffffffffffffffffffffffffffffff1614610d0e576040517f08c379a00000000000000000000000000000000000000000000000000000000081526004018080602001828103825260208152602001807f4f776e61626c653a2063616c6c6572206973206e6f7420746865206f776e657281525060200191505060405180910390fd5b600073ffffffffffffffffffffffffffffffffffffffff16606560009054906101000a900473ffffffffffffffffffffffffffffffffffffffff1673ffffffffffffffffffffffffffffffffffffffff167f8be0079c531659141344cd1fd0a4f28419497f9722a3daafe3b4186f6b6457e060405160405180910390a36000606560006101000a81548173ffffffffffffffffffffffffffffffffffffffff021916908373ffffffffffffffffffffffffffffffffffffffff160217905550565b6000606560009054906101000a900473ffffffffffffffffffffffffffffffffffffffff16905090565b60995481565b609b6020528060005260406000206000915054906101000a900460ff1681565b610e276115ae565b73ffffffffffffffffffffffffffffffffffffffff16606560009054906101000a900473ffffffffffffffffffffffffffffffffffffffff1673ffffffffffffffffffffffffffffffffffffffff1614610ee9576040517f08c379a00000000000000000000000000000000000000000000000000000000081526004018080602001828103825260208152602001807f4f776e61626c653a2063616c6c6572206973206e6f7420746865206f776e657281525060200191505060405180910390fd5b600073ffffffffffffffffffffffffffffffffffffffff168173ffffffffffffffffffffffffffffffffffffffff161415610f6f576040517f08c379a0000000000000000000000000000000000000000000000000000000008152600401808060200182810382526026815260200180611af46026913960400191505060405180910390fd5b8073ffffffffffffffffffffffffffffffffffffffff16606560009054906101000a900473ffffffffffffffffffffffffffffffffffffffff1673ffffffffffffffffffffffffffffffffffffffff167f8be0079c531659141344cd1fd0a4f28419497f9722a3daafe3b4186f6b6457e060405160405180910390a380606560006101000a81548173ffffffffffffffffffffffffffffffffffffffff021916908373ffffffffffffffffffffffffffffffffffffffff16021790555050565b609860009054906101000a900473ffffffffffffffffffffffffffffffffffffffff1681565b6000803090506000813b9050600081149250505090565b600060019054906101000a900460ff168061108b575061108a611055565b5b806110a257506000809054906101000a900460ff16155b6110f7576040517f08c379a000000000000000000000000000000000000000000000000000000000815260040180806020018281038252602e815260200180611b5e602e913960400191505060405180910390fd5b60008060019054906101000a900460ff161590508015611147576001600060016101000a81548160ff02191690831515021790555060016000806101000a81548160ff0219169083151502179055505b61114f6115b6565b6111576116b5565b80156111785760008060016101000a81548160ff0219169083151502179055505b50565b60008160405160200180807f19457468657265756d205369676e6564204d6573736167653a0a333200000000815250601c01828152602001915050604051602081830303815290604052805190602001209050919050565b6000604182511461124c576040517f08c379a000000000000000000000000000000000000000000000000000000000815260040180806020018281038252601f8152602001807f45434453413a20696e76616c6964207369676e6174757265206c656e6774680081525060200191505060405180910390fd5b60008060006020850151925060408501519150606085015160001a90507f7fffffffffffffffffffffffffffffff5d576e7357a4501ddfe92f46681b20a08260001c11156112e5576040517f08c379a0000000000000000000000000000000000000000000000000000000008152600401808060200182810382526022815260200180611b1a6022913960400191505060405180910390fd5b601b8160ff16141580156112fd5750601c8160ff1614155b15611353576040517f08c379a0000000000000000000000000000000000000000000000000000000008152600401808060200182810382526022815260200180611b3c6022913960400191505060405180910390fd5b600060018783868660405160008152602001604052604051808581526020018460ff1660ff1681526020018381526020018281526020019450505050506020604051602081039080840390855afa1580156113b2573d6000803e3d6000fd5b505050602060405103519050600073ffffffffffffffffffffffffffffffffffffffff168173ffffffffffffffffffffffffffffffffffffffff161415611461576040517f08c379a00000000000000000000000000000000000000000000000000000000081526004018080602001828103825260188152602001807f45434453413a20696e76616c6964207369676e6174757265000000000000000081525060200191505060405180910390fd5b8094505050505092915050565b6000808284019050838110156114ec576040517f08c379a000000000000000000000000000000000000000000000000000000000815260040180806020018281038252601b8152602001807f536166654d6174683a206164646974696f6e206f766572666c6f77000000000081525060200191505060405180910390fd5b8091505092915050565b6115a98363a9059cbb60e01b8484604051602401808373ffffffffffffffffffffffffffffffffffffffff1673ffffffffffffffffffffffffffffffffffffffff16815260200182815260200192505050604051602081830303815290604052907bffffffffffffffffffffffffffffffffffffffffffffffffffffffff19166020820180517bffffffffffffffffffffffffffffffffffffffffffffffffffffffff838183161783525050505061185d565b505050565b600033905090565b600060019054906101000a900460ff16806115d557506115d4611055565b5b806115ec57506000809054906101000a900460ff16155b611641576040517f08c379a000000000000000000000000000000000000000000000000000000000815260040180806020018281038252602e815260200180611b5e602e913960400191505060405180910390fd5b60008060019054906101000a900460ff161590508015611691576001600060016101000a81548160ff02191690831515021790555060016000806101000a81548160ff0219169083151502179055505b80156116b25760008060016101000a81548160ff0219169083151502179055505b50565b600060019054906101000a900460ff16806116d457506116d3611055565b5b806116eb57506000809054906101000a900460ff16155b611740576040517f08c379a000000000000000000000000000000000000000000000000000000000815260040180806020018281038252602e815260200180611b5e602e913960400191505060405180910390fd5b60008060019054906101000a900460ff161590508015611790576001600060016101000a81548160ff02191690831515021790555060016000806101000a81548160ff0219169083151502179055505b600061179a6115ae565b905080606560006101000a81548173ffffffffffffffffffffffffffffffffffffffff021916908373ffffffffffffffffffffffffffffffffffffffff1602179055508073ffffffffffffffffffffffffffffffffffffffff16600073ffffffffffffffffffffffffffffffffffffffff167f8be0079c531659141344cd1fd0a4f28419497f9722a3daafe3b4186f6b6457e060405160405180910390a350801561185a5760008060016101000a81548160ff0219169083151502179055505b50565b61187c8273ffffffffffffffffffffffffffffffffffffffff16611aa8565b6118ee576040517f08c379a000000000000000000000000000000000000000000000000000000000815260040180806020018281038252601f8152602001807f5361666545524332303a2063616c6c20746f206e6f6e2d636f6e74726163740081525060200191505060405180910390fd5b600060608373ffffffffffffffffffffffffffffffffffffffff16836040518082805190602001908083835b6020831061193d578051825260208201915060208101905060208303925061191a565b6001836020036101000a0380198251168184511680821785525050505050509050019150506000604051808303816000865af19150503d806000811461199f576040519150601f19603f3d011682016040523d82523d6000602084013e6119a4565b606091505b509150915081611a1c576040517f08c379a00000000000000000000000000000000000000000000000000000000081526004018080602001828103825260208152602001807f5361666545524332303a206c6f772d6c6576656c2063616c6c206661696c656481525060200191505060405180910390fd5b600081511115611aa257808060200190516020811015611a3b57600080fd5b8101908080519060200190929190505050611aa1576040517f08c379a000000000000000000000000000000000000000000000000000000000815260040180806020018281038252602a815260200180611b8c602a913960400191505060405180910390fd5b5b50505050565b60008060007fc5d2460186f7233c927e7db2dcc703c0e500b653ca82273b7bfad8045d85a47060001b9050833f9150808214158015611aea57506000801b8214155b9250505091905056fe4f776e61626c653a206e6577206f776e657220697320746865207a65726f206164647265737345434453413a20696e76616c6964207369676e6174757265202773272076616c756545434453413a20696e76616c6964207369676e6174757265202776272076616c7565436f6e747261637420696e7374616e63652068617320616c7265616479206265656e20696e697469616c697a65645361666545524332303a204552433230206f7065726174696f6e20646964206e6f742073756363656564a26469706673582212202848fc0396713fef315eb0a11e783342598a1814b537e9b5660e8908ed29f00a64736f6c634300060b0033",
  "compiler": {
    "name": "solc",
    "version": "0.6.11+commit.5ef660b1.Emscripten.clang",
    "optimizer": {
      "enabled": false,
      "runs": 200
    },
    "evmVersion": "petersburg"
  }
}