{
  "fileName": "DepositContract.sol",
  "contractName": "DepositContract",
  "source": "/**\n *Submitted for verification at Etherscan.io on 2020-10-14\n*/\n\n// ┏━━━┓━┏┓━┏┓━━┏━━━┓━━┏━━━┓━━━━┏━━━┓━━━━━━━━━━━━━━━━━━━┏┓━━━━━┏━━━┓━━━━━━━━━┏┓━━━━━━━━━━━━━━┏┓━\n// ┃┏━━┛┏┛┗┓┃┃━━┃┏━┓┃━━┃┏━┓┃━━━━┗┓┏┓┃━━━━━━━━━━━━━━━━━━┏┛┗┓━━━━┃┏━┓┃━━━━━━━━┏┛┗┓━━━━━━━━━━━━┏┛┗┓\n// ┃┗━━┓┗┓┏┛┃┗━┓┗┛┏┛┃━━┃┃━┃┃━━━━━┃┃┃┃┏━━┓┏━━┓┏━━┓┏━━┓┏┓┗┓┏┛━━━━┃┃━┗┛┏━━┓┏━┓━┗┓┏┛┏━┓┏━━┓━┏━━┓┗┓┏┛\n// ┃┏━━┛━┃┃━┃┏┓┃┏━┛┏┛━━┃┃━┃┃━━━━━┃┃┃┃┃┏┓┃┃┏┓┃┃┏┓┃┃━━┫┣┫━┃┃━━━━━┃┃━┏┓┃┏┓┃┃┏┓┓━┃┃━┃┏┛┗━┓┃━┃┏━┛━┃┃━\n// ┃┗━━┓━┃┗┓┃┃┃┃┃┃┗━┓┏┓┃┗━┛┃━━━━┏┛┗┛┃┃┃━┫┃┗┛┃┃┗┛┃┣━━┃┃┃━┃┗┓━━━━┃┗━┛┃┃┗┛┃┃┃┃┃━┃┗┓┃┃━┃┗┛┗┓┃┗━┓━┃┗┓\n// ┗━━━┛━┗━┛┗┛┗┛┗━━━┛┗┛┗━━━┛━━━━┗━━━┛┗━━┛┃┏━┛┗━━┛┗━━┛┗┛━┗━┛━━━━┗━━━┛┗━━┛┗┛┗┛━┗━┛┗┛━┗━━━┛┗━━┛━┗━┛\n// ━━━━━━━━━━━━━━━━━━━━━━━━━━━━━━━━━━━━━━┃┃━━━━━━━━━━━━━━━━━━━━━━━━━━━━━━━━━━━━━━━━━━━━━━━━━━━━━\n// ━━━━━━━━━━━━━━━━━━━━━━━━━━━━━━━━━━━━━━┗┛━━━━━━━━━━━━━━━━━━━━━━━━━━━━━━━━━━━━━━━━━━━━━━━━━━━━━\n\n// SPDX-License-Identifier: CC0-1.0\n\npragma solidity 0.6.11;\n\n// This interface is designed to be compatible with the Vyper version.\n/// @notice This is the Ethereum 2.0 deposit contract interface.\n/// For more information see the Phase 0 specification under https://github.com/ethereum/eth2.0-specs\ninterface IDepositContract {\n    /// @notice A processed deposit event.\n    event DepositEvent(\n        bytes pubkey,\n        bytes withdrawal_credentials,\n        bytes amount,\n        bytes signature,\n        bytes index\n    );\n\n    /// @notice Submit a Phase 0 DepositData object.\n    /// @param pubkey A BLS12-381 public key.\n    /// @param withdrawal_credentials Commitment to a public key for withdrawals.\n    /// @param signature A BLS12-381 signature.\n    /// @param deposit_data_root The SHA-256 hash of the SSZ-encoded DepositData object.\n    /// Used as a protection against malformed input.\n    function deposit(\n        bytes calldata pubkey,\n        bytes calldata withdrawal_credentials,\n        bytes calldata signature,\n        bytes32 deposit_data_root\n    ) external payable;\n\n    /// @notice Query the current deposit root hash.\n    /// @return The deposit root hash.\n    function get_deposit_root() external view returns (bytes32);\n\n    /// @notice Query the current deposit count.\n    /// @return The deposit count encoded as a little endian 64-bit number.\n    function get_deposit_count() external view returns (bytes memory);\n}\n\n// Based on official specification in https://eips.ethereum.org/EIPS/eip-165\ninterface ERC165 {\n    /// @notice Query if a contract implements an interface\n    /// @param interfaceId The interface identifier, as specified in ERC-165\n    /// @dev Interface identification is specified in ERC-165. This function\n    ///  uses less than 30,000 gas.\n    /// @return `true` if the contract implements `interfaceId` and\n    ///  `interfaceId` is not 0xffffffff, `false` otherwise\n    function supportsInterface(bytes4 interfaceId) external pure returns (bool);\n}\n\n// This is a rewrite of the Vyper Eth2.0 deposit contract in Solidity.\n// It tries to stay as close as possible to the original source code.\n/// @notice This is the Ethereum 2.0 deposit contract interface.\n/// For more information see the Phase 0 specification under https://github.com/ethereum/eth2.0-specs\ncontract DepositContract is IDepositContract, ERC165 {\n    uint constant DEPOSIT_CONTRACT_TREE_DEPTH = 32;\n    // NOTE: this also ensures `deposit_count` will fit into 64-bits\n    uint constant MAX_DEPOSIT_COUNT = 2**DEPOSIT_CONTRACT_TREE_DEPTH - 1;\n\n    bytes32[DEPOSIT_CONTRACT_TREE_DEPTH] branch;\n    uint256 deposit_count;\n\n    bytes32[DEPOSIT_CONTRACT_TREE_DEPTH] zero_hashes;\n\n    constructor() public {\n        // Compute hashes in empty sparse Merkle tree\n        for (uint height = 0; height < DEPOSIT_CONTRACT_TREE_DEPTH - 1; height++)\n            zero_hashes[height + 1] = sha256(abi.encodePacked(zero_hashes[height], zero_hashes[height]));\n    }\n\n    function get_deposit_root() override external view returns (bytes32) {\n        bytes32 node;\n        uint size = deposit_count;\n        for (uint height = 0; height < DEPOSIT_CONTRACT_TREE_DEPTH; height++) {\n            if ((size & 1) == 1)\n                node = sha256(abi.encodePacked(branch[height], node));\n            else\n                node = sha256(abi.encodePacked(node, zero_hashes[height]));\n            size /= 2;\n        }\n        return sha256(abi.encodePacked(\n                node,\n                to_little_endian_64(uint64(deposit_count)),\n                bytes24(0)\n            ));\n    }\n\n    function get_deposit_count() override external view returns (bytes memory) {\n        return to_little_endian_64(uint64(deposit_count));\n    }\n\n    function deposit(\n        bytes calldata pubkey,\n        bytes calldata withdrawal_credentials,\n        bytes calldata signature,\n        bytes32 deposit_data_root\n    ) override external payable {\n        // Extended ABI length checks since dynamic types are used.\n        require(pubkey.length == 48, \"DepositContract: invalid pubkey length\");\n        require(withdrawal_credentials.length == 32, \"DepositContract: invalid withdrawal_credentials length\");\n        require(signature.length == 96, \"DepositContract: invalid signature length\");\n\n        // Check deposit amount\n        require(msg.value >= 1 ether, \"DepositContract: deposit value too low\");\n        require(msg.value % 1 gwei == 0, \"DepositContract: deposit value not multiple of gwei\");\n        uint deposit_amount = msg.value / 1 gwei;\n        require(deposit_amount <= type(uint64).max, \"DepositContract: deposit value too high\");\n\n        // Emit `DepositEvent` log\n        bytes memory amount = to_little_endian_64(uint64(deposit_amount));\n        emit DepositEvent(\n            pubkey,\n            withdrawal_credentials,\n            amount,\n            signature,\n            to_little_endian_64(uint64(deposit_count))\n        );\n\n        // Compute deposit data root (`DepositData` hash tree root)\n        bytes32 pubkey_root = sha256(abi.encodePacked(pubkey, bytes16(0)));\n        bytes32 signature_root = sha256(abi.encodePacked(\n                sha256(abi.encodePacked(signature[:64])),\n                sha256(abi.encodePacked(signature[64:], bytes32(0)))\n            ));\n        bytes32 node = sha256(abi.encodePacked(\n                sha256(abi.encodePacked(pubkey_root, withdrawal_credentials)),\n                sha256(abi.encodePacked(amount, bytes24(0), signature_root))\n            ));\n\n        // Verify computed and expected deposit data roots match\n        require(node == deposit_data_root, \"DepositContract: reconstructed DepositData does not match supplied deposit_data_root\");\n\n        // Avoid overflowing the Merkle tree (and prevent edge case in computing `branch`)\n        require(deposit_count < MAX_DEPOSIT_COUNT, \"DepositContract: merkle tree full\");\n\n        // Add deposit data root to Merkle tree (update a single `branch` node)\n        deposit_count += 1;\n        uint size = deposit_count;\n        for (uint height = 0; height < DEPOSIT_CONTRACT_TREE_DEPTH; height++) {\n            if ((size & 1) == 1) {\n                branch[height] = node;\n                return;\n            }\n            node = sha256(abi.encodePacked(branch[height], node));\n            size /= 2;\n        }\n        // As the loop should always end prematurely with the `return` statement,\n        // this code should be unreachable. We assert `false` just to be safe.\n        assert(false);\n    }\n\n    function supportsInterface(bytes4 interfaceId) override external pure returns (bool) {\n        return interfaceId == type(ERC165).interfaceId || interfaceId == type(IDepositContract).interfaceId;\n    }\n\n    function to_little_endian_64(uint64 value) internal pure returns (bytes memory ret) {\n        ret = new bytes(8);\n        bytes8 bytesValue = bytes8(value);\n        // Byteswapping during copying to bytes.\n        ret[0] = bytesValue[7];\n        ret[1] = bytesValue[6];\n        ret[2] = bytesValue[5];\n        ret[3] = bytesValue[4];\n        ret[4] = bytesValue[3];\n        ret[5] = bytesValue[2];\n        ret[6] = bytesValue[1];\n        ret[7] = bytesValue[0];\n    }\n}",
  "sourcePath": "contracts/DepositContract.sol",
  "abi": [
    {
      "inputs": [],
      "stateMutability": "nonpayable",
      "type": "constructor"
    },
    {
      "anonymous": false,
      "inputs": [
        {
          "indexed": false,
          "internalType": "bytes",
          "name": "pubkey",
          "type": "bytes"
        },
        {
          "indexed": false,
          "internalType": "bytes",
          "name": "withdrawal_credentials",
          "type": "bytes"
        },
        {
          "indexed": false,
          "internalType": "bytes",
          "name": "amount",
          "type": "bytes"
        },
        {
          "indexed": false,
          "internalType": "bytes",
          "name": "signature",
          "type": "bytes"
        },
        {
          "indexed": false,
          "internalType": "bytes",
          "name": "index",
          "type": "bytes"
        }
      ],
      "name": "DepositEvent",
      "type": "event"
    },
    {
      "inputs": [
        {
          "internalType": "bytes",
          "name": "pubkey",
          "type": "bytes"
        },
        {
          "internalType": "bytes",
          "name": "withdrawal_credentials",
          "type": "bytes"
        },
        {
          "internalType": "bytes",
          "name": "signature",
          "type": "bytes"
        },
        {
          "internalType": "bytes32",
          "name": "deposit_data_root",
          "type": "bytes32"
        }
      ],
      "name": "deposit",
      "outputs": [],
      "stateMutability": "payable",
      "type": "function"
    },
    {
      "inputs": [],
      "name": "get_deposit_count",
      "outputs": [
        {
          "internalType": "bytes",
          "name": "",
          "type": "bytes"
        }
      ],
      "stateMutability": "view",
      "type": "function"
    },
    {
      "inputs": [],
      "name": "get_deposit_root",
      "outputs": [
        {
          "internalType": "bytes32",
          "name": "",
          "type": "bytes32"
        }
      ],
      "stateMutability": "view",
      "type": "function"
    },
    {
      "inputs": [
        {
          "internalType": "bytes4",
          "name": "interfaceId",
          "type": "bytes4"
        }
      ],
      "name": "supportsInterface",
      "outputs": [
        {
          "internalType": "bool",
          "name": "",
          "type": "bool"
        }
      ],
      "stateMutability": "pure",
      "type": "function"
    }
  ],
  "bytecode": "0x608060405234801561001057600080fd5b5060008090505b60016020038110156101265760026021826020811061003257fe5b01546021836020811061004157fe5b015460405160200180838152602001828152602001925050506040516020818303038152906040526040518082805190602001908083835b6020831061009c5780518252602082019150602081019050602083039250610079565b6001836020036101000a038019825116818451168082178552505050505050905001915050602060405180830381855afa1580156100de573d6000803e3d6000fd5b5050506040513d60208110156100f357600080fd5b81019080805190602001909291905050506021600183016020811061011457fe5b01819055508080600101915050610017565b506117bd80620001376000396000f3fe60806040526004361061003f5760003560e01c806301ffc9a71461004457806322895118146100b6578063621fd130146101e3578063c5f2892f14610273575b600080fd5b34801561005057600080fd5b5061009c6004803603602081101561006757600080fd5b8101908080357bffffffffffffffffffffffffffffffffffffffffffffffffffffffff1916906020019092919050505061029e565b604051808215151515815260200191505060405180910390f35b6101e1600480360360808110156100cc57600080fd5b81019080803590602001906401000000008111156100e957600080fd5b8201836020820111156100fb57600080fd5b8035906020019184600183028401116401000000008311171561011d57600080fd5b90919293919293908035906020019064010000000081111561013e57600080fd5b82018360208201111561015057600080fd5b8035906020019184600183028401116401000000008311171561017257600080fd5b90919293919293908035906020019064010000000081111561019357600080fd5b8201836020820111156101a557600080fd5b803590602001918460018302840111640100000000831117156101c757600080fd5b909192939192939080359060200190929190505050610370565b005b3480156101ef57600080fd5b506101f8610fd0565b6040518080602001828103825283818151815260200191508051906020019080838360005b8381101561023857808201518184015260208101905061021d565b50505050905090810190601f1680156102655780820380516001836020036101000a031916815260200191505b509250505060405180910390f35b34801561027f57600080fd5b50610288610fe2565b6040518082815260200191505060405180910390f35b60007f01ffc9a7000000000000000000000000000000000000000000000000000000007bffffffffffffffffffffffffffffffffffffffffffffffffffffffff1916827bffffffffffffffffffffffffffffffffffffffffffffffffffffffff1916148061036957507f85640907000000000000000000000000000000000000000000000000000000007bffffffffffffffffffffffffffffffffffffffffffffffffffffffff1916827bffffffffffffffffffffffffffffffffffffffffffffffffffffffff1916145b9050919050565b603087879050146103cc576040517f08c379a00000000000000000000000000000000000000000000000000000000081526004018080602001828103825260268152602001806116ec6026913960400191505060405180910390fd5b60208585905014610428576040517f08c379a00000000000000000000000000000000000000000000000000000000081526004018080602001828103825260368152602001806116836036913960400191505060405180910390fd5b60608383905014610484576040517f08c379a000000000000000000000000000000000000000000000000000000000815260040180806020018281038252602981526020018061175f6029913960400191505060405180910390fd5b670de0b6b3a76400003410156104e5576040517f08c379a00000000000000000000000000000000000000000000000000000000081526004018080602001828103825260268152602001806117396026913960400191505060405180910390fd5b6000633b9aca0034816104f457fe5b061461054b576040517f08c379a00000000000000000000000000000000000000000000000000000000081526004018080602001828103825260338152602001806116b96033913960400191505060405180910390fd5b6000633b9aca00348161055a57fe5b04905067ffffffffffffffff80168111156105c0576040517f08c379a00000000000000000000000000000000000000000000000000000000081526004018080602001828103825260278152602001806117126027913960400191505060405180910390fd5b60606105cb82611314565b90507f649bbc62d0e31342afea4e5cd82d4049e7e1ee912fc0889aa790803be39038c589898989858a8a610600602054611314565b60405180806020018060200180602001806020018060200186810386528e8e82818152602001925080828437600081840152601f19601f82011690508083019250505086810385528c8c82818152602001925080828437600081840152601f19601f82011690508083019250505086810384528a818151815260200191508051906020019080838360005b838110156106a657808201518184015260208101905061068b565b50505050905090810190601f1680156106d35780820380516001836020036101000a031916815260200191505b508681038352898982818152602001925080828437600081840152601f19601f820116905080830192505050868103825287818151815260200191508051906020019080838360005b8381101561073757808201518184015260208101905061071c565b50505050905090810190601f1680156107645780820380516001836020036101000a031916815260200191505b509d505050505050505050505050505060405180910390a1600060028a8a600060801b6040516020018084848082843780830192505050826fffffffffffffffffffffffffffffffff19166fffffffffffffffffffffffffffffffff1916815260100193505050506040516020818303038152906040526040518082805190602001908083835b6020831061080e57805182526020820191506020810190506020830392506107eb565b6001836020036101000a038019825116818451168082178552505050505050905001915050602060405180830381855afa158015610850573d6000803e3d6000fd5b5050506040513d602081101561086557600080fd5b8101908080519060200190929190505050905060006002808888600090604092610891939291906115da565b6040516020018083838082843780830192505050925050506040516020818303038152906040526040518082805190602001908083835b602083106108eb57805182526020820191506020810190506020830392506108c8565b6001836020036101000a038019825116818451168082178552505050505050905001915050602060405180830381855afa15801561092d573d6000803e3d6000fd5b5050506040513d602081101561094257600080fd5b8101908080519060200190929190505050600289896040908092610968939291906115da565b6000801b604051602001808484808284378083019250505082815260200193505050506040516020818303038152906040526040518082805190602001908083835b602083106109cd57805182526020820191506020810190506020830392506109aa565b6001836020036101000a038019825116818451168082178552505050505050905001915050602060405180830381855afa158015610a0f573d6000803e3d6000fd5b5050506040513d6020811015610a2457600080fd5b810190808051906020019092919050505060405160200180838152602001828152602001925050506040516020818303038152906040526040518082805190602001908083835b60208310610a8e5780518252602082019150602081019050602083039250610a6b565b6001836020036101000a038019825116818451168082178552505050505050905001915050602060405180830381855afa158015610ad0573d6000803e3d6000fd5b5050506040513d6020811015610ae557600080fd5b810190808051906020019092919050505090506000600280848c8c604051602001808481526020018383808284378083019250505093505050506040516020818303038152906040526040518082805190602001908083835b60208310610b615780518252602082019150602081019050602083039250610b3e565b6001836020036101000a038019825116818451168082178552505050505050905001915050602060405180830381855afa158015610ba3573d6000803e3d6000fd5b5050506040513d6020811015610bb857600080fd5b8101908080519060200190929190505050600286600060401b866040516020018084805190602001908083835b60208310610c085780518252602082019150602081019050602083039250610be5565b6001836020036101000a0380198251168184511680821785525050505050509050018367ffffffffffffffff191667ffffffffffffffff1916815260180182815260200193505050506040516020818303038152906040526040518082805190602001908083835b60208310610c935780518252602082019150602081019050602083039250610c70565b6001836020036101000a038019825116818451168082178552505050505050905001915050602060405180830381855afa158015610cd5573d6000803e3d6000fd5b5050506040513d6020811015610cea57600080fd5b810190808051906020019092919050505060405160200180838152602001828152602001925050506040516020818303038152906040526040518082805190602001908083835b60208310610d545780518252602082019150602081019050602083039250610d31565b6001836020036101000a038019825116818451168082178552505050505050905001915050602060405180830381855afa158015610d96573d6000803e3d6000fd5b5050506040513d6020811015610dab57600080fd5b81019080805190602001909291905050509050858114610e16576040517f08c379a000000000000000000000000000000000000000000000000000000000815260040180806020018281038252605481526020018061162f6054913960600191505060405180910390fd5b6001602060020a0360205410610e77576040517f08c379a000000000000000000000000000000000000000000000000000000000815260040180806020018281038252602181526020018061160e6021913960400191505060405180910390fd5b60016020600082825401925050819055506000602054905060008090505b6020811015610fb75760018083161415610ec8578260008260208110610eb757fe5b018190555050505050505050610fc7565b600260008260208110610ed757fe5b01548460405160200180838152602001828152602001925050506040516020818303038152906040526040518082805190602001908083835b60208310610f335780518252602082019150602081019050602083039250610f10565b6001836020036101000a038019825116818451168082178552505050505050905001915050602060405180830381855afa158015610f75573d6000803e3d6000fd5b5050506040513d6020811015610f8a57600080fd5b8101908080519060200190929190505050925060028281610fa757fe5b0491508080600101915050610e95565b506000610fc057fe5b5050505050505b50505050505050565b6060610fdd602054611314565b905090565b6000806000602054905060008090505b60208110156111d057600180831614156110e05760026000826020811061101557fe5b01548460405160200180838152602001828152602001925050506040516020818303038152906040526040518082805190602001908083835b60208310611071578051825260208201915060208101905060208303925061104e565b6001836020036101000a038019825116818451168082178552505050505050905001915050602060405180830381855afa1580156110b3573d6000803e3d6000fd5b5050506040513d60208110156110c857600080fd5b810190808051906020019092919050505092506111b6565b600283602183602081106110f057fe5b015460405160200180838152602001828152602001925050506040516020818303038152906040526040518082805190602001908083835b6020831061114b5780518252602082019150602081019050602083039250611128565b6001836020036101000a038019825116818451168082178552505050505050905001915050602060405180830381855afa15801561118d573d6000803e3d6000fd5b5050506040513d60208110156111a257600080fd5b810190808051906020019092919050505092505b600282816111c057fe5b0491508080600101915050610ff2565b506002826111df602054611314565b600060401b6040516020018084815260200183805190602001908083835b6020831061122057805182526020820191506020810190506020830392506111fd565b6001836020036101000a0380198251168184511680821785525050505050509050018267ffffffffffffffff191667ffffffffffffffff1916815260180193505050506040516020818303038152906040526040518082805190602001908083835b602083106112a55780518252602082019150602081019050602083039250611282565b6001836020036101000a038019825116818451168082178552505050505050905001915050602060405180830381855afa1580156112e7573d6000803e3d6000fd5b5050506040513d60208110156112fc57600080fd5b81019080805190602001909291905050509250505090565b6060600867ffffffffffffffff8111801561132e57600080fd5b506040519080825280601f01601f1916602001820160405280156113615781602001600182028036833780820191505090505b50905060008260c01b90508060076008811061137957fe5b1a60f81b8260008151811061138a57fe5b60200101907effffffffffffffffffffffffffffffffffffffffffffffffffffffffffffff1916908160001a905350806006600881106113c657fe5b1a60f81b826001815181106113d757fe5b60200101907effffffffffffffffffffffffffffffffffffffffffffffffffffffffffffff1916908160001a9053508060056008811061141357fe5b1a60f81b8260028151811061142457fe5b60200101907effffffffffffffffffffffffffffffffffffffffffffffffffffffffffffff1916908160001a9053508060046008811061146057fe5b1a60f81b8260038151811061147157fe5b60200101907effffffffffffffffffffffffffffffffffffffffffffffffffffffffffffff1916908160001a905350806003600881106114ad57fe5b1a60f81b826004815181106114be57fe5b60200101907effffffffffffffffffffffffffffffffffffffffffffffffffffffffffffff1916908160001a905350806002600881106114fa57fe5b1a60f81b8260058151811061150b57fe5b60200101907effffffffffffffffffffffffffffffffffffffffffffffffffffffffffffff1916908160001a9053508060016008811061154757fe5b1a60f81b8260068151811061155857fe5b60200101907effffffffffffffffffffffffffffffffffffffffffffffffffffffffffffff1916908160001a9053508060006008811061159457fe5b1a60f81b826007815181106115a557fe5b60200101907effffffffffffffffffffffffffffffffffffffffffffffffffffffffffffff1916908160001a90535050919050565b600080858511156115ea57600080fd5b838611156115f757600080fd5b600185028301915084860390509450949250505056fe4465706f736974436f6e74726163743a206d65726b6c6520747265652066756c6c4465706f736974436f6e74726163743a207265636f6e7374727563746564204465706f7369744461746120646f6573206e6f74206d6174636820737570706c696564206465706f7369745f646174615f726f6f744465706f736974436f6e74726163743a20696e76616c6964207769746864726177616c5f63726564656e7469616c73206c656e6774684465706f736974436f6e74726163743a206465706f7369742076616c7565206e6f74206d756c7469706c65206f6620677765694465706f736974436f6e74726163743a20696e76616c6964207075626b6579206c656e6774684465706f736974436f6e74726163743a206465706f7369742076616c756520746f6f20686967684465706f736974436f6e74726163743a206465706f7369742076616c756520746f6f206c6f774465706f736974436f6e74726163743a20696e76616c6964207369676e6174757265206c656e677468a2646970667358221220f3bcefe32d3fffbfcc3775d016ff7a2af398faadf39c336b14ccae0f75e2d78064736f6c634300060b0033",
  "compiler": {
    "name": "solc",
    "version": "0.6.11+commit.5ef660b1.Emscripten.clang",
    "optimizer": {
      "enabled": false,
      "runs": 200
    },
    "evmVersion": "petersburg"
  }
}