{
  "fileName": "MintDrop.sol",
  "contractName": "MintDrop",
  "source": "//  =====================================================================================\n//\n//   ___ __ __    ________  ___   __   _________   ______  ______   ______  ______\n//  /__//_//_/\\  /_______/\\/__/\\ /__/\\/________/\\ /_____/\\/_____/\\ /_____/\\/_____/\\\n//  \\::\\| \\| \\ \\ \\__.::._\\/\\::\\_\\\\  \\ \\__.::.__\\/ \\:::_ \\ \\:::_ \\ \\\\:::_ \\ \\:::_ \\ \\\n//   \\:.      \\ \\   \\::\\ \\  \\:. `-\\  \\ \\ \\::\\ \\    \\:\\ \\ \\ \\:(_) ) )\\:\\ \\ \\ \\:(_) \\ \\\n//    \\:.\\-/\\  \\ \\  _\\::\\ \\__\\:. _    \\ \\ \\::\\ \\    \\:\\ \\ \\ \\: __ `\\ \\:\\ \\ \\ \\: ___\\/\n//     \\. \\  \\  \\ \\/__\\::\\__/\\\\. \\`-\\  \\ \\ \\::\\ \\    \\:\\/.:| \\ \\ `\\ \\ \\:\\_\\ \\ \\ \\ \\\n//      \\__\\/ \\__\\/\\________\\/ \\__\\/ \\__\\/  \\__\\/     \\____/_/\\_\\/ \\_\\/\\_____\\/\\_\\/\n//\n//  =====================================================================================\n\n// SPDX-License-Identifier: MIT\n\npragma solidity 0.6.11;\n\nimport \"@openzeppelin/contracts/math/Math.sol\";\nimport \"@openzeppelin/contracts/math/SafeMath.sol\";\nimport \"@openzeppelin/contracts/token/ERC20/IERC20.sol\";\nimport \"@openzeppelin/contracts/access/Ownable.sol\";\n\nimport \"./DepositContract.sol\";\nimport \"./interfaces/IVETH.sol\";\n\ncontract MintDrop is Ownable {\n    using SafeMath for uint;\n\n    /* ========== CONSTANTS ========== */\n\n    uint constant public BONUS_DURATION = 32 days;\n    uint constant public MAX_CLAIM_DURATION = 8 days;\n    uint constant public TOTAL_BNC_REWARDS = 100000 ether;\n\n    /* ========== STATE VARIABLES ========== */\n\n    // address of vETH\n    address public immutable vETHAddress;\n    // address of Ethereum 2.0 Deposit Contract\n    address public immutable depositAddress;\n    // a timestamp when the bonus activity initialized\n    uint public immutable bonusStartAt;\n    // a flag to control whether the withdraw function is locked\n    bool public withdrawLocked;\n    // total amount of ETH deposited to Ethereum 2.0 Deposit Contract\n    uint public totalLocked;\n    // total amount of ETH deposited in this contract\n    uint public totalDeposit;\n    // total claimed amount of BNC rewards\n    uint public claimedRewards;\n    // user address => amount of ETH deposited by this user in this contract\n    mapping(address => uint) public myDeposit;\n    // user address => amount of BNC rewards that will rewarded to this user\n    mapping(address => uint) public myRewards;\n    // user address => a timestamp that this user claimed rewards\n    mapping(address => uint) public myLastClaimedAt;\n    // user address => the address of this user which in ss58 format on Bifrost Network\n    mapping(address => string) public bifrostAddress;\n\n    /* ========== EVENTS ========== */\n\n    event Deposit(address indexed sender, uint amount);\n    event Withdrawal(address indexed sender, uint amount);\n    event Claimed(address indexed sender, uint amount, uint claimed);\n    event NewValidator(bytes little_endian_deposit_count);\n    event BindAddress(address indexed sender, string bifrostAddress);\n\n    /* ========== CONSTRUCTOR ========== */\n\n    constructor(address vETHAddress_, address depositAddress_, uint bonusStartAt_) public Ownable() {\n        vETHAddress = vETHAddress_;\n        depositAddress = depositAddress_;\n        bonusStartAt = bonusStartAt_;\n    }\n\n    /* ========== MUTATIVE FUNCTIONS ========== */\n\n    function deposit() external payable {\n        claimRewards();\n        myDeposit[msg.sender] = myDeposit[msg.sender].add(msg.value);\n        totalDeposit = totalDeposit.add(msg.value);\n        // mint vETH, MintDrop should have ownership of vETH contract\n        IVETH(vETHAddress).mint(msg.sender, msg.value);\n        emit Deposit(msg.sender, msg.value);\n    }\n\n    function withdraw(uint amount) external isWithdrawNotLocked {\n        claimRewards();\n        myDeposit[msg.sender] = myDeposit[msg.sender].sub(amount);\n        totalDeposit = totalDeposit.sub(amount);\n        // burn vETH, MintDrop should have ownership of vETH contract\n        IVETH(vETHAddress).burn(msg.sender, amount);\n        msg.sender.transfer(amount);\n        emit Withdrawal(msg.sender, amount);\n    }\n\n    function claimRewards() public {\n        // claim must start from bonusStartAt\n        if (now < bonusStartAt) {\n            if (myLastClaimedAt[msg.sender] < bonusStartAt) {\n                myLastClaimedAt[msg.sender] = bonusStartAt;\n            }\n            return;\n        }\n        if (myLastClaimedAt[msg.sender] >= bonusStartAt) {\n            uint rewards = getIncrementalRewards(msg.sender);\n            myRewards[msg.sender] = myRewards[msg.sender].add(rewards);\n            claimedRewards = claimedRewards.add(rewards);\n            emit Claimed(msg.sender, myRewards[msg.sender], claimedRewards);\n        }\n        myLastClaimedAt[msg.sender] = now > bonusStartAt.add(BONUS_DURATION)\n            ? bonusStartAt.add(BONUS_DURATION)\n            : now;\n    }\n\n    function lockForValidator(\n        bytes calldata pubkey,\n        bytes calldata withdrawal_credentials,\n        bytes calldata signature,\n        bytes32 deposit_data_root\n    ) external onlyOwner isWithdrawLocked {\n        uint amount = 32 ether;\n        require(address(this).balance >= amount, \"insufficient balance\");\n        totalLocked = totalLocked.add(amount);\n        IDepositContract(depositAddress).deposit{value: amount}(\n            pubkey,\n            withdrawal_credentials,\n            signature,\n            deposit_data_root\n        );\n        emit NewValidator(IDepositContract(depositAddress).get_deposit_count());\n    }\n\n    function bindBifrostAddress(string memory bifrostAddress_) external {\n        bifrostAddress[msg.sender] = bifrostAddress_;\n        emit BindAddress(msg.sender, bifrostAddress_);\n    }\n\n    function lockWithdraw() external onlyOwner isWithdrawNotLocked {\n        withdrawLocked = true;\n        // enable vETH transfer, MintDrop should have ownership of vETH contract\n        if (IVETH(vETHAddress).paused()) {\n            IVETH(vETHAddress).unpause();\n        }\n    }\n\n    function unlockWithdraw() external onlyOwner isWithdrawLocked {\n        withdrawLocked = false;\n    }\n\n    /* ========== VIEWS ========== */\n\n    function getTotalRewards() public view returns (uint) {\n        if (now < bonusStartAt) {\n            return 0;\n        }\n        uint duration = now.sub(bonusStartAt);\n        if (duration > BONUS_DURATION) {\n            return TOTAL_BNC_REWARDS;\n        }\n        return TOTAL_BNC_REWARDS.mul(duration).div(BONUS_DURATION);\n    }\n\n    function getIncrementalRewards(address target) public view returns (uint) {\n        uint totalRewards = getTotalRewards();\n        if (\n            myLastClaimedAt[target] < bonusStartAt ||\n            totalDeposit == 0 ||\n            totalRewards == 0\n        ) {\n            return 0;\n        }\n        uint remainingRewards = totalRewards.sub(claimedRewards);\n        uint myDuration = now > bonusStartAt.add(BONUS_DURATION)\n            ? bonusStartAt.add(BONUS_DURATION).sub(myLastClaimedAt[target])\n            : now.sub(myLastClaimedAt[target]);\n        if (myDuration > MAX_CLAIM_DURATION) {\n            myDuration = MAX_CLAIM_DURATION;\n        }\n        uint rewards = remainingRewards\n            .mul(myDeposit[target])\n            .div(totalDeposit)\n            .mul(myDuration)\n            .div(MAX_CLAIM_DURATION);\n        return rewards;\n    }\n\n    function getRewards(address target) external view returns (uint) {\n        return myRewards[target].add(getIncrementalRewards(target));\n    }\n\n    modifier isWithdrawLocked() {\n        require(withdrawLocked, \"withdrawal not locked\");\n        _;\n    }\n\n    modifier isWithdrawNotLocked() {\n        require(!withdrawLocked, \"withdrawal locked\");\n        _;\n    }\n}\n",
  "sourcePath": "contracts/MintDrop.sol",
  "abi": [
    {
      "inputs": [
        {
          "internalType": "address",
          "name": "vETHAddress_",
          "type": "address"
        },
        {
          "internalType": "address",
          "name": "depositAddress_",
          "type": "address"
        },
        {
          "internalType": "uint256",
          "name": "bonusStartAt_",
          "type": "uint256"
        }
      ],
      "stateMutability": "nonpayable",
      "type": "constructor"
    },
    {
      "anonymous": false,
      "inputs": [
        {
          "indexed": true,
          "internalType": "address",
          "name": "sender",
          "type": "address"
        },
        {
          "indexed": false,
          "internalType": "string",
          "name": "bifrostAddress",
          "type": "string"
        }
      ],
      "name": "BindAddress",
      "type": "event"
    },
    {
      "anonymous": false,
      "inputs": [
        {
          "indexed": true,
          "internalType": "address",
          "name": "sender",
          "type": "address"
        },
        {
          "indexed": false,
          "internalType": "uint256",
          "name": "amount",
          "type": "uint256"
        },
        {
          "indexed": false,
          "internalType": "uint256",
          "name": "claimed",
          "type": "uint256"
        }
      ],
      "name": "Claimed",
      "type": "event"
    },
    {
      "anonymous": false,
      "inputs": [
        {
          "indexed": true,
          "internalType": "address",
          "name": "sender",
          "type": "address"
        },
        {
          "indexed": false,
          "internalType": "uint256",
          "name": "amount",
          "type": "uint256"
        }
      ],
      "name": "Deposit",
      "type": "event"
    },
    {
      "anonymous": false,
      "inputs": [
        {
          "indexed": false,
          "internalType": "bytes",
          "name": "little_endian_deposit_count",
          "type": "bytes"
        }
      ],
      "name": "NewValidator",
      "type": "event"
    },
    {
      "anonymous": false,
      "inputs": [
        {
          "indexed": true,
          "internalType": "address",
          "name": "previousOwner",
          "type": "address"
        },
        {
          "indexed": true,
          "internalType": "address",
          "name": "newOwner",
          "type": "address"
        }
      ],
      "name": "OwnershipTransferred",
      "type": "event"
    },
    {
      "anonymous": false,
      "inputs": [
        {
          "indexed": true,
          "internalType": "address",
          "name": "sender",
          "type": "address"
        },
        {
          "indexed": false,
          "internalType": "uint256",
          "name": "amount",
          "type": "uint256"
        }
      ],
      "name": "Withdrawal",
      "type": "event"
    },
    {
      "inputs": [],
      "name": "BONUS_DURATION",
      "outputs": [
        {
          "internalType": "uint256",
          "name": "",
          "type": "uint256"
        }
      ],
      "stateMutability": "view",
      "type": "function"
    },
    {
      "inputs": [],
      "name": "MAX_CLAIM_DURATION",
      "outputs": [
        {
          "internalType": "uint256",
          "name": "",
          "type": "uint256"
        }
      ],
      "stateMutability": "view",
      "type": "function"
    },
    {
      "inputs": [],
      "name": "TOTAL_BNC_REWARDS",
      "outputs": [
        {
          "internalType": "uint256",
          "name": "",
          "type": "uint256"
        }
      ],
      "stateMutability": "view",
      "type": "function"
    },
    {
      "inputs": [
        {
          "internalType": "address",
          "name": "",
          "type": "address"
        }
      ],
      "name": "bifrostAddress",
      "outputs": [
        {
          "internalType": "string",
          "name": "",
          "type": "string"
        }
      ],
      "stateMutability": "view",
      "type": "function"
    },
    {
      "inputs": [
        {
          "internalType": "string",
          "name": "bifrostAddress_",
          "type": "string"
        }
      ],
      "name": "bindBifrostAddress",
      "outputs": [],
      "stateMutability": "nonpayable",
      "type": "function"
    },
    {
      "inputs": [],
      "name": "bonusStartAt",
      "outputs": [
        {
          "internalType": "uint256",
          "name": "",
          "type": "uint256"
        }
      ],
      "stateMutability": "view",
      "type": "function"
    },
    {
      "inputs": [],
      "name": "claimRewards",
      "outputs": [],
      "stateMutability": "nonpayable",
      "type": "function"
    },
    {
      "inputs": [],
      "name": "claimedRewards",
      "outputs": [
        {
          "internalType": "uint256",
          "name": "",
          "type": "uint256"
        }
      ],
      "stateMutability": "view",
      "type": "function"
    },
    {
      "inputs": [],
      "name": "deposit",
      "outputs": [],
      "stateMutability": "payable",
      "type": "function"
    },
    {
      "inputs": [],
      "name": "depositAddress",
      "outputs": [
        {
          "internalType": "address",
          "name": "",
          "type": "address"
        }
      ],
      "stateMutability": "view",
      "type": "function"
    },
    {
      "inputs": [
        {
          "internalType": "address",
          "name": "target",
          "type": "address"
        }
      ],
      "name": "getIncrementalRewards",
      "outputs": [
        {
          "internalType": "uint256",
          "name": "",
          "type": "uint256"
        }
      ],
      "stateMutability": "view",
      "type": "function"
    },
    {
      "inputs": [
        {
          "internalType": "address",
          "name": "target",
          "type": "address"
        }
      ],
      "name": "getRewards",
      "outputs": [
        {
          "internalType": "uint256",
          "name": "",
          "type": "uint256"
        }
      ],
      "stateMutability": "view",
      "type": "function"
    },
    {
      "inputs": [],
      "name": "getTotalRewards",
      "outputs": [
        {
          "internalType": "uint256",
          "name": "",
          "type": "uint256"
        }
      ],
      "stateMutability": "view",
      "type": "function"
    },
    {
      "inputs": [
        {
          "internalType": "bytes",
          "name": "pubkey",
          "type": "bytes"
        },
        {
          "internalType": "bytes",
          "name": "withdrawal_credentials",
          "type": "bytes"
        },
        {
          "internalType": "bytes",
          "name": "signature",
          "type": "bytes"
        },
        {
          "internalType": "bytes32",
          "name": "deposit_data_root",
          "type": "bytes32"
        }
      ],
      "name": "lockForValidator",
      "outputs": [],
      "stateMutability": "nonpayable",
      "type": "function"
    },
    {
      "inputs": [],
      "name": "lockWithdraw",
      "outputs": [],
      "stateMutability": "nonpayable",
      "type": "function"
    },
    {
      "inputs": [
        {
          "internalType": "address",
          "name": "",
          "type": "address"
        }
      ],
      "name": "myDeposit",
      "outputs": [
        {
          "internalType": "uint256",
          "name": "",
          "type": "uint256"
        }
      ],
      "stateMutability": "view",
      "type": "function"
    },
    {
      "inputs": [
        {
          "internalType": "address",
          "name": "",
          "type": "address"
        }
      ],
      "name": "myLastClaimedAt",
      "outputs": [
        {
          "internalType": "uint256",
          "name": "",
          "type": "uint256"
        }
      ],
      "stateMutability": "view",
      "type": "function"
    },
    {
      "inputs": [
        {
          "internalType": "address",
          "name": "",
          "type": "address"
        }
      ],
      "name": "myRewards",
      "outputs": [
        {
          "internalType": "uint256",
          "name": "",
          "type": "uint256"
        }
      ],
      "stateMutability": "view",
      "type": "function"
    },
    {
      "inputs": [],
      "name": "owner",
      "outputs": [
        {
          "internalType": "address",
          "name": "",
          "type": "address"
        }
      ],
      "stateMutability": "view",
      "type": "function"
    },
    {
      "inputs": [],
      "name": "renounceOwnership",
      "outputs": [],
      "stateMutability": "nonpayable",
      "type": "function"
    },
    {
      "inputs": [],
      "name": "totalDeposit",
      "outputs": [
        {
          "internalType": "uint256",
          "name": "",
          "type": "uint256"
        }
      ],
      "stateMutability": "view",
      "type": "function"
    },
    {
      "inputs": [],
      "name": "totalLocked",
      "outputs": [
        {
          "internalType": "uint256",
          "name": "",
          "type": "uint256"
        }
      ],
      "stateMutability": "view",
      "type": "function"
    },
    {
      "inputs": [
        {
          "internalType": "address",
          "name": "newOwner",
          "type": "address"
        }
      ],
      "name": "transferOwnership",
      "outputs": [],
      "stateMutability": "nonpayable",
      "type": "function"
    },
    {
      "inputs": [],
      "name": "unlockWithdraw",
      "outputs": [],
      "stateMutability": "nonpayable",
      "type": "function"
    },
    {
      "inputs": [],
      "name": "vETHAddress",
      "outputs": [
        {
          "internalType": "address",
          "name": "",
          "type": "address"
        }
      ],
      "stateMutability": "view",
      "type": "function"
    },
    {
      "inputs": [
        {
          "internalType": "uint256",
          "name": "amount",
          "type": "uint256"
        }
      ],
      "name": "withdraw",
      "outputs": [],
      "stateMutability": "nonpayable",
      "type": "function"
    },
    {
      "inputs": [],
      "name": "withdrawLocked",
      "outputs": [
        {
          "internalType": "bool",
          "name": "",
          "type": "bool"
        }
      ],
      "stateMutability": "view",
      "type": "function"
    }
  ],
  "bytecode": "0x60e060405234801561001057600080fd5b5060405162002b4c38038062002b4c8339818101604052606081101561003557600080fd5b81019080805190602001909291908051906020019092919080519060200190929190505050600061006a61018660201b60201c565b9050806000806101000a81548173ffffffffffffffffffffffffffffffffffffffff021916908373ffffffffffffffffffffffffffffffffffffffff1602179055508073ffffffffffffffffffffffffffffffffffffffff16600073ffffffffffffffffffffffffffffffffffffffff167f8be0079c531659141344cd1fd0a4f28419497f9722a3daafe3b4186f6b6457e060405160405180910390a3508273ffffffffffffffffffffffffffffffffffffffff1660808173ffffffffffffffffffffffffffffffffffffffff1660601b815250508173ffffffffffffffffffffffffffffffffffffffff1660a08173ffffffffffffffffffffffffffffffffffffffff1660601b815250508060c0818152505050505061018e565b600033905090565b60805160601c60a05160601c60c0516129366200021660003980610d6a5280610d925280610df95280610e635280611026528061106852806110eb5280611196528061126c5280611c8852806121db5280612211525080610a045280611ead5280611ff6525080610b63528061181e52806118c45280611b6652806124bb52506129366000f3fe60806040526004361061019c5760003560e01c80639472ee57116100ec578063d5a2313a1161008a578063f2fde38b11610064578063f2fde38b146108e6578063f6153ccd14610937578063fb94220614610962578063fe62dfea146109b95761019c565b8063d5a2313a14610756578063e627f2db14610890578063e653d5ad146108bb5761019c565b8063b31dbd34116100c6578063b31dbd34146106db578063d0e30db0146106f2578063d135cc4b146106fc578063d2a98fe71461072b5761019c565b80639472ee57146105d1578063a013ad5414610699578063a425632f146106c45761019c565b806350b9e74111610159578063797d8aeb11610133578063797d8aeb1461044b57806379ee54f7146104b05780638da5cb5b146105155780639200b04c1461056c5761019c565b806350b9e741146103a45780635689141214610409578063715018a6146104345761019c565b806320b9588c146101a157806322e9c08d1461020657806328f833b7146102315780632e1a7d4d146102885780633104d750146102c3578063372500ab1461038d575b600080fd5b3480156101ad57600080fd5b506101f0600480360360208110156101c457600080fd5b81019080803573ffffffffffffffffffffffffffffffffffffffff1690602001909291905050506109e4565b6040518082815260200191505060405180910390f35b34801561021257600080fd5b5061021b6109fc565b6040518082815260200191505060405180910390f35b34801561023d57600080fd5b50610246610a02565b604051808273ffffffffffffffffffffffffffffffffffffffff1673ffffffffffffffffffffffffffffffffffffffff16815260200191505060405180910390f35b34801561029457600080fd5b506102c1600480360360208110156102ab57600080fd5b8101908080359060200190929190505050610a26565b005b3480156102cf57600080fd5b50610312600480360360208110156102e657600080fd5b81019080803573ffffffffffffffffffffffffffffffffffffffff169060200190929190505050610cb8565b6040518080602001828103825283818151815260200191508051906020019080838360005b83811015610352578082015181840152602081019050610337565b50505050905090810190601f16801561037f5780820380516001836020036101000a031916815260200191505b509250505060405180910390f35b34801561039957600080fd5b506103a2610d68565b005b3480156103b057600080fd5b506103f3600480360360208110156103c757600080fd5b81019080803573ffffffffffffffffffffffffffffffffffffffff1690602001909291905050506110dc565b6040518082815260200191505060405180910390f35b34801561041557600080fd5b5061041e61135a565b6040518082815260200191505060405180910390f35b34801561044057600080fd5b50610449611360565b005b34801561045757600080fd5b5061049a6004803603602081101561046e57600080fd5b81019080803573ffffffffffffffffffffffffffffffffffffffff1690602001909291905050506114e8565b6040518082815260200191505060405180910390f35b3480156104bc57600080fd5b506104ff600480360360208110156104d357600080fd5b81019080803573ffffffffffffffffffffffffffffffffffffffff169060200190929190505050611500565b6040518082815260200191505060405180910390f35b34801561052157600080fd5b5061052a611563565b604051808273ffffffffffffffffffffffffffffffffffffffff1673ffffffffffffffffffffffffffffffffffffffff16815260200191505060405180910390f35b34801561057857600080fd5b506105bb6004803603602081101561058f57600080fd5b81019080803573ffffffffffffffffffffffffffffffffffffffff16906020019092919050505061158c565b6040518082815260200191505060405180910390f35b3480156105dd57600080fd5b50610697600480360360208110156105f457600080fd5b810190808035906020019064010000000081111561061157600080fd5b82018360208201111561062357600080fd5b8035906020019184600183028401116401000000008311171561064557600080fd5b91908080601f016020809104026020016040519081016040528093929190818152602001838380828437600081840152601f19601f8201169050808301925050505050505091929192905050506115a4565b005b3480156106a557600080fd5b506106ae6116ae565b6040518082815260200191505060405180910390f35b3480156106d057600080fd5b506106d96116b5565b005b3480156106e757600080fd5b506106f0611945565b005b6106fa611aac565b005b34801561070857600080fd5b50610711611c73565b604051808215151515815260200191505060405180910390f35b34801561073757600080fd5b50610740611c86565b6040518082815260200191505060405180910390f35b34801561076257600080fd5b5061088e6004803603608081101561077957600080fd5b810190808035906020019064010000000081111561079657600080fd5b8201836020820111156107a857600080fd5b803590602001918460018302840111640100000000831117156107ca57600080fd5b9091929391929390803590602001906401000000008111156107eb57600080fd5b8201836020820111156107fd57600080fd5b8035906020019184600183028401116401000000008311171561081f57600080fd5b90919293919293908035906020019064010000000081111561084057600080fd5b82018360208201111561085257600080fd5b8035906020019184600183028401116401000000008311171561087457600080fd5b909192939192939080359060200190929190505050611caa565b005b34801561089c57600080fd5b506108a56121d7565b6040518082815260200191505060405180910390f35b3480156108c757600080fd5b506108d0612298565b6040518082815260200191505060405180910390f35b3480156108f257600080fd5b506109356004803603602081101561090957600080fd5b81019080803573ffffffffffffffffffffffffffffffffffffffff1690602001909291905050506122a6565b005b34801561094357600080fd5b5061094c6124b3565b6040518082815260200191505060405180910390f35b34801561096e57600080fd5b506109776124b9565b604051808273ffffffffffffffffffffffffffffffffffffffff1673ffffffffffffffffffffffffffffffffffffffff16815260200191505060405180910390f35b3480156109c557600080fd5b506109ce6124dd565b6040518082815260200191505060405180910390f35b60056020528060005260406000206000915090505481565b60035481565b7f000000000000000000000000000000000000000000000000000000000000000081565b600060149054906101000a900460ff1615610aa9576040517f08c379a00000000000000000000000000000000000000000000000000000000081526004018080602001828103825260118152602001807f7769746864726177616c206c6f636b656400000000000000000000000000000081525060200191505060405180910390fd5b610ab1610d68565b610b0381600460003373ffffffffffffffffffffffffffffffffffffffff1673ffffffffffffffffffffffffffffffffffffffff168152602001908152602001600020546124e490919063ffffffff16565b600460003373ffffffffffffffffffffffffffffffffffffffff1673ffffffffffffffffffffffffffffffffffffffff16815260200190815260200160002081905550610b5b816002546124e490919063ffffffff16565b6002819055507f000000000000000000000000000000000000000000000000000000000000000073ffffffffffffffffffffffffffffffffffffffff16639dc29fac33836040518363ffffffff1660e01b8152600401808373ffffffffffffffffffffffffffffffffffffffff1673ffffffffffffffffffffffffffffffffffffffff16815260200182815260200192505050600060405180830381600087803b158015610c0857600080fd5b505af1158015610c1c573d6000803e3d6000fd5b505050503373ffffffffffffffffffffffffffffffffffffffff166108fc829081150290604051600060405180830381858888f19350505050158015610c66573d6000803e3d6000fd5b503373ffffffffffffffffffffffffffffffffffffffff167f7fcf532c15f0a6db0bd6d0e038bea71d30d808c7d98cb3bf7268a95bf5081b65826040518082815260200191505060405180910390a250565b60076020528060005260406000206000915090508054600181600116156101000203166002900480601f016020809104026020016040519081016040528092919081815260200182805460018160011615610100020316600290048015610d605780601f10610d3557610100808354040283529160200191610d60565b820191906000526020600020905b815481529060010190602001808311610d4357829003601f168201915b505050505081565b7f0000000000000000000000000000000000000000000000000000000000000000421015610e61577f0000000000000000000000000000000000000000000000000000000000000000600660003373ffffffffffffffffffffffffffffffffffffffff1673ffffffffffffffffffffffffffffffffffffffff168152602001908152602001600020541015610e5c577f0000000000000000000000000000000000000000000000000000000000000000600660003373ffffffffffffffffffffffffffffffffffffffff1673ffffffffffffffffffffffffffffffffffffffff168152602001908152602001600020819055505b6110da565b7f0000000000000000000000000000000000000000000000000000000000000000600660003373ffffffffffffffffffffffffffffffffffffffff1673ffffffffffffffffffffffffffffffffffffffff168152602001908152602001600020541061101d576000610ed2336110dc565b9050610f2681600560003373ffffffffffffffffffffffffffffffffffffffff1673ffffffffffffffffffffffffffffffffffffffff1681526020019081526020016000205461252e90919063ffffffff16565b600560003373ffffffffffffffffffffffffffffffffffffffff1673ffffffffffffffffffffffffffffffffffffffff16815260200190815260200160002081905550610f7e8160035461252e90919063ffffffff16565b6003819055503373ffffffffffffffffffffffffffffffffffffffff167f987d620f307ff6b94d58743cb7a7509f24071586a77759b77c2d4e29f75a2f9a600560003373ffffffffffffffffffffffffffffffffffffffff1673ffffffffffffffffffffffffffffffffffffffff16815260200190815260200160002054600354604051808381526020018281526020019250505060405180910390a2505b611053622a30007f000000000000000000000000000000000000000000000000000000000000000061252e90919063ffffffff16565b421161105f5742611096565b611095622a30007f000000000000000000000000000000000000000000000000000000000000000061252e90919063ffffffff16565b5b600660003373ffffffffffffffffffffffffffffffffffffffff1673ffffffffffffffffffffffffffffffffffffffff168152602001908152602001600020819055505b565b6000806110e76121d7565b90507f0000000000000000000000000000000000000000000000000000000000000000600660008573ffffffffffffffffffffffffffffffffffffffff1673ffffffffffffffffffffffffffffffffffffffff16815260200190815260200160002054108061115857506000600254145b806111635750600081145b15611172576000915050611355565b6000611189600354836124e490919063ffffffff16565b905060006111c3622a30007f000000000000000000000000000000000000000000000000000000000000000061252e90919063ffffffff16565b42116112205761121b600660008773ffffffffffffffffffffffffffffffffffffffff1673ffffffffffffffffffffffffffffffffffffffff16815260200190815260200160002054426124e490919063ffffffff16565b6112a8565b6112a7600660008773ffffffffffffffffffffffffffffffffffffffff1673ffffffffffffffffffffffffffffffffffffffff16815260200190815260200160002054611299622a30007f000000000000000000000000000000000000000000000000000000000000000061252e90919063ffffffff16565b6124e490919063ffffffff16565b5b9050620a8c008111156112bc57620a8c0090505b600061134b620a8c0061133d8461132f600254611321600460008e73ffffffffffffffffffffffffffffffffffffffff1673ffffffffffffffffffffffffffffffffffffffff168152602001908152602001600020548a6125b690919063ffffffff16565b61263c90919063ffffffff16565b6125b690919063ffffffff16565b61263c90919063ffffffff16565b9050809450505050505b919050565b60015481565b611368612686565b73ffffffffffffffffffffffffffffffffffffffff166000809054906101000a900473ffffffffffffffffffffffffffffffffffffffff1673ffffffffffffffffffffffffffffffffffffffff1614611429576040517f08c379a00000000000000000000000000000000000000000000000000000000081526004018080602001828103825260208152602001807f4f776e61626c653a2063616c6c6572206973206e6f7420746865206f776e657281525060200191505060405180910390fd5b600073ffffffffffffffffffffffffffffffffffffffff166000809054906101000a900473ffffffffffffffffffffffffffffffffffffffff1673ffffffffffffffffffffffffffffffffffffffff167f8be0079c531659141344cd1fd0a4f28419497f9722a3daafe3b4186f6b6457e060405160405180910390a360008060006101000a81548173ffffffffffffffffffffffffffffffffffffffff021916908373ffffffffffffffffffffffffffffffffffffffff160217905550565b60066020528060005260406000206000915090505481565b600061155c61150e836110dc565b600560008573ffffffffffffffffffffffffffffffffffffffff1673ffffffffffffffffffffffffffffffffffffffff1681526020019081526020016000205461252e90919063ffffffff16565b9050919050565b60008060009054906101000a900473ffffffffffffffffffffffffffffffffffffffff16905090565b60046020528060005260406000206000915090505481565b80600760003373ffffffffffffffffffffffffffffffffffffffff1673ffffffffffffffffffffffffffffffffffffffff16815260200190815260200160002090805190602001906115f7929190612814565b503373ffffffffffffffffffffffffffffffffffffffff167f65c5fd4c1bff4ac202c0d32945c61eb69a7c9c44948368fc57500d4af26645db826040518080602001828103825283818151815260200191508051906020019080838360005b83811015611671578082015181840152602081019050611656565b50505050905090810190601f16801561169e5780820380516001836020036101000a031916815260200191505b509250505060405180910390a250565b622a300081565b6116bd612686565b73ffffffffffffffffffffffffffffffffffffffff166000809054906101000a900473ffffffffffffffffffffffffffffffffffffffff1673ffffffffffffffffffffffffffffffffffffffff161461177e576040517f08c379a00000000000000000000000000000000000000000000000000000000081526004018080602001828103825260208152602001807f4f776e61626c653a2063616c6c6572206973206e6f7420746865206f776e657281525060200191505060405180910390fd5b600060149054906101000a900460ff1615611801576040517f08c379a00000000000000000000000000000000000000000000000000000000081526004018080602001828103825260118152602001807f7769746864726177616c206c6f636b656400000000000000000000000000000081525060200191505060405180910390fd5b6001600060146101000a81548160ff0219169083151502179055507f000000000000000000000000000000000000000000000000000000000000000073ffffffffffffffffffffffffffffffffffffffff16635c975abb6040518163ffffffff1660e01b815260040160206040518083038186803b15801561188257600080fd5b505afa158015611896573d6000803e3d6000fd5b505050506040513d60208110156118ac57600080fd5b810190808051906020019092919050505015611943577f000000000000000000000000000000000000000000000000000000000000000073ffffffffffffffffffffffffffffffffffffffff16633f4ba83a6040518163ffffffff1660e01b8152600401600060405180830381600087803b15801561192a57600080fd5b505af115801561193e573d6000803e3d6000fd5b505050505b565b61194d612686565b73ffffffffffffffffffffffffffffffffffffffff166000809054906101000a900473ffffffffffffffffffffffffffffffffffffffff1673ffffffffffffffffffffffffffffffffffffffff1614611a0e576040517f08c379a00000000000000000000000000000000000000000000000000000000081526004018080602001828103825260208152602001807f4f776e61626c653a2063616c6c6572206973206e6f7420746865206f776e657281525060200191505060405180910390fd5b600060149054906101000a900460ff16611a90576040517f08c379a00000000000000000000000000000000000000000000000000000000081526004018080602001828103825260158152602001807f7769746864726177616c206e6f74206c6f636b6564000000000000000000000081525060200191505060405180910390fd5b60008060146101000a81548160ff021916908315150217905550565b611ab4610d68565b611b0634600460003373ffffffffffffffffffffffffffffffffffffffff1673ffffffffffffffffffffffffffffffffffffffff1681526020019081526020016000205461252e90919063ffffffff16565b600460003373ffffffffffffffffffffffffffffffffffffffff1673ffffffffffffffffffffffffffffffffffffffff16815260200190815260200160002081905550611b5e3460025461252e90919063ffffffff16565b6002819055507f000000000000000000000000000000000000000000000000000000000000000073ffffffffffffffffffffffffffffffffffffffff166340c10f1933346040518363ffffffff1660e01b8152600401808373ffffffffffffffffffffffffffffffffffffffff1673ffffffffffffffffffffffffffffffffffffffff16815260200182815260200192505050600060405180830381600087803b158015611c0b57600080fd5b505af1158015611c1f573d6000803e3d6000fd5b505050503373ffffffffffffffffffffffffffffffffffffffff167fe1fffcc4923d04b559f4d29a8bfc6cda04eb5b0d3c460751c2402c5c5cc9109c346040518082815260200191505060405180910390a2565b600060149054906101000a900460ff1681565b7f000000000000000000000000000000000000000000000000000000000000000081565b611cb2612686565b73ffffffffffffffffffffffffffffffffffffffff166000809054906101000a900473ffffffffffffffffffffffffffffffffffffffff1673ffffffffffffffffffffffffffffffffffffffff1614611d73576040517f08c379a00000000000000000000000000000000000000000000000000000000081526004018080602001828103825260208152602001807f4f776e61626c653a2063616c6c6572206973206e6f7420746865206f776e657281525060200191505060405180910390fd5b600060149054906101000a900460ff16611df5576040517f08c379a00000000000000000000000000000000000000000000000000000000081526004018080602001828103825260158152602001807f7769746864726177616c206e6f74206c6f636b6564000000000000000000000081525060200191505060405180910390fd5b60006801bc16d674ec8000009050803073ffffffffffffffffffffffffffffffffffffffff16311015611e90576040517f08c379a00000000000000000000000000000000000000000000000000000000081526004018080602001828103825260148152602001807f696e73756666696369656e742062616c616e636500000000000000000000000081525060200191505060405180910390fd5b611ea58160015461252e90919063ffffffff16565b6001819055507f000000000000000000000000000000000000000000000000000000000000000073ffffffffffffffffffffffffffffffffffffffff166322895118828a8a8a8a8a8a8a6040518963ffffffff1660e01b81526004018080602001806020018060200185815260200184810384528b8b82818152602001925080828437600081840152601f19601f8201169050808301925050508481038352898982818152602001925080828437600081840152601f19601f8201169050808301925050508481038252878782818152602001925080828437600081840152601f19601f8201169050808301925050509a50505050505050505050506000604051808303818588803b158015611fba57600080fd5b505af1158015611fce573d6000803e3d6000fd5b50505050507f9601e5af6d2ed7d709df1e0648762f952988a5d05144ffb9b508f7f456d797ce7f000000000000000000000000000000000000000000000000000000000000000073ffffffffffffffffffffffffffffffffffffffff1663621fd1306040518163ffffffff1660e01b815260040160006040518083038186803b15801561205a57600080fd5b505afa15801561206e573d6000803e3d6000fd5b505050506040513d6000823e3d601f19601f82011682018060405250602081101561209857600080fd5b81019080805160405193929190846401000000008211156120b857600080fd5b838201915060208201858111156120ce57600080fd5b82518660018202830111640100000000821117156120eb57600080fd5b8083526020830192505050908051906020019080838360005b8381101561211f578082015181840152602081019050612104565b50505050905090810190601f16801561214c5780820380516001836020036101000a031916815260200191505b506040525050506040518080602001828103825283818151815260200191508051906020019080838360005b83811015612193578082015181840152602081019050612178565b50505050905090810190601f1680156121c05780820380516001836020036101000a031916815260200191505b509250505060405180910390a15050505050505050565b60007f000000000000000000000000000000000000000000000000000000000000000042101561220a5760009050612295565b600061223f7f0000000000000000000000000000000000000000000000000000000000000000426124e490919063ffffffff16565b9050622a300081111561225f5769152d02c7e14af6800000915050612295565b612291622a30006122838369152d02c7e14af68000006125b690919063ffffffff16565b61263c90919063ffffffff16565b9150505b90565b69152d02c7e14af680000081565b6122ae612686565b73ffffffffffffffffffffffffffffffffffffffff166000809054906101000a900473ffffffffffffffffffffffffffffffffffffffff1673ffffffffffffffffffffffffffffffffffffffff161461236f576040517f08c379a00000000000000000000000000000000000000000000000000000000081526004018080602001828103825260208152602001807f4f776e61626c653a2063616c6c6572206973206e6f7420746865206f776e657281525060200191505060405180910390fd5b600073ffffffffffffffffffffffffffffffffffffffff168173ffffffffffffffffffffffffffffffffffffffff1614156123f5576040517f08c379a00000000000000000000000000000000000000000000000000000000081526004018080602001828103825260268152602001806128ba6026913960400191505060405180910390fd5b8073ffffffffffffffffffffffffffffffffffffffff166000809054906101000a900473ffffffffffffffffffffffffffffffffffffffff1673ffffffffffffffffffffffffffffffffffffffff167f8be0079c531659141344cd1fd0a4f28419497f9722a3daafe3b4186f6b6457e060405160405180910390a3806000806101000a81548173ffffffffffffffffffffffffffffffffffffffff021916908373ffffffffffffffffffffffffffffffffffffffff16021790555050565b60025481565b7f000000000000000000000000000000000000000000000000000000000000000081565b620a8c0081565b600061252683836040518060400160405280601e81526020017f536166654d6174683a207375627472616374696f6e206f766572666c6f77000081525061268e565b905092915050565b6000808284019050838110156125ac576040517f08c379a000000000000000000000000000000000000000000000000000000000815260040180806020018281038252601b8152602001807f536166654d6174683a206164646974696f6e206f766572666c6f77000000000081525060200191505060405180910390fd5b8091505092915050565b6000808314156125c95760009050612636565b60008284029050828482816125da57fe5b0414612631576040517f08c379a00000000000000000000000000000000000000000000000000000000081526004018080602001828103825260218152602001806128e06021913960400191505060405180910390fd5b809150505b92915050565b600061267e83836040518060400160405280601a81526020017f536166654d6174683a206469766973696f6e206279207a65726f00000000000081525061274e565b905092915050565b600033905090565b600083831115829061273b576040517f08c379a00000000000000000000000000000000000000000000000000000000081526004018080602001828103825283818151815260200191508051906020019080838360005b838110156127005780820151818401526020810190506126e5565b50505050905090810190601f16801561272d5780820380516001836020036101000a031916815260200191505b509250505060405180910390fd5b5060008385039050809150509392505050565b600080831182906127fa576040517f08c379a00000000000000000000000000000000000000000000000000000000081526004018080602001828103825283818151815260200191508051906020019080838360005b838110156127bf5780820151818401526020810190506127a4565b50505050905090810190601f1680156127ec5780820380516001836020036101000a031916815260200191505b509250505060405180910390fd5b50600083858161280657fe5b049050809150509392505050565b828054600181600116156101000203166002900490600052602060002090601f016020900481019282601f1061285557805160ff1916838001178555612883565b82800160010185558215612883579182015b82811115612882578251825591602001919060010190612867565b5b5090506128909190612894565b5090565b6128b691905b808211156128b257600081600090555060010161289a565b5090565b9056fe4f776e61626c653a206e6577206f776e657220697320746865207a65726f2061646472657373536166654d6174683a206d756c7469706c69636174696f6e206f766572666c6f77a26469706673582212200470eb12df0b28d3914ba60c9808424f39df817ed1518230ac1f862bcc79a4b964736f6c634300060b0033",
  "compiler": {
    "name": "solc",
    "version": "0.6.11+commit.5ef660b1.Emscripten.clang",
    "optimizer": {
      "enabled": false,
      "runs": 200
    },
    "evmVersion": "petersburg"
  }
}