{
  "fileName": "MintDropV2.sol",
  "contractName": "MintDropV2",
  "source": "//  =====================================================================================\n//\n//   ___ __ __    ________  ___   __   _________   ______  ______   ______  ______\n//  /__//_//_/\\  /_______/\\/__/\\ /__/\\/________/\\ /_____/\\/_____/\\ /_____/\\/_____/\\\n//  \\::\\| \\| \\ \\ \\__.::._\\/\\::\\_\\\\  \\ \\__.::.__\\/ \\:::_ \\ \\:::_ \\ \\\\:::_ \\ \\:::_ \\ \\\n//   \\:.      \\ \\   \\::\\ \\  \\:. `-\\  \\ \\ \\::\\ \\    \\:\\ \\ \\ \\:(_) ) )\\:\\ \\ \\ \\:(_) \\ \\\n//    \\:.\\-/\\  \\ \\  _\\::\\ \\__\\:. _    \\ \\ \\::\\ \\    \\:\\ \\ \\ \\: __ `\\ \\:\\ \\ \\ \\: ___\\/\n//     \\. \\  \\  \\ \\/__\\::\\__/\\\\. \\`-\\  \\ \\ \\::\\ \\    \\:\\/.:| \\ \\ `\\ \\ \\:\\_\\ \\ \\ \\ \\\n//      \\__\\/ \\__\\/\\________\\/ \\__\\/ \\__\\/  \\__\\/     \\____/_/\\_\\/ \\_\\/\\_____\\/\\_\\/\n//                                                                          Version 2.0.0\n//  =====================================================================================\n\n// SPDX-License-Identifier: MIT\n\npragma solidity 0.6.11;\n\nimport \"@openzeppelin/contracts-ethereum-package/contracts/math/Math.sol\";\nimport \"@openzeppelin/contracts-ethereum-package/contracts/math/SafeMath.sol\";\nimport \"@openzeppelin/contracts-ethereum-package/contracts/token/ERC20/IERC20.sol\";\nimport \"@openzeppelin/contracts-ethereum-package/contracts/token/ERC20/SafeERC20.sol\";\nimport \"@openzeppelin/contracts-ethereum-package/contracts/access/Ownable.sol\";\n\nimport \"./DepositContract.sol\";\nimport \"./interfaces/IVETH.sol\";\n\ncontract MintDropV2 is OwnableUpgradeSafe {\n    using SafeMath for uint;\n    using SafeERC20 for IERC20;\n\n    /* ========== CONSTANTS ========== */\n\n    /* ========== STATE VARIABLES ========== */\n\n    // address of vETH\n    address public vETHAddress;\n    // address of old vETH\n    address public vETHAddressOld;\n    // address of Ethereum 2.0 Deposit Contract\n    address public depositAddress;\n    // total amount of ETH deposited to Ethereum 2.0 Deposit Contract\n    uint public totalLocked;\n    // total amount of ETH deposited in this contract\n    uint public totalDeposit;\n    // user address => amount of ETH deposited by this user in this contract\n    mapping(address => uint) public myDeposit;\n    // convertRatio: vETH/ETH\n    uint public convertRatio;\n\n    /* ========== EVENTS ========== */\n\n    event Deposit(address indexed sender, uint AmountOfETH, uint amountOfvETH);\n    event NewValidator(bytes little_endian_deposit_count);\n    event Swapped(address indexed sender, uint amount);\n    event ConvertRatioSet(address indexed sender, uint ratio);\n\n    /* ========== CONSTRUCTOR ========== */\n\n    function initialize(address vETHAddress_, address vETHAddressOld_, address depositAddress_) public initializer {\n        super.__Ownable_init();\n        vETHAddress = vETHAddress_;\n        vETHAddressOld = vETHAddressOld_;\n        depositAddress = depositAddress_;\n        convertRatio = 1 ether;\n    }\n\n    /* ========== MUTATIVE FUNCTIONS ========== */\n\n    function deposit() external payable {\n        myDeposit[msg.sender] = myDeposit[msg.sender].add(msg.value);\n        totalDeposit = totalDeposit.add(msg.value);\n        // calculate amount of vETH by convertRatio\n        uint amountOfvETH = msg.value.mul(convertRatio).div(1 ether);\n        // mint vETH, MintDrop should have ownership of vETH contract\n        IVETH(vETHAddress).mint(msg.sender, amountOfvETH);\n        emit Deposit(msg.sender, msg.value, amountOfvETH);\n    }\n\n    function swapForOldvETH(uint amount) external {\n        IERC20(vETHAddressOld).safeTransferFrom(msg.sender, address(this), amount);\n        IVETH(vETHAddress).mint(msg.sender, amount);\n        emit Swapped(msg.sender, amount);\n    }\n\n    function lockForValidator(\n        bytes calldata pubkey,\n        bytes calldata withdrawal_credentials,\n        bytes calldata signature,\n        bytes32 deposit_data_root\n    ) external onlyOwner {\n        uint amount = 32 ether;\n        require(address(this).balance >= amount, \"insufficient balance\");\n        totalLocked = totalLocked.add(amount);\n        IDepositContract(depositAddress).deposit{value: amount}(\n            pubkey,\n            withdrawal_credentials,\n            signature,\n            deposit_data_root\n        );\n        emit NewValidator(IDepositContract(depositAddress).get_deposit_count());\n    }\n\n    function setConvertRatio(uint ratio) external onlyOwner {\n        require(ratio <= 1 ether, \"invalid ratio\");\n        convertRatio = ratio;\n        emit ConvertRatioSet(msg.sender, ratio);\n    }\n\n    /* ========== VIEWS ========== */\n\n\n}\n",
  "sourcePath": "contracts/MintDropV2.sol",
  "abi": [
    {
      "anonymous": false,
      "inputs": [
        {
          "indexed": true,
          "internalType": "address",
          "name": "sender",
          "type": "address"
        },
        {
          "indexed": false,
          "internalType": "uint256",
          "name": "ratio",
          "type": "uint256"
        }
      ],
      "name": "ConvertRatioSet",
      "type": "event"
    },
    {
      "anonymous": false,
      "inputs": [
        {
          "indexed": true,
          "internalType": "address",
          "name": "sender",
          "type": "address"
        },
        {
          "indexed": false,
          "internalType": "uint256",
          "name": "AmountOfETH",
          "type": "uint256"
        },
        {
          "indexed": false,
          "internalType": "uint256",
          "name": "amountOfvETH",
          "type": "uint256"
        }
      ],
      "name": "Deposit",
      "type": "event"
    },
    {
      "anonymous": false,
      "inputs": [
        {
          "indexed": false,
          "internalType": "bytes",
          "name": "little_endian_deposit_count",
          "type": "bytes"
        }
      ],
      "name": "NewValidator",
      "type": "event"
    },
    {
      "anonymous": false,
      "inputs": [
        {
          "indexed": true,
          "internalType": "address",
          "name": "previousOwner",
          "type": "address"
        },
        {
          "indexed": true,
          "internalType": "address",
          "name": "newOwner",
          "type": "address"
        }
      ],
      "name": "OwnershipTransferred",
      "type": "event"
    },
    {
      "anonymous": false,
      "inputs": [
        {
          "indexed": true,
          "internalType": "address",
          "name": "sender",
          "type": "address"
        },
        {
          "indexed": false,
          "internalType": "uint256",
          "name": "amount",
          "type": "uint256"
        }
      ],
      "name": "Swapped",
      "type": "event"
    },
    {
      "inputs": [],
      "name": "convertRatio",
      "outputs": [
        {
          "internalType": "uint256",
          "name": "",
          "type": "uint256"
        }
      ],
      "stateMutability": "view",
      "type": "function"
    },
    {
      "inputs": [],
      "name": "deposit",
      "outputs": [],
      "stateMutability": "payable",
      "type": "function"
    },
    {
      "inputs": [],
      "name": "depositAddress",
      "outputs": [
        {
          "internalType": "address",
          "name": "",
          "type": "address"
        }
      ],
      "stateMutability": "view",
      "type": "function"
    },
    {
      "inputs": [
        {
          "internalType": "address",
          "name": "vETHAddress_",
          "type": "address"
        },
        {
          "internalType": "address",
          "name": "vETHAddressOld_",
          "type": "address"
        },
        {
          "internalType": "address",
          "name": "depositAddress_",
          "type": "address"
        }
      ],
      "name": "initialize",
      "outputs": [],
      "stateMutability": "nonpayable",
      "type": "function"
    },
    {
      "inputs": [
        {
          "internalType": "bytes",
          "name": "pubkey",
          "type": "bytes"
        },
        {
          "internalType": "bytes",
          "name": "withdrawal_credentials",
          "type": "bytes"
        },
        {
          "internalType": "bytes",
          "name": "signature",
          "type": "bytes"
        },
        {
          "internalType": "bytes32",
          "name": "deposit_data_root",
          "type": "bytes32"
        }
      ],
      "name": "lockForValidator",
      "outputs": [],
      "stateMutability": "nonpayable",
      "type": "function"
    },
    {
      "inputs": [
        {
          "internalType": "address",
          "name": "",
          "type": "address"
        }
      ],
      "name": "myDeposit",
      "outputs": [
        {
          "internalType": "uint256",
          "name": "",
          "type": "uint256"
        }
      ],
      "stateMutability": "view",
      "type": "function"
    },
    {
      "inputs": [],
      "name": "owner",
      "outputs": [
        {
          "internalType": "address",
          "name": "",
          "type": "address"
        }
      ],
      "stateMutability": "view",
      "type": "function"
    },
    {
      "inputs": [],
      "name": "renounceOwnership",
      "outputs": [],
      "stateMutability": "nonpayable",
      "type": "function"
    },
    {
      "inputs": [
        {
          "internalType": "uint256",
          "name": "ratio",
          "type": "uint256"
        }
      ],
      "name": "setConvertRatio",
      "outputs": [],
      "stateMutability": "nonpayable",
      "type": "function"
    },
    {
      "inputs": [
        {
          "internalType": "uint256",
          "name": "amount",
          "type": "uint256"
        }
      ],
      "name": "swapForOldvETH",
      "outputs": [],
      "stateMutability": "nonpayable",
      "type": "function"
    },
    {
      "inputs": [],
      "name": "totalDeposit",
      "outputs": [
        {
          "internalType": "uint256",
          "name": "",
          "type": "uint256"
        }
      ],
      "stateMutability": "view",
      "type": "function"
    },
    {
      "inputs": [],
      "name": "totalLocked",
      "outputs": [
        {
          "internalType": "uint256",
          "name": "",
          "type": "uint256"
        }
      ],
      "stateMutability": "view",
      "type": "function"
    },
    {
      "inputs": [
        {
          "internalType": "address",
          "name": "newOwner",
          "type": "address"
        }
      ],
      "name": "transferOwnership",
      "outputs": [],
      "stateMutability": "nonpayable",
      "type": "function"
    },
    {
      "inputs": [],
      "name": "vETHAddress",
      "outputs": [
        {
          "internalType": "address",
          "name": "",
          "type": "address"
        }
      ],
      "stateMutability": "view",
      "type": "function"
    },
    {
      "inputs": [],
      "name": "vETHAddressOld",
      "outputs": [
        {
          "internalType": "address",
          "name": "",
          "type": "address"
        }
      ],
      "stateMutability": "view",
      "type": "function"
    }
  ],
  "bytecode": "0x608060405234801561001057600080fd5b50612018806100206000396000f3fe6080604052600436106100e85760003560e01c8063b0b1a9041161008a578063d5a2313a11610059578063d5a2313a146103d5578063f2fde38b1461050f578063f6153ccd14610560578063fb9422061461058b576100e8565b8063b0b1a904146102d4578063baf2c2791461030f578063c0c53b8b1461033a578063d0e30db0146103cb576100e8565b80636f596820116100c65780636f596820146101aa578063715018a6146102015780638da5cb5b146102185780639200b04c1461026f576100e8565b806328f833b7146100ed57806356891412146101445780636546f64f1461016f575b600080fd5b3480156100f957600080fd5b506101026105e2565b604051808273ffffffffffffffffffffffffffffffffffffffff1673ffffffffffffffffffffffffffffffffffffffff16815260200191505060405180910390f35b34801561015057600080fd5b50610159610608565b6040518082815260200191505060405180910390f35b34801561017b57600080fd5b506101a86004803603602081101561019257600080fd5b810190808035906020019092919050505061060e565b005b3480156101b657600080fd5b506101bf6107ae565b604051808273ffffffffffffffffffffffffffffffffffffffff1673ffffffffffffffffffffffffffffffffffffffff16815260200191505060405180910390f35b34801561020d57600080fd5b506102166107d4565b005b34801561022457600080fd5b5061022d61095f565b604051808273ffffffffffffffffffffffffffffffffffffffff1673ffffffffffffffffffffffffffffffffffffffff16815260200191505060405180910390f35b34801561027b57600080fd5b506102be6004803603602081101561029257600080fd5b81019080803573ffffffffffffffffffffffffffffffffffffffff169060200190929190505050610989565b6040518082815260200191505060405180910390f35b3480156102e057600080fd5b5061030d600480360360208110156102f757600080fd5b81019080803590602001909291905050506109a1565b005b34801561031b57600080fd5b50610324610b02565b6040518082815260200191505060405180910390f35b34801561034657600080fd5b506103c96004803603606081101561035d57600080fd5b81019080803573ffffffffffffffffffffffffffffffffffffffff169060200190929190803573ffffffffffffffffffffffffffffffffffffffff169060200190929190803573ffffffffffffffffffffffffffffffffffffffff169060200190929190505050610b08565b005b6103d3610ce4565b005b3480156103e157600080fd5b5061050d600480360360808110156103f857600080fd5b810190808035906020019064010000000081111561041557600080fd5b82018360208201111561042757600080fd5b8035906020019184600183028401116401000000008311171561044957600080fd5b90919293919293908035906020019064010000000081111561046a57600080fd5b82018360208201111561047c57600080fd5b8035906020019184600183028401116401000000008311171561049e57600080fd5b9091929391929390803590602001906401000000008111156104bf57600080fd5b8201836020820111156104d157600080fd5b803590602001918460018302840111640100000000831117156104f357600080fd5b909192939192939080359060200190929190505050610ee1565b005b34801561051b57600080fd5b5061055e6004803603602081101561053257600080fd5b81019080803573ffffffffffffffffffffffffffffffffffffffff169060200190929190505050611391565b005b34801561056c57600080fd5b506105756115a1565b6040518082815260200191505060405180910390f35b34801561059757600080fd5b506105a06115a7565b604051808273ffffffffffffffffffffffffffffffffffffffff1673ffffffffffffffffffffffffffffffffffffffff16815260200191505060405180910390f35b609960009054906101000a900473ffffffffffffffffffffffffffffffffffffffff1681565b609a5481565b6106166115cd565b73ffffffffffffffffffffffffffffffffffffffff16606560009054906101000a900473ffffffffffffffffffffffffffffffffffffffff1673ffffffffffffffffffffffffffffffffffffffff16146106d8576040517f08c379a00000000000000000000000000000000000000000000000000000000081526004018080602001828103825260208152602001807f4f776e61626c653a2063616c6c6572206973206e6f7420746865206f776e657281525060200191505060405180910390fd5b670de0b6b3a7640000811115610756576040517f08c379a000000000000000000000000000000000000000000000000000000000815260040180806020018281038252600d8152602001807f696e76616c696420726174696f0000000000000000000000000000000000000081525060200191505060405180910390fd5b80609d819055503373ffffffffffffffffffffffffffffffffffffffff167f2c2034f1dabea95a3da4ee4c2b4b678af61b1fd312ab488a2b42b70010e7fb6b826040518082815260200191505060405180910390a250565b609860009054906101000a900473ffffffffffffffffffffffffffffffffffffffff1681565b6107dc6115cd565b73ffffffffffffffffffffffffffffffffffffffff16606560009054906101000a900473ffffffffffffffffffffffffffffffffffffffff1673ffffffffffffffffffffffffffffffffffffffff161461089e576040517f08c379a00000000000000000000000000000000000000000000000000000000081526004018080602001828103825260208152602001807f4f776e61626c653a2063616c6c6572206973206e6f7420746865206f776e657281525060200191505060405180910390fd5b600073ffffffffffffffffffffffffffffffffffffffff16606560009054906101000a900473ffffffffffffffffffffffffffffffffffffffff1673ffffffffffffffffffffffffffffffffffffffff167f8be0079c531659141344cd1fd0a4f28419497f9722a3daafe3b4186f6b6457e060405160405180910390a36000606560006101000a81548173ffffffffffffffffffffffffffffffffffffffff021916908373ffffffffffffffffffffffffffffffffffffffff160217905550565b6000606560009054906101000a900473ffffffffffffffffffffffffffffffffffffffff16905090565b609c6020528060005260406000206000915090505481565b6109f0333083609860009054906101000a900473ffffffffffffffffffffffffffffffffffffffff1673ffffffffffffffffffffffffffffffffffffffff166115d5909392919063ffffffff16565b609760009054906101000a900473ffffffffffffffffffffffffffffffffffffffff1673ffffffffffffffffffffffffffffffffffffffff166340c10f1933836040518363ffffffff1660e01b8152600401808373ffffffffffffffffffffffffffffffffffffffff1673ffffffffffffffffffffffffffffffffffffffff16815260200182815260200192505050600060405180830381600087803b158015610a9957600080fd5b505af1158015610aad573d6000803e3d6000fd5b505050503373ffffffffffffffffffffffffffffffffffffffff167fcdee897399ab5e465acb1bd3ed5e32c695f196321764546c59720fa6c9ce4c69826040518082815260200191505060405180910390a250565b609d5481565b600060019054906101000a900460ff1680610b275750610b266116c2565b5b80610b3e57506000809054906101000a900460ff16155b610b93576040517f08c379a000000000000000000000000000000000000000000000000000000000815260040180806020018281038252602e815260200180611f8b602e913960400191505060405180910390fd5b60008060019054906101000a900460ff161590508015610be3576001600060016101000a81548160ff02191690831515021790555060016000806101000a81548160ff0219169083151502179055505b610beb6116d9565b83609760006101000a81548173ffffffffffffffffffffffffffffffffffffffff021916908373ffffffffffffffffffffffffffffffffffffffff16021790555082609860006101000a81548173ffffffffffffffffffffffffffffffffffffffff021916908373ffffffffffffffffffffffffffffffffffffffff16021790555081609960006101000a81548173ffffffffffffffffffffffffffffffffffffffff021916908373ffffffffffffffffffffffffffffffffffffffff160217905550670de0b6b3a7640000609d819055508015610cde5760008060016101000a81548160ff0219169083151502179055505b50505050565b610d3634609c60003373ffffffffffffffffffffffffffffffffffffffff1673ffffffffffffffffffffffffffffffffffffffff168152602001908152602001600020546117e890919063ffffffff16565b609c60003373ffffffffffffffffffffffffffffffffffffffff1673ffffffffffffffffffffffffffffffffffffffff16815260200190815260200160002081905550610d8e34609b546117e890919063ffffffff16565b609b819055506000610dc5670de0b6b3a7640000610db7609d543461187090919063ffffffff16565b6118f690919063ffffffff16565b9050609760009054906101000a900473ffffffffffffffffffffffffffffffffffffffff1673ffffffffffffffffffffffffffffffffffffffff166340c10f1933836040518363ffffffff1660e01b8152600401808373ffffffffffffffffffffffffffffffffffffffff1673ffffffffffffffffffffffffffffffffffffffff16815260200182815260200192505050600060405180830381600087803b158015610e7057600080fd5b505af1158015610e84573d6000803e3d6000fd5b505050503373ffffffffffffffffffffffffffffffffffffffff167f90890809c654f11d6e72a28fa60149770a0d11ec6c92319d6ceb2bb0a4ea1a153483604051808381526020018281526020019250505060405180910390a250565b610ee96115cd565b73ffffffffffffffffffffffffffffffffffffffff16606560009054906101000a900473ffffffffffffffffffffffffffffffffffffffff1673ffffffffffffffffffffffffffffffffffffffff1614610fab576040517f08c379a00000000000000000000000000000000000000000000000000000000081526004018080602001828103825260208152602001807f4f776e61626c653a2063616c6c6572206973206e6f7420746865206f776e657281525060200191505060405180910390fd5b60006801bc16d674ec8000009050803073ffffffffffffffffffffffffffffffffffffffff16311015611046576040517f08c379a00000000000000000000000000000000000000000000000000000000081526004018080602001828103825260148152602001807f696e73756666696369656e742062616c616e636500000000000000000000000081525060200191505060405180910390fd5b61105b81609a546117e890919063ffffffff16565b609a81905550609960009054906101000a900473ffffffffffffffffffffffffffffffffffffffff1673ffffffffffffffffffffffffffffffffffffffff166322895118828a8a8a8a8a8a8a6040518963ffffffff1660e01b81526004018080602001806020018060200185815260200184810384528b8b82818152602001925080828437600081840152601f19601f8201169050808301925050508481038352898982818152602001925080828437600081840152601f19601f8201169050808301925050508481038252878782818152602001925080828437600081840152601f19601f8201169050808301925050509a50505050505050505050506000604051808303818588803b15801561117257600080fd5b505af1158015611186573d6000803e3d6000fd5b50505050507f9601e5af6d2ed7d709df1e0648762f952988a5d05144ffb9b508f7f456d797ce609960009054906101000a900473ffffffffffffffffffffffffffffffffffffffff1673ffffffffffffffffffffffffffffffffffffffff1663621fd1306040518163ffffffff1660e01b815260040160006040518083038186803b15801561121457600080fd5b505afa158015611228573d6000803e3d6000fd5b505050506040513d6000823e3d601f19601f82011682018060405250602081101561125257600080fd5b810190808051604051939291908464010000000082111561127257600080fd5b8382019150602082018581111561128857600080fd5b82518660018202830111640100000000821117156112a557600080fd5b8083526020830192505050908051906020019080838360005b838110156112d95780820151818401526020810190506112be565b50505050905090810190601f1680156113065780820380516001836020036101000a031916815260200191505b506040525050506040518080602001828103825283818151815260200191508051906020019080838360005b8381101561134d578082015181840152602081019050611332565b50505050905090810190601f16801561137a5780820380516001836020036101000a031916815260200191505b509250505060405180910390a15050505050505050565b6113996115cd565b73ffffffffffffffffffffffffffffffffffffffff16606560009054906101000a900473ffffffffffffffffffffffffffffffffffffffff1673ffffffffffffffffffffffffffffffffffffffff161461145b576040517f08c379a00000000000000000000000000000000000000000000000000000000081526004018080602001828103825260208152602001807f4f776e61626c653a2063616c6c6572206973206e6f7420746865206f776e657281525060200191505060405180910390fd5b600073ffffffffffffffffffffffffffffffffffffffff168173ffffffffffffffffffffffffffffffffffffffff1614156114e1576040517f08c379a0000000000000000000000000000000000000000000000000000000008152600401808060200182810382526026815260200180611f446026913960400191505060405180910390fd5b8073ffffffffffffffffffffffffffffffffffffffff16606560009054906101000a900473ffffffffffffffffffffffffffffffffffffffff1673ffffffffffffffffffffffffffffffffffffffff167f8be0079c531659141344cd1fd0a4f28419497f9722a3daafe3b4186f6b6457e060405160405180910390a380606560006101000a81548173ffffffffffffffffffffffffffffffffffffffff021916908373ffffffffffffffffffffffffffffffffffffffff16021790555050565b609b5481565b609760009054906101000a900473ffffffffffffffffffffffffffffffffffffffff1681565b600033905090565b6116bc846323b872dd60e01b858585604051602401808473ffffffffffffffffffffffffffffffffffffffff1673ffffffffffffffffffffffffffffffffffffffff1681526020018373ffffffffffffffffffffffffffffffffffffffff1673ffffffffffffffffffffffffffffffffffffffff1681526020018281526020019350505050604051602081830303815290604052907bffffffffffffffffffffffffffffffffffffffffffffffffffffffff19166020820180517bffffffffffffffffffffffffffffffffffffffffffffffffffffffff8381831617835250505050611940565b50505050565b6000803090506000813b9050600081149250505090565b600060019054906101000a900460ff16806116f857506116f76116c2565b5b8061170f57506000809054906101000a900460ff16155b611764576040517f08c379a000000000000000000000000000000000000000000000000000000000815260040180806020018281038252602e815260200180611f8b602e913960400191505060405180910390fd5b60008060019054906101000a900460ff1615905080156117b4576001600060016101000a81548160ff02191690831515021790555060016000806101000a81548160ff0219169083151502179055505b6117bc611b8b565b6117c4611c8a565b80156117e55760008060016101000a81548160ff0219169083151502179055505b50565b600080828401905083811015611866576040517f08c379a000000000000000000000000000000000000000000000000000000000815260040180806020018281038252601b8152602001807f536166654d6174683a206164646974696f6e206f766572666c6f77000000000081525060200191505060405180910390fd5b8091505092915050565b60008083141561188357600090506118f0565b600082840290508284828161189457fe5b04146118eb576040517f08c379a0000000000000000000000000000000000000000000000000000000008152600401808060200182810382526021815260200180611f6a6021913960400191505060405180910390fd5b809150505b92915050565b600061193883836040518060400160405280601a81526020017f536166654d6174683a206469766973696f6e206279207a65726f000000000000815250611e32565b905092915050565b61195f8273ffffffffffffffffffffffffffffffffffffffff16611ef8565b6119d1576040517f08c379a000000000000000000000000000000000000000000000000000000000815260040180806020018281038252601f8152602001807f5361666545524332303a2063616c6c20746f206e6f6e2d636f6e74726163740081525060200191505060405180910390fd5b600060608373ffffffffffffffffffffffffffffffffffffffff16836040518082805190602001908083835b60208310611a2057805182526020820191506020810190506020830392506119fd565b6001836020036101000a0380198251168184511680821785525050505050509050019150506000604051808303816000865af19150503d8060008114611a82576040519150601f19603f3d011682016040523d82523d6000602084013e611a87565b606091505b509150915081611aff576040517f08c379a00000000000000000000000000000000000000000000000000000000081526004018080602001828103825260208152602001807f5361666545524332303a206c6f772d6c6576656c2063616c6c206661696c656481525060200191505060405180910390fd5b600081511115611b8557808060200190516020811015611b1e57600080fd5b8101908080519060200190929190505050611b84576040517f08c379a000000000000000000000000000000000000000000000000000000000815260040180806020018281038252602a815260200180611fb9602a913960400191505060405180910390fd5b5b50505050565b600060019054906101000a900460ff1680611baa5750611ba96116c2565b5b80611bc157506000809054906101000a900460ff16155b611c16576040517f08c379a000000000000000000000000000000000000000000000000000000000815260040180806020018281038252602e815260200180611f8b602e913960400191505060405180910390fd5b60008060019054906101000a900460ff161590508015611c66576001600060016101000a81548160ff02191690831515021790555060016000806101000a81548160ff0219169083151502179055505b8015611c875760008060016101000a81548160ff0219169083151502179055505b50565b600060019054906101000a900460ff1680611ca95750611ca86116c2565b5b80611cc057506000809054906101000a900460ff16155b611d15576040517f08c379a000000000000000000000000000000000000000000000000000000000815260040180806020018281038252602e815260200180611f8b602e913960400191505060405180910390fd5b60008060019054906101000a900460ff161590508015611d65576001600060016101000a81548160ff02191690831515021790555060016000806101000a81548160ff0219169083151502179055505b6000611d6f6115cd565b905080606560006101000a81548173ffffffffffffffffffffffffffffffffffffffff021916908373ffffffffffffffffffffffffffffffffffffffff1602179055508073ffffffffffffffffffffffffffffffffffffffff16600073ffffffffffffffffffffffffffffffffffffffff167f8be0079c531659141344cd1fd0a4f28419497f9722a3daafe3b4186f6b6457e060405160405180910390a3508015611e2f5760008060016101000a81548160ff0219169083151502179055505b50565b60008083118290611ede576040517f08c379a00000000000000000000000000000000000000000000000000000000081526004018080602001828103825283818151815260200191508051906020019080838360005b83811015611ea3578082015181840152602081019050611e88565b50505050905090810190601f168015611ed05780820380516001836020036101000a031916815260200191505b509250505060405180910390fd5b506000838581611eea57fe5b049050809150509392505050565b60008060007fc5d2460186f7233c927e7db2dcc703c0e500b653ca82273b7bfad8045d85a47060001b9050833f9150808214158015611f3a57506000801b8214155b9250505091905056fe4f776e61626c653a206e6577206f776e657220697320746865207a65726f2061646472657373536166654d6174683a206d756c7469706c69636174696f6e206f766572666c6f77436f6e747261637420696e7374616e63652068617320616c7265616479206265656e20696e697469616c697a65645361666545524332303a204552433230206f7065726174696f6e20646964206e6f742073756363656564a26469706673582212205186fea9be8d1f18d6219497c448ddabea144aa06463e147434a0df7c102f49c64736f6c634300060b0033",
  "compiler": {
    "name": "solc",
    "version": "0.6.11+commit.5ef660b1.Emscripten.clang",
    "optimizer": {
      "enabled": false,
      "runs": 200
    },
    "evmVersion": "petersburg"
  }
}