{
  "fileName": "MintDrop.sol",
  "contractName": "MintDrop",
  "source": "//  =====================================================================================\n//\n//   ___ __ __    ________  ___   __   _________   ______  ______   ______  ______\n//  /__//_//_/\\  /_______/\\/__/\\ /__/\\/________/\\ /_____/\\/_____/\\ /_____/\\/_____/\\\n//  \\::\\| \\| \\ \\ \\__.::._\\/\\::\\_\\\\  \\ \\__.::.__\\/ \\:::_ \\ \\:::_ \\ \\\\:::_ \\ \\:::_ \\ \\\n//   \\:.      \\ \\   \\::\\ \\  \\:. `-\\  \\ \\ \\::\\ \\    \\:\\ \\ \\ \\:(_) ) )\\:\\ \\ \\ \\:(_) \\ \\\n//    \\:.\\-/\\  \\ \\  _\\::\\ \\__\\:. _    \\ \\ \\::\\ \\    \\:\\ \\ \\ \\: __ `\\ \\:\\ \\ \\ \\: ___\\/\n//     \\. \\  \\  \\ \\/__\\::\\__/\\\\. \\`-\\  \\ \\ \\::\\ \\    \\:\\/.:| \\ \\ `\\ \\ \\:\\_\\ \\ \\ \\ \\\n//      \\__\\/ \\__\\/\\________\\/ \\__\\/ \\__\\/  \\__\\/     \\____/_/\\_\\/ \\_\\/\\_____\\/\\_\\/\n//\n//  =====================================================================================\n\n// SPDX-License-Identifier: MIT\n\npragma solidity 0.6.11;\n\nimport \"@openzeppelin/contracts/math/Math.sol\";\nimport \"@openzeppelin/contracts/math/SafeMath.sol\";\nimport \"@openzeppelin/contracts/token/ERC20/IERC20.sol\";\nimport \"@openzeppelin/contracts/access/Ownable.sol\";\n\nimport \"./DepositContract.sol\";\nimport \"./interfaces/IVETH.sol\";\n\ncontract MintDrop is Ownable {\n    using SafeMath for uint;\n\n    /* ========== CONSTANTS ========== */\n\n    uint constant public BONUS_DURATION = 32 days;\n    uint constant public MAX_CLAIM_DURATION = 8 days;\n    uint constant public TOTAL_BNC_REWARDS = 100000 ether;\n\n    /* ========== STATE VARIABLES ========== */\n\n    // address of vETH\n    address public vETHAddress;\n    // address of Ethereum 2.0 Deposit Contract\n    address public depositAddress;\n    // a flag to control whether the withdraw function is locked\n    bool public withdrawLocked;\n    // a timestamp when the bonus activity initialized\n    uint public bonusStartAt;\n    // total amount of ETH deposited to Ethereum 2.0 Deposit Contract\n    uint public totalLocked;\n    // total amount of ETH deposited in this contract\n    uint public totalDeposit;\n    // total claimed amount of BNC rewards\n    uint public claimedRewards;\n    // user address => amount of ETH deposited by this user in this contract\n    mapping(address => uint) public myDeposit;\n    // user address => amount of BNC rewards that will rewarded to this user\n    mapping(address => uint) public myRewards;\n    // user address => a timestamp that this user claimed rewards\n    mapping(address => uint) public myLastClaimedAt;\n    // user address => the address of this user which in ss58 format on Bifrost Network\n    mapping(address => string) public bifrostAddress;\n\n    /* ========== EVENTS ========== */\n\n    event Deposit(address indexed sender, uint amount);\n    event Withdrawal(address indexed sender, uint amount);\n    event Claimed(address indexed sender, uint amount, uint claimed);\n    event NewValidator(bytes little_endian_deposit_count);\n    event BindAddress(address indexed sender, string bifrostAddress);\n\n    /* ========== CONSTRUCTOR ========== */\n\n    constructor(address vETHAddress_, address depositAddress_, uint bonusStartAt_) public Ownable() {\n        vETHAddress = vETHAddress_;\n        depositAddress = depositAddress_;\n        bonusStartAt = bonusStartAt_;\n    }\n\n    /* ========== MUTATIVE FUNCTIONS ========== */\n\n    function deposit() external payable {\n        claimRewards();\n        myDeposit[msg.sender] = myDeposit[msg.sender].add(msg.value);\n        totalDeposit = totalDeposit.add(msg.value);\n        // mint vETH, MintDrop should have ownership of vETH contract\n        IVETH(vETHAddress).mint(msg.sender, msg.value);\n        emit Deposit(msg.sender, msg.value);\n    }\n\n    function withdraw(uint amount) external isWithdrawNotLocked {\n        claimRewards();\n        myDeposit[msg.sender] = myDeposit[msg.sender].sub(amount);\n        totalDeposit = totalDeposit.sub(amount);\n        // burn vETH, MintDrop should have ownership of vETH contract\n        IVETH(vETHAddress).burn(msg.sender, amount);\n        msg.sender.transfer(amount);\n        emit Withdrawal(msg.sender, amount);\n    }\n\n    function claimRewards() public {\n        // claim must start from bonusStartAt\n        if (now < bonusStartAt) {\n            if (myLastClaimedAt[msg.sender] == 0) {\n                myLastClaimedAt[msg.sender] = bonusStartAt;\n            }\n            return;\n        }\n        if (myLastClaimedAt[msg.sender] > 0) {\n            uint rewards = getIncrementalRewards(msg.sender);\n            myRewards[msg.sender] = myRewards[msg.sender].add(rewards);\n            claimedRewards = claimedRewards.add(rewards);\n            emit Claimed(msg.sender, myRewards[msg.sender], claimedRewards);\n        }\n        myLastClaimedAt[msg.sender] = now > bonusStartAt.add(BONUS_DURATION)\n            ? bonusStartAt.add(BONUS_DURATION)\n            : now;\n    }\n\n    function lockForValidator(\n        bytes calldata pubkey,\n        bytes calldata withdrawal_credentials,\n        bytes calldata signature,\n        bytes32 deposit_data_root\n    ) external onlyOwner isWithdrawLocked {\n        uint amount = 32 ether;\n        require(address(this).balance >= amount, \"insufficient balance\");\n        require(address(this).balance.add(totalLocked) == totalDeposit, \"invalid balance\");\n        totalLocked = totalLocked.add(amount);\n        IDepositContract(depositAddress).deposit{value: amount}(\n            pubkey,\n            withdrawal_credentials,\n            signature,\n            deposit_data_root\n        );\n        emit NewValidator(IDepositContract(depositAddress).get_deposit_count());\n    }\n\n    function bindBifrostAddress(string memory bifrostAddress_) external {\n        bifrostAddress[msg.sender] = bifrostAddress_;\n        emit BindAddress(msg.sender, bifrostAddress_);\n    }\n\n    function lockWithdraw() external onlyOwner {\n        withdrawLocked = true;\n        // enable vETH transfer, MintDrop should have ownership of vETH contract\n        IVETH(vETHAddress).unpause();\n    }\n\n    /* ========== VIEWS ========== */\n\n    function getTotalRewards() public view returns (uint) {\n        if (now < bonusStartAt) {\n            return 0;\n        }\n        uint duration = now.sub(bonusStartAt);\n        if (duration > BONUS_DURATION) {\n            return TOTAL_BNC_REWARDS;\n        }\n        return TOTAL_BNC_REWARDS.mul(duration).div(BONUS_DURATION);\n    }\n\n    function getIncrementalRewards(address target) public view returns (uint) {\n        uint totalRewards = getTotalRewards();\n        if (\n            myLastClaimedAt[target] < bonusStartAt ||\n            totalDeposit == 0 ||\n            totalRewards == 0\n        ) {\n            return 0;\n        }\n        uint remainingRewards = totalRewards.sub(claimedRewards);\n        uint myDuration = now > bonusStartAt.add(BONUS_DURATION)\n            ? bonusStartAt.add(BONUS_DURATION).sub(myLastClaimedAt[target])\n            : now.sub(myLastClaimedAt[target]);\n        if (myDuration > MAX_CLAIM_DURATION) {\n            myDuration = MAX_CLAIM_DURATION;\n        }\n        uint rewards = remainingRewards\n            .mul(myDeposit[target])\n            .div(totalDeposit)\n            .mul(myDuration)\n            .div(MAX_CLAIM_DURATION);\n        return rewards;\n    }\n\n    function getRewards(address target) public view returns (uint) {\n        return myRewards[target].add(getIncrementalRewards(target));\n    }\n\n    modifier isWithdrawLocked() {\n        require(withdrawLocked, \"withdrawal not locked\");\n        _;\n    }\n\n    modifier isWithdrawNotLocked() {\n        require(!withdrawLocked, \"withdrawal locked\");\n        _;\n    }\n}\n",
  "sourcePath": "contracts/MintDrop.sol",
  "abi": [
    {
      "inputs": [
        {
          "internalType": "address",
          "name": "vETHAddress_",
          "type": "address"
        },
        {
          "internalType": "address",
          "name": "depositAddress_",
          "type": "address"
        },
        {
          "internalType": "uint256",
          "name": "bonusStartAt_",
          "type": "uint256"
        }
      ],
      "stateMutability": "nonpayable",
      "type": "constructor"
    },
    {
      "anonymous": false,
      "inputs": [
        {
          "indexed": true,
          "internalType": "address",
          "name": "sender",
          "type": "address"
        },
        {
          "indexed": false,
          "internalType": "string",
          "name": "bifrostAddress",
          "type": "string"
        }
      ],
      "name": "BindAddress",
      "type": "event"
    },
    {
      "anonymous": false,
      "inputs": [
        {
          "indexed": true,
          "internalType": "address",
          "name": "sender",
          "type": "address"
        },
        {
          "indexed": false,
          "internalType": "uint256",
          "name": "amount",
          "type": "uint256"
        },
        {
          "indexed": false,
          "internalType": "uint256",
          "name": "claimed",
          "type": "uint256"
        }
      ],
      "name": "Claimed",
      "type": "event"
    },
    {
      "anonymous": false,
      "inputs": [
        {
          "indexed": true,
          "internalType": "address",
          "name": "sender",
          "type": "address"
        },
        {
          "indexed": false,
          "internalType": "uint256",
          "name": "amount",
          "type": "uint256"
        }
      ],
      "name": "Deposit",
      "type": "event"
    },
    {
      "anonymous": false,
      "inputs": [
        {
          "indexed": false,
          "internalType": "bytes",
          "name": "little_endian_deposit_count",
          "type": "bytes"
        }
      ],
      "name": "NewValidator",
      "type": "event"
    },
    {
      "anonymous": false,
      "inputs": [
        {
          "indexed": true,
          "internalType": "address",
          "name": "previousOwner",
          "type": "address"
        },
        {
          "indexed": true,
          "internalType": "address",
          "name": "newOwner",
          "type": "address"
        }
      ],
      "name": "OwnershipTransferred",
      "type": "event"
    },
    {
      "anonymous": false,
      "inputs": [
        {
          "indexed": true,
          "internalType": "address",
          "name": "sender",
          "type": "address"
        },
        {
          "indexed": false,
          "internalType": "uint256",
          "name": "amount",
          "type": "uint256"
        }
      ],
      "name": "Withdrawal",
      "type": "event"
    },
    {
      "inputs": [],
      "name": "BONUS_DURATION",
      "outputs": [
        {
          "internalType": "uint256",
          "name": "",
          "type": "uint256"
        }
      ],
      "stateMutability": "view",
      "type": "function"
    },
    {
      "inputs": [],
      "name": "MAX_CLAIM_DURATION",
      "outputs": [
        {
          "internalType": "uint256",
          "name": "",
          "type": "uint256"
        }
      ],
      "stateMutability": "view",
      "type": "function"
    },
    {
      "inputs": [],
      "name": "TOTAL_BNC_REWARDS",
      "outputs": [
        {
          "internalType": "uint256",
          "name": "",
          "type": "uint256"
        }
      ],
      "stateMutability": "view",
      "type": "function"
    },
    {
      "inputs": [
        {
          "internalType": "address",
          "name": "",
          "type": "address"
        }
      ],
      "name": "bifrostAddress",
      "outputs": [
        {
          "internalType": "string",
          "name": "",
          "type": "string"
        }
      ],
      "stateMutability": "view",
      "type": "function"
    },
    {
      "inputs": [
        {
          "internalType": "string",
          "name": "bifrostAddress_",
          "type": "string"
        }
      ],
      "name": "bindBifrostAddress",
      "outputs": [],
      "stateMutability": "nonpayable",
      "type": "function"
    },
    {
      "inputs": [],
      "name": "bonusStartAt",
      "outputs": [
        {
          "internalType": "uint256",
          "name": "",
          "type": "uint256"
        }
      ],
      "stateMutability": "view",
      "type": "function"
    },
    {
      "inputs": [],
      "name": "claimRewards",
      "outputs": [],
      "stateMutability": "nonpayable",
      "type": "function"
    },
    {
      "inputs": [],
      "name": "claimedRewards",
      "outputs": [
        {
          "internalType": "uint256",
          "name": "",
          "type": "uint256"
        }
      ],
      "stateMutability": "view",
      "type": "function"
    },
    {
      "inputs": [],
      "name": "deposit",
      "outputs": [],
      "stateMutability": "payable",
      "type": "function"
    },
    {
      "inputs": [],
      "name": "depositAddress",
      "outputs": [
        {
          "internalType": "address",
          "name": "",
          "type": "address"
        }
      ],
      "stateMutability": "view",
      "type": "function"
    },
    {
      "inputs": [
        {
          "internalType": "address",
          "name": "target",
          "type": "address"
        }
      ],
      "name": "getIncrementalRewards",
      "outputs": [
        {
          "internalType": "uint256",
          "name": "",
          "type": "uint256"
        }
      ],
      "stateMutability": "view",
      "type": "function"
    },
    {
      "inputs": [
        {
          "internalType": "address",
          "name": "target",
          "type": "address"
        }
      ],
      "name": "getRewards",
      "outputs": [
        {
          "internalType": "uint256",
          "name": "",
          "type": "uint256"
        }
      ],
      "stateMutability": "view",
      "type": "function"
    },
    {
      "inputs": [],
      "name": "getTotalRewards",
      "outputs": [
        {
          "internalType": "uint256",
          "name": "",
          "type": "uint256"
        }
      ],
      "stateMutability": "view",
      "type": "function"
    },
    {
      "inputs": [
        {
          "internalType": "bytes",
          "name": "pubkey",
          "type": "bytes"
        },
        {
          "internalType": "bytes",
          "name": "withdrawal_credentials",
          "type": "bytes"
        },
        {
          "internalType": "bytes",
          "name": "signature",
          "type": "bytes"
        },
        {
          "internalType": "bytes32",
          "name": "deposit_data_root",
          "type": "bytes32"
        }
      ],
      "name": "lockForValidator",
      "outputs": [],
      "stateMutability": "nonpayable",
      "type": "function"
    },
    {
      "inputs": [],
      "name": "lockWithdraw",
      "outputs": [],
      "stateMutability": "nonpayable",
      "type": "function"
    },
    {
      "inputs": [
        {
          "internalType": "address",
          "name": "",
          "type": "address"
        }
      ],
      "name": "myDeposit",
      "outputs": [
        {
          "internalType": "uint256",
          "name": "",
          "type": "uint256"
        }
      ],
      "stateMutability": "view",
      "type": "function"
    },
    {
      "inputs": [
        {
          "internalType": "address",
          "name": "",
          "type": "address"
        }
      ],
      "name": "myLastClaimedAt",
      "outputs": [
        {
          "internalType": "uint256",
          "name": "",
          "type": "uint256"
        }
      ],
      "stateMutability": "view",
      "type": "function"
    },
    {
      "inputs": [
        {
          "internalType": "address",
          "name": "",
          "type": "address"
        }
      ],
      "name": "myRewards",
      "outputs": [
        {
          "internalType": "uint256",
          "name": "",
          "type": "uint256"
        }
      ],
      "stateMutability": "view",
      "type": "function"
    },
    {
      "inputs": [],
      "name": "owner",
      "outputs": [
        {
          "internalType": "address",
          "name": "",
          "type": "address"
        }
      ],
      "stateMutability": "view",
      "type": "function"
    },
    {
      "inputs": [],
      "name": "renounceOwnership",
      "outputs": [],
      "stateMutability": "nonpayable",
      "type": "function"
    },
    {
      "inputs": [],
      "name": "totalDeposit",
      "outputs": [
        {
          "internalType": "uint256",
          "name": "",
          "type": "uint256"
        }
      ],
      "stateMutability": "view",
      "type": "function"
    },
    {
      "inputs": [],
      "name": "totalLocked",
      "outputs": [
        {
          "internalType": "uint256",
          "name": "",
          "type": "uint256"
        }
      ],
      "stateMutability": "view",
      "type": "function"
    },
    {
      "inputs": [
        {
          "internalType": "address",
          "name": "newOwner",
          "type": "address"
        }
      ],
      "name": "transferOwnership",
      "outputs": [],
      "stateMutability": "nonpayable",
      "type": "function"
    },
    {
      "inputs": [],
      "name": "vETHAddress",
      "outputs": [
        {
          "internalType": "address",
          "name": "",
          "type": "address"
        }
      ],
      "stateMutability": "view",
      "type": "function"
    },
    {
      "inputs": [
        {
          "internalType": "uint256",
          "name": "amount",
          "type": "uint256"
        }
      ],
      "name": "withdraw",
      "outputs": [],
      "stateMutability": "nonpayable",
      "type": "function"
    },
    {
      "inputs": [],
      "name": "withdrawLocked",
      "outputs": [
        {
          "internalType": "bool",
          "name": "",
          "type": "bool"
        }
      ],
      "stateMutability": "view",
      "type": "function"
    }
  ],
  "bytecode": "0x608060405234801561001057600080fd5b506040516200276b3803806200276b8339818101604052606081101561003557600080fd5b81019080805190602001909291908051906020019092919080519060200190929190505050600061006a61019960201b60201c565b9050806000806101000a81548173ffffffffffffffffffffffffffffffffffffffff021916908373ffffffffffffffffffffffffffffffffffffffff1602179055508073ffffffffffffffffffffffffffffffffffffffff16600073ffffffffffffffffffffffffffffffffffffffff167f8be0079c531659141344cd1fd0a4f28419497f9722a3daafe3b4186f6b6457e060405160405180910390a35082600160006101000a81548173ffffffffffffffffffffffffffffffffffffffff021916908373ffffffffffffffffffffffffffffffffffffffff16021790555081600260006101000a81548173ffffffffffffffffffffffffffffffffffffffff021916908373ffffffffffffffffffffffffffffffffffffffff160217905550806003819055505050506101a1565b600033905090565b6125ba80620001b16000396000f3fe6080604052600436106101815760003560e01c80639472ee57116100d1578063d5a2313a1161008a578063f2fde38b11610064578063f2fde38b146108b4578063f6153ccd14610905578063fb94220614610930578063fe62dfea1461098757610181565b8063d5a2313a14610724578063e627f2db1461085e578063e653d5ad1461088957610181565b80639472ee57146105b6578063a013ad541461067e578063a425632f146106a9578063d0e30db0146106c0578063d135cc4b146106ca578063d2a98fe7146106f957610181565b806350b9e7411161013e578063797d8aeb11610118578063797d8aeb1461043057806379ee54f7146104955780638da5cb5b146104fa5780639200b04c1461055157610181565b806350b9e7411461038957806356891412146103ee578063715018a61461041957610181565b806320b9588c1461018657806322e9c08d146101eb57806328f833b7146102165780632e1a7d4d1461026d5780633104d750146102a8578063372500ab14610372575b600080fd5b34801561019257600080fd5b506101d5600480360360208110156101a957600080fd5b81019080803573ffffffffffffffffffffffffffffffffffffffff1690602001909291905050506109b2565b6040518082815260200191505060405180910390f35b3480156101f757600080fd5b506102006109ca565b6040518082815260200191505060405180910390f35b34801561022257600080fd5b5061022b6109d0565b604051808273ffffffffffffffffffffffffffffffffffffffff1673ffffffffffffffffffffffffffffffffffffffff16815260200191505060405180910390f35b34801561027957600080fd5b506102a66004803603602081101561029057600080fd5b81019080803590602001909291905050506109f6565b005b3480156102b457600080fd5b506102f7600480360360208110156102cb57600080fd5b81019080803573ffffffffffffffffffffffffffffffffffffffff169060200190929190505050610c8a565b6040518080602001828103825283818151815260200191508051906020019080838360005b8381101561033757808201518184015260208101905061031c565b50505050905090810190601f1680156103645780820380516001836020036101000a031916815260200191505b509250505060405180910390f35b34801561037e57600080fd5b50610387610d3a565b005b34801561039557600080fd5b506103d8600480360360208110156103ac57600080fd5b81019080803573ffffffffffffffffffffffffffffffffffffffff169060200190929190505050610ff9565b6040518082815260200191505060405180910390f35b3480156103fa57600080fd5b5061040361121d565b6040518082815260200191505060405180910390f35b34801561042557600080fd5b5061042e611223565b005b34801561043c57600080fd5b5061047f6004803603602081101561045357600080fd5b81019080803573ffffffffffffffffffffffffffffffffffffffff1690602001909291905050506113ab565b6040518082815260200191505060405180910390f35b3480156104a157600080fd5b506104e4600480360360208110156104b857600080fd5b81019080803573ffffffffffffffffffffffffffffffffffffffff1690602001909291905050506113c3565b6040518082815260200191505060405180910390f35b34801561050657600080fd5b5061050f611426565b604051808273ffffffffffffffffffffffffffffffffffffffff1673ffffffffffffffffffffffffffffffffffffffff16815260200191505060405180910390f35b34801561055d57600080fd5b506105a06004803603602081101561057457600080fd5b81019080803573ffffffffffffffffffffffffffffffffffffffff16906020019092919050505061144f565b6040518082815260200191505060405180910390f35b3480156105c257600080fd5b5061067c600480360360208110156105d957600080fd5b81019080803590602001906401000000008111156105f657600080fd5b82018360208201111561060857600080fd5b8035906020019184600183028401116401000000008311171561062a57600080fd5b91908080601f016020809104026020016040519081016040528093929190818152602001838380828437600081840152601f19601f820116905080830192505050505050509192919290505050611467565b005b34801561068a57600080fd5b50610693611571565b6040518082815260200191505060405180910390f35b3480156106b557600080fd5b506106be611578565b005b6106c86116e0565b005b3480156106d657600080fd5b506106df6118a9565b604051808215151515815260200191505060405180910390f35b34801561070557600080fd5b5061070e6118bc565b6040518082815260200191505060405180910390f35b34801561073057600080fd5b5061085c6004803603608081101561074757600080fd5b810190808035906020019064010000000081111561076457600080fd5b82018360208201111561077657600080fd5b8035906020019184600183028401116401000000008311171561079857600080fd5b9091929391929390803590602001906401000000008111156107b957600080fd5b8201836020820111156107cb57600080fd5b803590602001918460018302840111640100000000831117156107ed57600080fd5b90919293919293908035906020019064010000000081111561080e57600080fd5b82018360208201111561082057600080fd5b8035906020019184600183028401116401000000008311171561084257600080fd5b9091929391929390803590602001909291905050506118c2565b005b34801561086a57600080fd5b50610873611e95565b6040518082815260200191505060405180910390f35b34801561089557600080fd5b5061089e611f1a565b6040518082815260200191505060405180910390f35b3480156108c057600080fd5b50610903600480360360208110156108d757600080fd5b81019080803573ffffffffffffffffffffffffffffffffffffffff169060200190929190505050611f28565b005b34801561091157600080fd5b5061091a612135565b6040518082815260200191505060405180910390f35b34801561093c57600080fd5b5061094561213b565b604051808273ffffffffffffffffffffffffffffffffffffffff1673ffffffffffffffffffffffffffffffffffffffff16815260200191505060405180910390f35b34801561099357600080fd5b5061099c612161565b6040518082815260200191505060405180910390f35b60086020528060005260406000206000915090505481565b60065481565b600260009054906101000a900473ffffffffffffffffffffffffffffffffffffffff1681565b600260149054906101000a900460ff1615610a79576040517f08c379a00000000000000000000000000000000000000000000000000000000081526004018080602001828103825260118152602001807f7769746864726177616c206c6f636b656400000000000000000000000000000081525060200191505060405180910390fd5b610a81610d3a565b610ad381600760003373ffffffffffffffffffffffffffffffffffffffff1673ffffffffffffffffffffffffffffffffffffffff1681526020019081526020016000205461216890919063ffffffff16565b600760003373ffffffffffffffffffffffffffffffffffffffff1673ffffffffffffffffffffffffffffffffffffffff16815260200190815260200160002081905550610b2b8160055461216890919063ffffffff16565b600581905550600160009054906101000a900473ffffffffffffffffffffffffffffffffffffffff1673ffffffffffffffffffffffffffffffffffffffff16639dc29fac33836040518363ffffffff1660e01b8152600401808373ffffffffffffffffffffffffffffffffffffffff1673ffffffffffffffffffffffffffffffffffffffff16815260200182815260200192505050600060405180830381600087803b158015610bda57600080fd5b505af1158015610bee573d6000803e3d6000fd5b505050503373ffffffffffffffffffffffffffffffffffffffff166108fc829081150290604051600060405180830381858888f19350505050158015610c38573d6000803e3d6000fd5b503373ffffffffffffffffffffffffffffffffffffffff167f7fcf532c15f0a6db0bd6d0e038bea71d30d808c7d98cb3bf7268a95bf5081b65826040518082815260200191505060405180910390a250565b600a6020528060005260406000206000915090508054600181600116156101000203166002900480601f016020809104026020016040519081016040528092919081815260200182805460018160011615610100020316600290048015610d325780601f10610d0757610100808354040283529160200191610d32565b820191906000526020600020905b815481529060010190602001808311610d1557829003601f168201915b505050505081565b600354421015610dd8576000600960003373ffffffffffffffffffffffffffffffffffffffff1673ffffffffffffffffffffffffffffffffffffffff168152602001908152602001600020541415610dd357600354600960003373ffffffffffffffffffffffffffffffffffffffff1673ffffffffffffffffffffffffffffffffffffffff168152602001908152602001600020819055505b610ff7565b6000600960003373ffffffffffffffffffffffffffffffffffffffff1673ffffffffffffffffffffffffffffffffffffffff168152602001908152602001600020541115610f76576000610e2b33610ff9565b9050610e7f81600860003373ffffffffffffffffffffffffffffffffffffffff1673ffffffffffffffffffffffffffffffffffffffff168152602001908152602001600020546121b290919063ffffffff16565b600860003373ffffffffffffffffffffffffffffffffffffffff1673ffffffffffffffffffffffffffffffffffffffff16815260200190815260200160002081905550610ed7816006546121b290919063ffffffff16565b6006819055503373ffffffffffffffffffffffffffffffffffffffff167f987d620f307ff6b94d58743cb7a7509f24071586a77759b77c2d4e29f75a2f9a600860003373ffffffffffffffffffffffffffffffffffffffff1673ffffffffffffffffffffffffffffffffffffffff16815260200190815260200160002054600654604051808381526020018281526020019250505060405180910390a2505b610f8e622a30006003546121b290919063ffffffff16565b4211610f9a5742610fb3565b610fb2622a30006003546121b290919063ffffffff16565b5b600960003373ffffffffffffffffffffffffffffffffffffffff1673ffffffffffffffffffffffffffffffffffffffff168152602001908152602001600020819055505b565b600080611004611e95565b9050600354600960008573ffffffffffffffffffffffffffffffffffffffff1673ffffffffffffffffffffffffffffffffffffffff16815260200190815260200160002054108061105757506000600554145b806110625750600081145b15611071576000915050611218565b60006110886006548361216890919063ffffffff16565b905060006110a4622a30006003546121b290919063ffffffff16565b4211611101576110fc600960008773ffffffffffffffffffffffffffffffffffffffff1673ffffffffffffffffffffffffffffffffffffffff168152602001908152602001600020544261216890919063ffffffff16565b61116b565b61116a600960008773ffffffffffffffffffffffffffffffffffffffff1673ffffffffffffffffffffffffffffffffffffffff1681526020019081526020016000205461115c622a30006003546121b290919063ffffffff16565b61216890919063ffffffff16565b5b9050620a8c0081111561117f57620a8c0090505b600061120e620a8c00611200846111f26005546111e4600760008e73ffffffffffffffffffffffffffffffffffffffff1673ffffffffffffffffffffffffffffffffffffffff168152602001908152602001600020548a61223a90919063ffffffff16565b6122c090919063ffffffff16565b61223a90919063ffffffff16565b6122c090919063ffffffff16565b9050809450505050505b919050565b60045481565b61122b61230a565b73ffffffffffffffffffffffffffffffffffffffff166000809054906101000a900473ffffffffffffffffffffffffffffffffffffffff1673ffffffffffffffffffffffffffffffffffffffff16146112ec576040517f08c379a00000000000000000000000000000000000000000000000000000000081526004018080602001828103825260208152602001807f4f776e61626c653a2063616c6c6572206973206e6f7420746865206f776e657281525060200191505060405180910390fd5b600073ffffffffffffffffffffffffffffffffffffffff166000809054906101000a900473ffffffffffffffffffffffffffffffffffffffff1673ffffffffffffffffffffffffffffffffffffffff167f8be0079c531659141344cd1fd0a4f28419497f9722a3daafe3b4186f6b6457e060405160405180910390a360008060006101000a81548173ffffffffffffffffffffffffffffffffffffffff021916908373ffffffffffffffffffffffffffffffffffffffff160217905550565b60096020528060005260406000206000915090505481565b600061141f6113d183610ff9565b600860008573ffffffffffffffffffffffffffffffffffffffff1673ffffffffffffffffffffffffffffffffffffffff168152602001908152602001600020546121b290919063ffffffff16565b9050919050565b60008060009054906101000a900473ffffffffffffffffffffffffffffffffffffffff16905090565b60076020528060005260406000206000915090505481565b80600a60003373ffffffffffffffffffffffffffffffffffffffff1673ffffffffffffffffffffffffffffffffffffffff16815260200190815260200160002090805190602001906114ba929190612498565b503373ffffffffffffffffffffffffffffffffffffffff167f65c5fd4c1bff4ac202c0d32945c61eb69a7c9c44948368fc57500d4af26645db826040518080602001828103825283818151815260200191508051906020019080838360005b83811015611534578082015181840152602081019050611519565b50505050905090810190601f1680156115615780820380516001836020036101000a031916815260200191505b509250505060405180910390a250565b622a300081565b61158061230a565b73ffffffffffffffffffffffffffffffffffffffff166000809054906101000a900473ffffffffffffffffffffffffffffffffffffffff1673ffffffffffffffffffffffffffffffffffffffff1614611641576040517f08c379a00000000000000000000000000000000000000000000000000000000081526004018080602001828103825260208152602001807f4f776e61626c653a2063616c6c6572206973206e6f7420746865206f776e657281525060200191505060405180910390fd5b6001600260146101000a81548160ff021916908315150217905550600160009054906101000a900473ffffffffffffffffffffffffffffffffffffffff1673ffffffffffffffffffffffffffffffffffffffff16633f4ba83a6040518163ffffffff1660e01b8152600401600060405180830381600087803b1580156116c657600080fd5b505af11580156116da573d6000803e3d6000fd5b50505050565b6116e8610d3a565b61173a34600760003373ffffffffffffffffffffffffffffffffffffffff1673ffffffffffffffffffffffffffffffffffffffff168152602001908152602001600020546121b290919063ffffffff16565b600760003373ffffffffffffffffffffffffffffffffffffffff1673ffffffffffffffffffffffffffffffffffffffff16815260200190815260200160002081905550611792346005546121b290919063ffffffff16565b600581905550600160009054906101000a900473ffffffffffffffffffffffffffffffffffffffff1673ffffffffffffffffffffffffffffffffffffffff166340c10f1933346040518363ffffffff1660e01b8152600401808373ffffffffffffffffffffffffffffffffffffffff1673ffffffffffffffffffffffffffffffffffffffff16815260200182815260200192505050600060405180830381600087803b15801561184157600080fd5b505af1158015611855573d6000803e3d6000fd5b505050503373ffffffffffffffffffffffffffffffffffffffff167fe1fffcc4923d04b559f4d29a8bfc6cda04eb5b0d3c460751c2402c5c5cc9109c346040518082815260200191505060405180910390a2565b600260149054906101000a900460ff1681565b60035481565b6118ca61230a565b73ffffffffffffffffffffffffffffffffffffffff166000809054906101000a900473ffffffffffffffffffffffffffffffffffffffff1673ffffffffffffffffffffffffffffffffffffffff161461198b576040517f08c379a00000000000000000000000000000000000000000000000000000000081526004018080602001828103825260208152602001807f4f776e61626c653a2063616c6c6572206973206e6f7420746865206f776e657281525060200191505060405180910390fd5b600260149054906101000a900460ff16611a0d576040517f08c379a00000000000000000000000000000000000000000000000000000000081526004018080602001828103825260158152602001807f7769746864726177616c206e6f74206c6f636b6564000000000000000000000081525060200191505060405180910390fd5b60006801bc16d674ec8000009050803073ffffffffffffffffffffffffffffffffffffffff16311015611aa8576040517f08c379a00000000000000000000000000000000000000000000000000000000081526004018080602001828103825260148152602001807f696e73756666696369656e742062616c616e636500000000000000000000000081525060200191505060405180910390fd5b600554611ad76004543073ffffffffffffffffffffffffffffffffffffffff16316121b290919063ffffffff16565b14611b4a576040517f08c379a000000000000000000000000000000000000000000000000000000000815260040180806020018281038252600f8152602001807f696e76616c69642062616c616e6365000000000000000000000000000000000081525060200191505060405180910390fd5b611b5f816004546121b290919063ffffffff16565b600481905550600260009054906101000a900473ffffffffffffffffffffffffffffffffffffffff1673ffffffffffffffffffffffffffffffffffffffff166322895118828a8a8a8a8a8a8a6040518963ffffffff1660e01b81526004018080602001806020018060200185815260200184810384528b8b82818152602001925080828437600081840152601f19601f8201169050808301925050508481038352898982818152602001925080828437600081840152601f19601f8201169050808301925050508481038252878782818152602001925080828437600081840152601f19601f8201169050808301925050509a50505050505050505050506000604051808303818588803b158015611c7657600080fd5b505af1158015611c8a573d6000803e3d6000fd5b50505050507f9601e5af6d2ed7d709df1e0648762f952988a5d05144ffb9b508f7f456d797ce600260009054906101000a900473ffffffffffffffffffffffffffffffffffffffff1673ffffffffffffffffffffffffffffffffffffffff1663621fd1306040518163ffffffff1660e01b815260040160006040518083038186803b158015611d1857600080fd5b505afa158015611d2c573d6000803e3d6000fd5b505050506040513d6000823e3d601f19601f820116820180604052506020811015611d5657600080fd5b8101908080516040519392919084640100000000821115611d7657600080fd5b83820191506020820185811115611d8c57600080fd5b8251866001820283011164010000000082111715611da957600080fd5b8083526020830192505050908051906020019080838360005b83811015611ddd578082015181840152602081019050611dc2565b50505050905090810190601f168015611e0a5780820380516001836020036101000a031916815260200191505b506040525050506040518080602001828103825283818151815260200191508051906020019080838360005b83811015611e51578082015181840152602081019050611e36565b50505050905090810190601f168015611e7e5780820380516001836020036101000a031916815260200191505b509250505060405180910390a15050505050505050565b6000600354421015611eaa5760009050611f17565b6000611ec16003544261216890919063ffffffff16565b9050622a3000811115611ee15769152d02c7e14af6800000915050611f17565b611f13622a3000611f058369152d02c7e14af680000061223a90919063ffffffff16565b6122c090919063ffffffff16565b9150505b90565b69152d02c7e14af680000081565b611f3061230a565b73ffffffffffffffffffffffffffffffffffffffff166000809054906101000a900473ffffffffffffffffffffffffffffffffffffffff1673ffffffffffffffffffffffffffffffffffffffff1614611ff1576040517f08c379a00000000000000000000000000000000000000000000000000000000081526004018080602001828103825260208152602001807f4f776e61626c653a2063616c6c6572206973206e6f7420746865206f776e657281525060200191505060405180910390fd5b600073ffffffffffffffffffffffffffffffffffffffff168173ffffffffffffffffffffffffffffffffffffffff161415612077576040517f08c379a000000000000000000000000000000000000000000000000000000000815260040180806020018281038252602681526020018061253e6026913960400191505060405180910390fd5b8073ffffffffffffffffffffffffffffffffffffffff166000809054906101000a900473ffffffffffffffffffffffffffffffffffffffff1673ffffffffffffffffffffffffffffffffffffffff167f8be0079c531659141344cd1fd0a4f28419497f9722a3daafe3b4186f6b6457e060405160405180910390a3806000806101000a81548173ffffffffffffffffffffffffffffffffffffffff021916908373ffffffffffffffffffffffffffffffffffffffff16021790555050565b60055481565b600160009054906101000a900473ffffffffffffffffffffffffffffffffffffffff1681565b620a8c0081565b60006121aa83836040518060400160405280601e81526020017f536166654d6174683a207375627472616374696f6e206f766572666c6f770000815250612312565b905092915050565b600080828401905083811015612230576040517f08c379a000000000000000000000000000000000000000000000000000000000815260040180806020018281038252601b8152602001807f536166654d6174683a206164646974696f6e206f766572666c6f77000000000081525060200191505060405180910390fd5b8091505092915050565b60008083141561224d57600090506122ba565b600082840290508284828161225e57fe5b04146122b5576040517f08c379a00000000000000000000000000000000000000000000000000000000081526004018080602001828103825260218152602001806125646021913960400191505060405180910390fd5b809150505b92915050565b600061230283836040518060400160405280601a81526020017f536166654d6174683a206469766973696f6e206279207a65726f0000000000008152506123d2565b905092915050565b600033905090565b60008383111582906123bf576040517f08c379a00000000000000000000000000000000000000000000000000000000081526004018080602001828103825283818151815260200191508051906020019080838360005b83811015612384578082015181840152602081019050612369565b50505050905090810190601f1680156123b15780820380516001836020036101000a031916815260200191505b509250505060405180910390fd5b5060008385039050809150509392505050565b6000808311829061247e576040517f08c379a00000000000000000000000000000000000000000000000000000000081526004018080602001828103825283818151815260200191508051906020019080838360005b83811015612443578082015181840152602081019050612428565b50505050905090810190601f1680156124705780820380516001836020036101000a031916815260200191505b509250505060405180910390fd5b50600083858161248a57fe5b049050809150509392505050565b828054600181600116156101000203166002900490600052602060002090601f016020900481019282601f106124d957805160ff1916838001178555612507565b82800160010185558215612507579182015b828111156125065782518255916020019190600101906124eb565b5b5090506125149190612518565b5090565b61253a91905b8082111561253657600081600090555060010161251e565b5090565b9056fe4f776e61626c653a206e6577206f776e657220697320746865207a65726f2061646472657373536166654d6174683a206d756c7469706c69636174696f6e206f766572666c6f77a264697066735822122074ede21950a09d081d6218e4bdce7252027291fd5d14a7a2e1d67cd3a1bc512264736f6c634300060b0033",
  "compiler": {
    "name": "solc",
    "version": "0.6.11+commit.5ef660b1.Emscripten.clang",
    "optimizer": {
      "enabled": false,
      "runs": 200
    },
    "evmVersion": "petersburg"
  }
}