{
  "fileName": "MintDrop.sol",
  "contractName": "MintDrop",
  "source": "//  =====================================================================================\n//\n//   ___ __ __    ________  ___   __   _________   ______  ______   ______  ______\n//  /__//_//_/\\  /_______/\\/__/\\ /__/\\/________/\\ /_____/\\/_____/\\ /_____/\\/_____/\\\n//  \\::\\| \\| \\ \\ \\__.::._\\/\\::\\_\\\\  \\ \\__.::.__\\/ \\:::_ \\ \\:::_ \\ \\\\:::_ \\ \\:::_ \\ \\\n//   \\:.      \\ \\   \\::\\ \\  \\:. `-\\  \\ \\ \\::\\ \\    \\:\\ \\ \\ \\:(_) ) )\\:\\ \\ \\ \\:(_) \\ \\\n//    \\:.\\-/\\  \\ \\  _\\::\\ \\__\\:. _    \\ \\ \\::\\ \\    \\:\\ \\ \\ \\: __ `\\ \\:\\ \\ \\ \\: ___\\/\n//     \\. \\  \\  \\ \\/__\\::\\__/\\\\. \\`-\\  \\ \\ \\::\\ \\    \\:\\/.:| \\ \\ `\\ \\ \\:\\_\\ \\ \\ \\ \\\n//      \\__\\/ \\__\\/\\________\\/ \\__\\/ \\__\\/  \\__\\/     \\____/_/\\_\\/ \\_\\/\\_____\\/\\_\\/\n//\n//  =====================================================================================\n\n// SPDX-License-Identifier: MIT\n\npragma solidity 0.6.11;\n\nimport \"@openzeppelin/contracts/math/Math.sol\";\nimport \"@openzeppelin/contracts/math/SafeMath.sol\";\nimport \"@openzeppelin/contracts/token/ERC20/IERC20.sol\";\nimport \"@openzeppelin/contracts/access/Ownable.sol\";\n\nimport \"./DepositContract.sol\";\nimport \"./interfaces/IVETH.sol\";\n\ncontract MintDrop is Ownable {\n    using SafeMath for uint;\n\n    /* ========== CONSTANTS ========== */\n\n    uint constant public BONUS_DURATION = 64 days;\n    uint constant public MAX_CLAIM_DURATION = 7 days;\n    uint constant public TOTAL_BNC_REWARDS = 120000 ether;\n\n    /* ========== STATE VARIABLES ========== */\n\n    // address of vETH\n    address public vETHAddress;\n    // address of Ethereum 2.0 Deposit Contract\n    address public depositAddress;\n    // a flag to control whether the withdraw function is locked\n    bool public withdrawLocked;\n    // a timestamp when the bonus activity initialized\n    uint public bonusStartAt;\n    // total amount of ETH deposited to Ethereum 2.0 Deposit Contract\n    uint public totalLocked;\n    // total amount of ETH deposited in this contract\n    uint public totalDeposit;\n    // total claimed amount of BNC rewards\n    uint public claimedRewards;\n    // user address => amount of ETH deposited by this user in this contract\n    mapping(address => uint) public myDeposit;\n    // user address => amount of BNC rewards that will rewarded to this user\n    mapping(address => uint) public myRewards;\n    // user address => a timestamp that this user claimed rewards\n    mapping(address => uint) public myLastClaimedAt;\n    // user address => the address of this user which in ss58 format on Bifrost Network\n    mapping(address => string) public bifrostAddress;\n\n    /* ========== EVENTS ========== */\n\n    event Deposit(address indexed sender, uint amount);\n    event Withdrawal(address indexed sender, uint amount);\n    event Claimed(address indexed sender, uint amount, uint claimed);\n    event NewValidator(bytes little_endian_deposit_count);\n    event BindAddress(address indexed sender, string bifrostAddress);\n\n    /* ========== CONSTRUCTOR ========== */\n\n    constructor(address vETHAddress_, address depositAddress_, uint bonusStartAt_) public Ownable() {\n        vETHAddress = vETHAddress_;\n        depositAddress = depositAddress_;\n        bonusStartAt = bonusStartAt_;\n    }\n\n    /* ========== MUTATIVE FUNCTIONS ========== */\n\n    function deposit() external payable {\n        claimRewards();\n        myDeposit[msg.sender] = myDeposit[msg.sender].add(msg.value);\n        totalDeposit = totalDeposit.add(msg.value);\n        IVETH(vETHAddress).mint(msg.sender, msg.value);\n        emit Deposit(msg.sender, msg.value);\n    }\n\n    function withdraw(uint amount) external isWithdrawNotLocked {\n        claimRewards();\n        myDeposit[msg.sender] = myDeposit[msg.sender].sub(amount);\n        totalDeposit = totalDeposit.sub(amount);\n        IVETH(vETHAddress).burn(msg.sender, amount);\n        msg.sender.transfer(amount);\n        emit Withdrawal(msg.sender, amount);\n    }\n\n    function claimRewards() public {\n        // claim must start from bonusStartAt\n        if (now < bonusStartAt) {\n            if (myLastClaimedAt[msg.sender] == 0) {\n                myLastClaimedAt[msg.sender] = bonusStartAt;\n            }\n            return;\n        }\n        if (myLastClaimedAt[msg.sender] > 0) {\n            uint rewards = getIncrementalRewards(msg.sender);\n            myRewards[msg.sender] = myRewards[msg.sender].add(rewards);\n            claimedRewards = claimedRewards.add(rewards);\n            emit Claimed(msg.sender, myRewards[msg.sender], claimedRewards);\n        }\n        myLastClaimedAt[msg.sender] = now > bonusStartAt.add(BONUS_DURATION)\n            ? bonusStartAt.add(BONUS_DURATION)\n            : now;\n    }\n\n    function lockForValidator(\n        bytes calldata pubkey,\n        bytes calldata withdrawal_credentials,\n        bytes calldata signature,\n        bytes32 deposit_data_root\n    ) external onlyOwner isWithdrawLocked {\n        uint amount = 32 ether;\n        require(address(this).balance >= amount, \"insufficient balance\");\n        require(address(this).balance.add(totalLocked) == totalDeposit, \"invalid balance\");\n        totalLocked = totalLocked.add(amount);\n        IDepositContract(depositAddress).deposit{value: amount}(\n            pubkey,\n            withdrawal_credentials,\n            signature,\n            deposit_data_root\n        );\n        emit NewValidator(IDepositContract(depositAddress).get_deposit_count());\n    }\n\n    function bindBifrostAddress(string memory bifrostAddress_) external {\n        bifrostAddress[msg.sender] = bifrostAddress_;\n        emit BindAddress(msg.sender, bifrostAddress_);\n    }\n\n    function lockWithdraw() external onlyOwner {\n        withdrawLocked = true;\n    }\n\n    function unlockWithdraw() external onlyOwner {\n        withdrawLocked = false;\n    }\n\n    /* ========== VIEWS ========== */\n\n    function getTotalRewards() public view returns (uint) {\n        if (now < bonusStartAt) {\n            return 0;\n        }\n        uint duration = now.sub(bonusStartAt);\n        if (duration > BONUS_DURATION) {\n            return TOTAL_BNC_REWARDS;\n        }\n        return TOTAL_BNC_REWARDS.mul(duration).div(BONUS_DURATION);\n    }\n\n    function getIncrementalRewards(address target) public view returns (uint) {\n        uint totalRewards = getTotalRewards();\n        if (\n            myLastClaimedAt[target] <= bonusStartAt ||\n            totalDeposit == 0 ||\n            totalRewards == 0\n        ) {\n            return 0;\n        }\n        uint remainingRewards = totalRewards.sub(claimedRewards);\n        uint myDuration = now > bonusStartAt.add(BONUS_DURATION)\n            ? bonusStartAt.add(BONUS_DURATION).sub(myLastClaimedAt[target])\n            : now.sub(myLastClaimedAt[target]);\n        if (myDuration > MAX_CLAIM_DURATION) {\n            myDuration = MAX_CLAIM_DURATION;\n        }\n        uint rewards = remainingRewards\n            .mul(myDeposit[target])\n            .div(totalDeposit)\n            .mul(myDuration)\n            .div(MAX_CLAIM_DURATION);\n        return rewards;\n    }\n\n    function getRewards(address target) public view returns (uint) {\n        return myRewards[target].add(getIncrementalRewards(target));\n    }\n\n    modifier isWithdrawLocked() {\n        require(withdrawLocked, \"withdrawal not locked\");\n        _;\n    }\n\n    modifier isWithdrawNotLocked() {\n        require(!withdrawLocked, \"withdrawal locked\");\n        _;\n    }\n}\n",
  "sourcePath": "contracts/MintDrop.sol",
  "abi": [
    {
      "inputs": [
        {
          "internalType": "address",
          "name": "vETHAddress_",
          "type": "address"
        },
        {
          "internalType": "address",
          "name": "depositAddress_",
          "type": "address"
        },
        {
          "internalType": "uint256",
          "name": "bonusStartAt_",
          "type": "uint256"
        }
      ],
      "stateMutability": "nonpayable",
      "type": "constructor"
    },
    {
      "anonymous": false,
      "inputs": [
        {
          "indexed": true,
          "internalType": "address",
          "name": "sender",
          "type": "address"
        },
        {
          "indexed": false,
          "internalType": "string",
          "name": "bifrostAddress",
          "type": "string"
        }
      ],
      "name": "BindAddress",
      "type": "event"
    },
    {
      "anonymous": false,
      "inputs": [
        {
          "indexed": true,
          "internalType": "address",
          "name": "sender",
          "type": "address"
        },
        {
          "indexed": false,
          "internalType": "uint256",
          "name": "amount",
          "type": "uint256"
        },
        {
          "indexed": false,
          "internalType": "uint256",
          "name": "claimed",
          "type": "uint256"
        }
      ],
      "name": "Claimed",
      "type": "event"
    },
    {
      "anonymous": false,
      "inputs": [
        {
          "indexed": true,
          "internalType": "address",
          "name": "sender",
          "type": "address"
        },
        {
          "indexed": false,
          "internalType": "uint256",
          "name": "amount",
          "type": "uint256"
        }
      ],
      "name": "Deposit",
      "type": "event"
    },
    {
      "anonymous": false,
      "inputs": [
        {
          "indexed": false,
          "internalType": "bytes",
          "name": "little_endian_deposit_count",
          "type": "bytes"
        }
      ],
      "name": "NewValidator",
      "type": "event"
    },
    {
      "anonymous": false,
      "inputs": [
        {
          "indexed": true,
          "internalType": "address",
          "name": "previousOwner",
          "type": "address"
        },
        {
          "indexed": true,
          "internalType": "address",
          "name": "newOwner",
          "type": "address"
        }
      ],
      "name": "OwnershipTransferred",
      "type": "event"
    },
    {
      "anonymous": false,
      "inputs": [
        {
          "indexed": true,
          "internalType": "address",
          "name": "sender",
          "type": "address"
        },
        {
          "indexed": false,
          "internalType": "uint256",
          "name": "amount",
          "type": "uint256"
        }
      ],
      "name": "Withdrawal",
      "type": "event"
    },
    {
      "inputs": [],
      "name": "BONUS_DURATION",
      "outputs": [
        {
          "internalType": "uint256",
          "name": "",
          "type": "uint256"
        }
      ],
      "stateMutability": "view",
      "type": "function"
    },
    {
      "inputs": [],
      "name": "MAX_CLAIM_DURATION",
      "outputs": [
        {
          "internalType": "uint256",
          "name": "",
          "type": "uint256"
        }
      ],
      "stateMutability": "view",
      "type": "function"
    },
    {
      "inputs": [],
      "name": "TOTAL_BNC_REWARDS",
      "outputs": [
        {
          "internalType": "uint256",
          "name": "",
          "type": "uint256"
        }
      ],
      "stateMutability": "view",
      "type": "function"
    },
    {
      "inputs": [
        {
          "internalType": "address",
          "name": "",
          "type": "address"
        }
      ],
      "name": "bifrostAddress",
      "outputs": [
        {
          "internalType": "string",
          "name": "",
          "type": "string"
        }
      ],
      "stateMutability": "view",
      "type": "function"
    },
    {
      "inputs": [
        {
          "internalType": "string",
          "name": "bifrostAddress_",
          "type": "string"
        }
      ],
      "name": "bindBifrostAddress",
      "outputs": [],
      "stateMutability": "nonpayable",
      "type": "function"
    },
    {
      "inputs": [],
      "name": "bonusStartAt",
      "outputs": [
        {
          "internalType": "uint256",
          "name": "",
          "type": "uint256"
        }
      ],
      "stateMutability": "view",
      "type": "function"
    },
    {
      "inputs": [],
      "name": "claimRewards",
      "outputs": [],
      "stateMutability": "nonpayable",
      "type": "function"
    },
    {
      "inputs": [],
      "name": "claimedRewards",
      "outputs": [
        {
          "internalType": "uint256",
          "name": "",
          "type": "uint256"
        }
      ],
      "stateMutability": "view",
      "type": "function"
    },
    {
      "inputs": [],
      "name": "deposit",
      "outputs": [],
      "stateMutability": "payable",
      "type": "function"
    },
    {
      "inputs": [],
      "name": "depositAddress",
      "outputs": [
        {
          "internalType": "address",
          "name": "",
          "type": "address"
        }
      ],
      "stateMutability": "view",
      "type": "function"
    },
    {
      "inputs": [
        {
          "internalType": "address",
          "name": "target",
          "type": "address"
        }
      ],
      "name": "getIncrementalRewards",
      "outputs": [
        {
          "internalType": "uint256",
          "name": "",
          "type": "uint256"
        }
      ],
      "stateMutability": "view",
      "type": "function"
    },
    {
      "inputs": [
        {
          "internalType": "address",
          "name": "target",
          "type": "address"
        }
      ],
      "name": "getRewards",
      "outputs": [
        {
          "internalType": "uint256",
          "name": "",
          "type": "uint256"
        }
      ],
      "stateMutability": "view",
      "type": "function"
    },
    {
      "inputs": [],
      "name": "getTotalRewards",
      "outputs": [
        {
          "internalType": "uint256",
          "name": "",
          "type": "uint256"
        }
      ],
      "stateMutability": "view",
      "type": "function"
    },
    {
      "inputs": [
        {
          "internalType": "bytes",
          "name": "pubkey",
          "type": "bytes"
        },
        {
          "internalType": "bytes",
          "name": "withdrawal_credentials",
          "type": "bytes"
        },
        {
          "internalType": "bytes",
          "name": "signature",
          "type": "bytes"
        },
        {
          "internalType": "bytes32",
          "name": "deposit_data_root",
          "type": "bytes32"
        }
      ],
      "name": "lockForValidator",
      "outputs": [],
      "stateMutability": "nonpayable",
      "type": "function"
    },
    {
      "inputs": [],
      "name": "lockWithdraw",
      "outputs": [],
      "stateMutability": "nonpayable",
      "type": "function"
    },
    {
      "inputs": [
        {
          "internalType": "address",
          "name": "",
          "type": "address"
        }
      ],
      "name": "myDeposit",
      "outputs": [
        {
          "internalType": "uint256",
          "name": "",
          "type": "uint256"
        }
      ],
      "stateMutability": "view",
      "type": "function"
    },
    {
      "inputs": [
        {
          "internalType": "address",
          "name": "",
          "type": "address"
        }
      ],
      "name": "myLastClaimedAt",
      "outputs": [
        {
          "internalType": "uint256",
          "name": "",
          "type": "uint256"
        }
      ],
      "stateMutability": "view",
      "type": "function"
    },
    {
      "inputs": [
        {
          "internalType": "address",
          "name": "",
          "type": "address"
        }
      ],
      "name": "myRewards",
      "outputs": [
        {
          "internalType": "uint256",
          "name": "",
          "type": "uint256"
        }
      ],
      "stateMutability": "view",
      "type": "function"
    },
    {
      "inputs": [],
      "name": "owner",
      "outputs": [
        {
          "internalType": "address",
          "name": "",
          "type": "address"
        }
      ],
      "stateMutability": "view",
      "type": "function"
    },
    {
      "inputs": [],
      "name": "renounceOwnership",
      "outputs": [],
      "stateMutability": "nonpayable",
      "type": "function"
    },
    {
      "inputs": [],
      "name": "totalDeposit",
      "outputs": [
        {
          "internalType": "uint256",
          "name": "",
          "type": "uint256"
        }
      ],
      "stateMutability": "view",
      "type": "function"
    },
    {
      "inputs": [],
      "name": "totalLocked",
      "outputs": [
        {
          "internalType": "uint256",
          "name": "",
          "type": "uint256"
        }
      ],
      "stateMutability": "view",
      "type": "function"
    },
    {
      "inputs": [
        {
          "internalType": "address",
          "name": "newOwner",
          "type": "address"
        }
      ],
      "name": "transferOwnership",
      "outputs": [],
      "stateMutability": "nonpayable",
      "type": "function"
    },
    {
      "inputs": [],
      "name": "unlockWithdraw",
      "outputs": [],
      "stateMutability": "nonpayable",
      "type": "function"
    },
    {
      "inputs": [],
      "name": "vETHAddress",
      "outputs": [
        {
          "internalType": "address",
          "name": "",
          "type": "address"
        }
      ],
      "stateMutability": "view",
      "type": "function"
    },
    {
      "inputs": [
        {
          "internalType": "uint256",
          "name": "amount",
          "type": "uint256"
        }
      ],
      "name": "withdraw",
      "outputs": [],
      "stateMutability": "nonpayable",
      "type": "function"
    },
    {
      "inputs": [],
      "name": "withdrawLocked",
      "outputs": [
        {
          "internalType": "bool",
          "name": "",
          "type": "bool"
        }
      ],
      "stateMutability": "view",
      "type": "function"
    }
  ],
  "bytecode": "0x608060405234801561001057600080fd5b5060405162002802380380620028028339818101604052606081101561003557600080fd5b81019080805190602001909291908051906020019092919080519060200190929190505050600061006a61019960201b60201c565b9050806000806101000a81548173ffffffffffffffffffffffffffffffffffffffff021916908373ffffffffffffffffffffffffffffffffffffffff1602179055508073ffffffffffffffffffffffffffffffffffffffff16600073ffffffffffffffffffffffffffffffffffffffff167f8be0079c531659141344cd1fd0a4f28419497f9722a3daafe3b4186f6b6457e060405160405180910390a35082600160006101000a81548173ffffffffffffffffffffffffffffffffffffffff021916908373ffffffffffffffffffffffffffffffffffffffff16021790555081600260006101000a81548173ffffffffffffffffffffffffffffffffffffffff021916908373ffffffffffffffffffffffffffffffffffffffff160217905550806003819055505050506101a1565b600033905090565b61265180620001b16000396000f3fe60806040526004361061019c5760003560e01c80639472ee57116100ec578063d5a2313a1161008a578063f2fde38b11610064578063f2fde38b146108e6578063f6153ccd14610937578063fb94220614610962578063fe62dfea146109b95761019c565b8063d5a2313a14610756578063e627f2db14610890578063e653d5ad146108bb5761019c565b8063b31dbd34116100c6578063b31dbd34146106db578063d0e30db0146106f2578063d135cc4b146106fc578063d2a98fe71461072b5761019c565b80639472ee57146105d1578063a013ad5414610699578063a425632f146106c45761019c565b806350b9e74111610159578063797d8aeb11610133578063797d8aeb1461044b57806379ee54f7146104b05780638da5cb5b146105155780639200b04c1461056c5761019c565b806350b9e741146103a45780635689141214610409578063715018a6146104345761019c565b806320b9588c146101a157806322e9c08d1461020657806328f833b7146102315780632e1a7d4d146102885780633104d750146102c3578063372500ab1461038d575b600080fd5b3480156101ad57600080fd5b506101f0600480360360208110156101c457600080fd5b81019080803573ffffffffffffffffffffffffffffffffffffffff1690602001909291905050506109e4565b6040518082815260200191505060405180910390f35b34801561021257600080fd5b5061021b6109fc565b6040518082815260200191505060405180910390f35b34801561023d57600080fd5b50610246610a02565b604051808273ffffffffffffffffffffffffffffffffffffffff1673ffffffffffffffffffffffffffffffffffffffff16815260200191505060405180910390f35b34801561029457600080fd5b506102c1600480360360208110156102ab57600080fd5b8101908080359060200190929190505050610a28565b005b3480156102cf57600080fd5b50610312600480360360208110156102e657600080fd5b81019080803573ffffffffffffffffffffffffffffffffffffffff169060200190929190505050610cbc565b6040518080602001828103825283818151815260200191508051906020019080838360005b83811015610352578082015181840152602081019050610337565b50505050905090810190601f16801561037f5780820380516001836020036101000a031916815260200191505b509250505060405180910390f35b34801561039957600080fd5b506103a2610d6c565b005b3480156103b057600080fd5b506103f3600480360360208110156103c757600080fd5b81019080803573ffffffffffffffffffffffffffffffffffffffff16906020019092919050505061102b565b6040518082815260200191505060405180910390f35b34801561041557600080fd5b5061041e611250565b6040518082815260200191505060405180910390f35b34801561044057600080fd5b50610449611256565b005b34801561045757600080fd5b5061049a6004803603602081101561046e57600080fd5b81019080803573ffffffffffffffffffffffffffffffffffffffff1690602001909291905050506113de565b6040518082815260200191505060405180910390f35b3480156104bc57600080fd5b506104ff600480360360208110156104d357600080fd5b81019080803573ffffffffffffffffffffffffffffffffffffffff1690602001909291905050506113f6565b6040518082815260200191505060405180910390f35b34801561052157600080fd5b5061052a611459565b604051808273ffffffffffffffffffffffffffffffffffffffff1673ffffffffffffffffffffffffffffffffffffffff16815260200191505060405180910390f35b34801561057857600080fd5b506105bb6004803603602081101561058f57600080fd5b81019080803573ffffffffffffffffffffffffffffffffffffffff169060200190929190505050611482565b6040518082815260200191505060405180910390f35b3480156105dd57600080fd5b50610697600480360360208110156105f457600080fd5b810190808035906020019064010000000081111561061157600080fd5b82018360208201111561062357600080fd5b8035906020019184600183028401116401000000008311171561064557600080fd5b91908080601f016020809104026020016040519081016040528093929190818152602001838380828437600081840152601f19601f82011690508083019250505050505050919291929050505061149a565b005b3480156106a557600080fd5b506106ae6115a4565b6040518082815260200191505060405180910390f35b3480156106d057600080fd5b506106d96115ab565b005b3480156106e757600080fd5b506106f0611691565b005b6106fa611777565b005b34801561070857600080fd5b50610711611940565b604051808215151515815260200191505060405180910390f35b34801561073757600080fd5b50610740611953565b6040518082815260200191505060405180910390f35b34801561076257600080fd5b5061088e6004803603608081101561077957600080fd5b810190808035906020019064010000000081111561079657600080fd5b8201836020820111156107a857600080fd5b803590602001918460018302840111640100000000831117156107ca57600080fd5b9091929391929390803590602001906401000000008111156107eb57600080fd5b8201836020820111156107fd57600080fd5b8035906020019184600183028401116401000000008311171561081f57600080fd5b90919293919293908035906020019064010000000081111561084057600080fd5b82018360208201111561085257600080fd5b8035906020019184600183028401116401000000008311171561087457600080fd5b909192939192939080359060200190929190505050611959565b005b34801561089c57600080fd5b506108a5611f2c565b6040518082815260200191505060405180910390f35b3480156108c757600080fd5b506108d0611fb1565b6040518082815260200191505060405180910390f35b3480156108f257600080fd5b506109356004803603602081101561090957600080fd5b81019080803573ffffffffffffffffffffffffffffffffffffffff169060200190929190505050611fbf565b005b34801561094357600080fd5b5061094c6121cc565b6040518082815260200191505060405180910390f35b34801561096e57600080fd5b506109776121d2565b604051808273ffffffffffffffffffffffffffffffffffffffff1673ffffffffffffffffffffffffffffffffffffffff16815260200191505060405180910390f35b3480156109c557600080fd5b506109ce6121f8565b6040518082815260200191505060405180910390f35b60086020528060005260406000206000915090505481565b60065481565b600260009054906101000a900473ffffffffffffffffffffffffffffffffffffffff1681565b600260149054906101000a900460ff1615610aab576040517f08c379a00000000000000000000000000000000000000000000000000000000081526004018080602001828103825260118152602001807f7769746864726177616c206c6f636b656400000000000000000000000000000081525060200191505060405180910390fd5b610ab3610d6c565b610b0581600760003373ffffffffffffffffffffffffffffffffffffffff1673ffffffffffffffffffffffffffffffffffffffff168152602001908152602001600020546121ff90919063ffffffff16565b600760003373ffffffffffffffffffffffffffffffffffffffff1673ffffffffffffffffffffffffffffffffffffffff16815260200190815260200160002081905550610b5d816005546121ff90919063ffffffff16565b600581905550600160009054906101000a900473ffffffffffffffffffffffffffffffffffffffff1673ffffffffffffffffffffffffffffffffffffffff16639dc29fac33836040518363ffffffff1660e01b8152600401808373ffffffffffffffffffffffffffffffffffffffff1673ffffffffffffffffffffffffffffffffffffffff16815260200182815260200192505050600060405180830381600087803b158015610c0c57600080fd5b505af1158015610c20573d6000803e3d6000fd5b505050503373ffffffffffffffffffffffffffffffffffffffff166108fc829081150290604051600060405180830381858888f19350505050158015610c6a573d6000803e3d6000fd5b503373ffffffffffffffffffffffffffffffffffffffff167f7fcf532c15f0a6db0bd6d0e038bea71d30d808c7d98cb3bf7268a95bf5081b65826040518082815260200191505060405180910390a250565b600a6020528060005260406000206000915090508054600181600116156101000203166002900480601f016020809104026020016040519081016040528092919081815260200182805460018160011615610100020316600290048015610d645780601f10610d3957610100808354040283529160200191610d64565b820191906000526020600020905b815481529060010190602001808311610d4757829003601f168201915b505050505081565b600354421015610e0a576000600960003373ffffffffffffffffffffffffffffffffffffffff1673ffffffffffffffffffffffffffffffffffffffff168152602001908152602001600020541415610e0557600354600960003373ffffffffffffffffffffffffffffffffffffffff1673ffffffffffffffffffffffffffffffffffffffff168152602001908152602001600020819055505b611029565b6000600960003373ffffffffffffffffffffffffffffffffffffffff1673ffffffffffffffffffffffffffffffffffffffff168152602001908152602001600020541115610fa8576000610e5d3361102b565b9050610eb181600860003373ffffffffffffffffffffffffffffffffffffffff1673ffffffffffffffffffffffffffffffffffffffff1681526020019081526020016000205461224990919063ffffffff16565b600860003373ffffffffffffffffffffffffffffffffffffffff1673ffffffffffffffffffffffffffffffffffffffff16815260200190815260200160002081905550610f098160065461224990919063ffffffff16565b6006819055503373ffffffffffffffffffffffffffffffffffffffff167f987d620f307ff6b94d58743cb7a7509f24071586a77759b77c2d4e29f75a2f9a600860003373ffffffffffffffffffffffffffffffffffffffff1673ffffffffffffffffffffffffffffffffffffffff16815260200190815260200160002054600654604051808381526020018281526020019250505060405180910390a2505b610fc06254600060035461224990919063ffffffff16565b4211610fcc5742610fe5565b610fe46254600060035461224990919063ffffffff16565b5b600960003373ffffffffffffffffffffffffffffffffffffffff1673ffffffffffffffffffffffffffffffffffffffff168152602001908152602001600020819055505b565b600080611036611f2c565b9050600354600960008573ffffffffffffffffffffffffffffffffffffffff1673ffffffffffffffffffffffffffffffffffffffff1681526020019081526020016000205411158061108a57506000600554145b806110955750600081145b156110a457600091505061124b565b60006110bb600654836121ff90919063ffffffff16565b905060006110d76254600060035461224990919063ffffffff16565b42116111345761112f600960008773ffffffffffffffffffffffffffffffffffffffff1673ffffffffffffffffffffffffffffffffffffffff16815260200190815260200160002054426121ff90919063ffffffff16565b61119e565b61119d600960008773ffffffffffffffffffffffffffffffffffffffff1673ffffffffffffffffffffffffffffffffffffffff1681526020019081526020016000205461118f6254600060035461224990919063ffffffff16565b6121ff90919063ffffffff16565b5b905062093a808111156111b25762093a8090505b600061124162093a8061123384611225600554611217600760008e73ffffffffffffffffffffffffffffffffffffffff1673ffffffffffffffffffffffffffffffffffffffff168152602001908152602001600020548a6122d190919063ffffffff16565b61235790919063ffffffff16565b6122d190919063ffffffff16565b61235790919063ffffffff16565b9050809450505050505b919050565b60045481565b61125e6123a1565b73ffffffffffffffffffffffffffffffffffffffff166000809054906101000a900473ffffffffffffffffffffffffffffffffffffffff1673ffffffffffffffffffffffffffffffffffffffff161461131f576040517f08c379a00000000000000000000000000000000000000000000000000000000081526004018080602001828103825260208152602001807f4f776e61626c653a2063616c6c6572206973206e6f7420746865206f776e657281525060200191505060405180910390fd5b600073ffffffffffffffffffffffffffffffffffffffff166000809054906101000a900473ffffffffffffffffffffffffffffffffffffffff1673ffffffffffffffffffffffffffffffffffffffff167f8be0079c531659141344cd1fd0a4f28419497f9722a3daafe3b4186f6b6457e060405160405180910390a360008060006101000a81548173ffffffffffffffffffffffffffffffffffffffff021916908373ffffffffffffffffffffffffffffffffffffffff160217905550565b60096020528060005260406000206000915090505481565b60006114526114048361102b565b600860008573ffffffffffffffffffffffffffffffffffffffff1673ffffffffffffffffffffffffffffffffffffffff1681526020019081526020016000205461224990919063ffffffff16565b9050919050565b60008060009054906101000a900473ffffffffffffffffffffffffffffffffffffffff16905090565b60076020528060005260406000206000915090505481565b80600a60003373ffffffffffffffffffffffffffffffffffffffff1673ffffffffffffffffffffffffffffffffffffffff16815260200190815260200160002090805190602001906114ed92919061252f565b503373ffffffffffffffffffffffffffffffffffffffff167f65c5fd4c1bff4ac202c0d32945c61eb69a7c9c44948368fc57500d4af26645db826040518080602001828103825283818151815260200191508051906020019080838360005b8381101561156757808201518184015260208101905061154c565b50505050905090810190601f1680156115945780820380516001836020036101000a031916815260200191505b509250505060405180910390a250565b6254600081565b6115b36123a1565b73ffffffffffffffffffffffffffffffffffffffff166000809054906101000a900473ffffffffffffffffffffffffffffffffffffffff1673ffffffffffffffffffffffffffffffffffffffff1614611674576040517f08c379a00000000000000000000000000000000000000000000000000000000081526004018080602001828103825260208152602001807f4f776e61626c653a2063616c6c6572206973206e6f7420746865206f776e657281525060200191505060405180910390fd5b6001600260146101000a81548160ff021916908315150217905550565b6116996123a1565b73ffffffffffffffffffffffffffffffffffffffff166000809054906101000a900473ffffffffffffffffffffffffffffffffffffffff1673ffffffffffffffffffffffffffffffffffffffff161461175a576040517f08c379a00000000000000000000000000000000000000000000000000000000081526004018080602001828103825260208152602001807f4f776e61626c653a2063616c6c6572206973206e6f7420746865206f776e657281525060200191505060405180910390fd5b6000600260146101000a81548160ff021916908315150217905550565b61177f610d6c565b6117d134600760003373ffffffffffffffffffffffffffffffffffffffff1673ffffffffffffffffffffffffffffffffffffffff1681526020019081526020016000205461224990919063ffffffff16565b600760003373ffffffffffffffffffffffffffffffffffffffff1673ffffffffffffffffffffffffffffffffffffffff168152602001908152602001600020819055506118293460055461224990919063ffffffff16565b600581905550600160009054906101000a900473ffffffffffffffffffffffffffffffffffffffff1673ffffffffffffffffffffffffffffffffffffffff166340c10f1933346040518363ffffffff1660e01b8152600401808373ffffffffffffffffffffffffffffffffffffffff1673ffffffffffffffffffffffffffffffffffffffff16815260200182815260200192505050600060405180830381600087803b1580156118d857600080fd5b505af11580156118ec573d6000803e3d6000fd5b505050503373ffffffffffffffffffffffffffffffffffffffff167fe1fffcc4923d04b559f4d29a8bfc6cda04eb5b0d3c460751c2402c5c5cc9109c346040518082815260200191505060405180910390a2565b600260149054906101000a900460ff1681565b60035481565b6119616123a1565b73ffffffffffffffffffffffffffffffffffffffff166000809054906101000a900473ffffffffffffffffffffffffffffffffffffffff1673ffffffffffffffffffffffffffffffffffffffff1614611a22576040517f08c379a00000000000000000000000000000000000000000000000000000000081526004018080602001828103825260208152602001807f4f776e61626c653a2063616c6c6572206973206e6f7420746865206f776e657281525060200191505060405180910390fd5b600260149054906101000a900460ff16611aa4576040517f08c379a00000000000000000000000000000000000000000000000000000000081526004018080602001828103825260158152602001807f7769746864726177616c206e6f74206c6f636b6564000000000000000000000081525060200191505060405180910390fd5b60006801bc16d674ec8000009050803073ffffffffffffffffffffffffffffffffffffffff16311015611b3f576040517f08c379a00000000000000000000000000000000000000000000000000000000081526004018080602001828103825260148152602001807f696e73756666696369656e742062616c616e636500000000000000000000000081525060200191505060405180910390fd5b600554611b6e6004543073ffffffffffffffffffffffffffffffffffffffff163161224990919063ffffffff16565b14611be1576040517f08c379a000000000000000000000000000000000000000000000000000000000815260040180806020018281038252600f8152602001807f696e76616c69642062616c616e6365000000000000000000000000000000000081525060200191505060405180910390fd5b611bf68160045461224990919063ffffffff16565b600481905550600260009054906101000a900473ffffffffffffffffffffffffffffffffffffffff1673ffffffffffffffffffffffffffffffffffffffff166322895118828a8a8a8a8a8a8a6040518963ffffffff1660e01b81526004018080602001806020018060200185815260200184810384528b8b82818152602001925080828437600081840152601f19601f8201169050808301925050508481038352898982818152602001925080828437600081840152601f19601f8201169050808301925050508481038252878782818152602001925080828437600081840152601f19601f8201169050808301925050509a50505050505050505050506000604051808303818588803b158015611d0d57600080fd5b505af1158015611d21573d6000803e3d6000fd5b50505050507f9601e5af6d2ed7d709df1e0648762f952988a5d05144ffb9b508f7f456d797ce600260009054906101000a900473ffffffffffffffffffffffffffffffffffffffff1673ffffffffffffffffffffffffffffffffffffffff1663621fd1306040518163ffffffff1660e01b815260040160006040518083038186803b158015611daf57600080fd5b505afa158015611dc3573d6000803e3d6000fd5b505050506040513d6000823e3d601f19601f820116820180604052506020811015611ded57600080fd5b8101908080516040519392919084640100000000821115611e0d57600080fd5b83820191506020820185811115611e2357600080fd5b8251866001820283011164010000000082111715611e4057600080fd5b8083526020830192505050908051906020019080838360005b83811015611e74578082015181840152602081019050611e59565b50505050905090810190601f168015611ea15780820380516001836020036101000a031916815260200191505b506040525050506040518080602001828103825283818151815260200191508051906020019080838360005b83811015611ee8578082015181840152602081019050611ecd565b50505050905090810190601f168015611f155780820380516001836020036101000a031916815260200191505b509250505060405180910390a15050505050505050565b6000600354421015611f415760009050611fae565b6000611f58600354426121ff90919063ffffffff16565b905062546000811115611f7857691969368974c05b000000915050611fae565b611faa62546000611f9c83691969368974c05b0000006122d190919063ffffffff16565b61235790919063ffffffff16565b9150505b90565b691969368974c05b00000081565b611fc76123a1565b73ffffffffffffffffffffffffffffffffffffffff166000809054906101000a900473ffffffffffffffffffffffffffffffffffffffff1673ffffffffffffffffffffffffffffffffffffffff1614612088576040517f08c379a00000000000000000000000000000000000000000000000000000000081526004018080602001828103825260208152602001807f4f776e61626c653a2063616c6c6572206973206e6f7420746865206f776e657281525060200191505060405180910390fd5b600073ffffffffffffffffffffffffffffffffffffffff168173ffffffffffffffffffffffffffffffffffffffff16141561210e576040517f08c379a00000000000000000000000000000000000000000000000000000000081526004018080602001828103825260268152602001806125d56026913960400191505060405180910390fd5b8073ffffffffffffffffffffffffffffffffffffffff166000809054906101000a900473ffffffffffffffffffffffffffffffffffffffff1673ffffffffffffffffffffffffffffffffffffffff167f8be0079c531659141344cd1fd0a4f28419497f9722a3daafe3b4186f6b6457e060405160405180910390a3806000806101000a81548173ffffffffffffffffffffffffffffffffffffffff021916908373ffffffffffffffffffffffffffffffffffffffff16021790555050565b60055481565b600160009054906101000a900473ffffffffffffffffffffffffffffffffffffffff1681565b62093a8081565b600061224183836040518060400160405280601e81526020017f536166654d6174683a207375627472616374696f6e206f766572666c6f7700008152506123a9565b905092915050565b6000808284019050838110156122c7576040517f08c379a000000000000000000000000000000000000000000000000000000000815260040180806020018281038252601b8152602001807f536166654d6174683a206164646974696f6e206f766572666c6f77000000000081525060200191505060405180910390fd5b8091505092915050565b6000808314156122e45760009050612351565b60008284029050828482816122f557fe5b041461234c576040517f08c379a00000000000000000000000000000000000000000000000000000000081526004018080602001828103825260218152602001806125fb6021913960400191505060405180910390fd5b809150505b92915050565b600061239983836040518060400160405280601a81526020017f536166654d6174683a206469766973696f6e206279207a65726f000000000000815250612469565b905092915050565b600033905090565b6000838311158290612456576040517f08c379a00000000000000000000000000000000000000000000000000000000081526004018080602001828103825283818151815260200191508051906020019080838360005b8381101561241b578082015181840152602081019050612400565b50505050905090810190601f1680156124485780820380516001836020036101000a031916815260200191505b509250505060405180910390fd5b5060008385039050809150509392505050565b60008083118290612515576040517f08c379a00000000000000000000000000000000000000000000000000000000081526004018080602001828103825283818151815260200191508051906020019080838360005b838110156124da5780820151818401526020810190506124bf565b50505050905090810190601f1680156125075780820380516001836020036101000a031916815260200191505b509250505060405180910390fd5b50600083858161252157fe5b049050809150509392505050565b828054600181600116156101000203166002900490600052602060002090601f016020900481019282601f1061257057805160ff191683800117855561259e565b8280016001018555821561259e579182015b8281111561259d578251825591602001919060010190612582565b5b5090506125ab91906125af565b5090565b6125d191905b808211156125cd5760008160009055506001016125b5565b5090565b9056fe4f776e61626c653a206e6577206f776e657220697320746865207a65726f2061646472657373536166654d6174683a206d756c7469706c69636174696f6e206f766572666c6f77a2646970667358221220632990ca2460fb43377ca50f081c415769207e34a5ec8710b1ea045d6db107f364736f6c634300060b0033",
  "compiler": {
    "name": "solc",
    "version": "0.6.11+commit.5ef660b1.Emscripten.clang",
    "optimizer": {
      "enabled": false,
      "runs": 200
    },
    "evmVersion": "petersburg"
  }
}